:1051E5007B0190FFFD121786EBF0A3EAF0A3E9F02F
:1051F5007B007A00790090FFFD121786EBF0A3EA99
:05520500F0A3E9F02216
:104ED90012000E12369A90FFFF1217867402F07AAA
:104EE9000179A21251E57A5079C0124F1E7401F06E
:104EF900FB7A0179D31251E77A3779F4124F1E748C
:104F090003F07A0279041251E57BFF7A4F792A126C
:104F190043060252507BFF12430690FFFF12178689
:014F29002265
:1048830055AA03000001000355AA03000001010417
:1048930055AA0301002A7B2270223A2275706366AF
:1048A30073776136796A737A71346231222C227696
:1048B300223A22312E302E30222C226D223A307DA4
:1048C3002655AA030200000455AA03030000055558
:1048D300AA03050001000855AA03050001010955B3
:1048E300AA030E00001055AA0307000502010001E8
:1048F300001255AA0307000503040001001655AA78
:104903000307000505040001001855AA0307000862
:1049130006020004001D55AA030700051205000145
:0E492300002655AA030700050D010001011E24
:1022DF004C02D855AA030700050E04000100214F38
:1022EF0002E455AA030700080602000400000000DC
:1022FF001D4C02B155AA03070000000000000000AA
:10230F004102D4004102BD004C02C7000000000092
:10231F0000000000000000C1054202D5000041028C
:10232F00C6004102D3004102C4004102C500410270
:10233F00D7004402BF000003E84102C3004202F38A
:02234F0000008C
:103947009002C5E004F0E0FEEF75F00CA424E9F561
:1039570082E43448F583E5822EF582E43583F583E6
:10396700E493FF74B02EF582E43402F583E0FEEFB2
:103977002EFF9002C5E024B1F582E43402F58322DC
:103987005398FD9002BEE004F022E4900245F074E3
:10399700FF900300F0A3F0E4900316F0227F02FEED
:1039A700FDFC900327E0F8A3E0F9A3E0FAA3E0FB0E
:1039B700229002BEE0FFC3940C7480948022741E90
:1039C700900244F09002997401F0229002F3F0A360
:1039D700F0900245E06401229002457407F09003DD
:1039E70000E4F0A32275F00CA424E9F582E434483E
:1039F700F583E5822FF582E43583F583E493FE2290
:103A07009002BEE0FFC3940874809480229002BEA7
:103A1700E0FFC394077480948022EFF0E49002BE25
:103A2700F0229002BFE0FCA3E0FDA3E0FEA3E022AA
:103A370043A810E49002D4F09002BDF0225398EF0F
:103A47009002D404F0221214BDE47BFFFAF9F802C5
:103A570015489002D1E0640122900245E0FD7C0008
:103A67006401229002CDE0FF7E0022E49002F3F091
:103A7700A3F02290027C7403F0A37484F0229002D6
:053A8700CDE064042203
:1050C00090FFFD121786EBF0A3EAF0A3E9F0850844
:1050D00083850982E0F9A3E0FAA3E08508838509C6
:1050E00082C9F0A3EAF0A3E9F0E47F05FEFDFC121B
:0D50F00049DF1218A4125164123DB880EC83
:103DB800C39002F4E094E89002F3E094035011A356
:103DC800E004F070069002F3E004F0E490023AF0A8
:103DD800200403023E9F9002D7E014601314601C75
:103DE800240270229002BF121659000003E88016C0
:103DF8009002BF12165900000352800A9002BF12A7
:103E08001659000002BCE47F267E02FDFC9002BF2A
:103E18001239ACC31215E85005E490023AF0123A90
:103E280029FF1239A9C31215E85019E490023AF093
:103E3800900327123A2C2401FFE43EFEE43DFDE402
:103E48003CFC8004123A29FF90032712164DE47FA8
:103E5800907E011239A7C31215E8500A9003271261
:103E68001659000001909002D7E070028001E41218
:103E780039A4123A4D8FF5E41239A4123A4DAF0322
:103E88008FF4E47F107E271239A7C31215E8400E7D
:0F3E980075F50775F4FF22123A72F5F5F5F4226D
:105164009002D6E004F070069002D5E004F0D390EB
:1051740002D6E094D09002D5E0648094874010E495
:10518400F0A3F0123A3B759E0275981043A81022C2
:1018A4009002D3E0FF606F7E006401701F9002BE5F
:1018B400F09002BEE0FD123A0C5053ED9048D293E2
:1018C400F599E59830E1FB12398780E5EF64024E23
:1018D400701A9002BEF0123A075033EF9048DA9330
:1018E400F599E59830E1FB12398780EA9002D3E05C
:1018F4006403701A9002BEF0123A145011EF90482B
:10190400E293F599E59830E1FB12398780EA439830
:1019140010E49002D3F09002D4E07003021BEC5365
:10192400A8EF9002C7E064556003021BE69002C969
:10193400E07044A3E070409002D5F0A3F020051CB1
:10194400D2059002BEF0123A07502CEF90488393D0
:10195400F599E59830E1FB12398780EAE49002BEFC
:10196400F0123A075011EF90488B93F599E59830AF
:10197400E1FB12398780EA9002C9E07029A3E06490
:101984000170239002BEF09002BEE0FFC394317454
:101994008094805011EF90489393F599E59830E145
:1019A400FB12398780E19002C9E07020A3E0640251
:1019B400701A9002BEF0123A145011EF9048C4937A
:1019C400F599E59830E1FB12398780EA9002C9E085
:1019D4007020A3E06403701A9002BEF0123A14500F
:1019E40011EF9048CB93F599E59830E1FB123987D4
:1019F40080EA9002C9E0700FA3E0FF64086005EF7D
:101A040064037003123A7A9002CAE0FF7E00640E07
:101A1400700D9002CCE06402700590025404F0EF63
:101A240064064E6003021BE6123A7A123A6A6402B2
:101A3400700F123A59700A90024504F0D203123919
:101A4400C5EF64034E7017123A597012900245E0C4
:101A5400700604F0D20380031239911239C5900242
:101A6400CDE06403701B9002D1E064027013900215
:101A740045E07007740AF0D20380031239911239D9
:101A8400C5123A6A6403700C9002D1E070061239F0
:101A9400921239C5EF64024E700C9002D1E07006C8
:101AA4001239921239C5123A85701F9002D1E07032
:101AB400191239D270079002C604F08005E490022E
:101AC40045F01239DF74DC12399D123A6A640470ED
:101AD4001E123A5970191239D270079002C604F0D6
:101AE4008005E4900245F01239DF74DD12399DEF70
:101AF40064044E70219002D1E0640270191239D24C
:101B040070079002C604F08005E4900245F0123993
:101B1400DF74DE12399D123A8570219002D1E0649F
:101B24000370191239D270079002C604F08005E4DC
:101B3400900245F01239DF74DF12399D123A857034
:101B4400349002D1E06404702C9002C6E064017009
:101B540018123A73125277E49002C6F090024504C8
:101B6400F0D203D2B3D204800C123A72C2B3C2953B
:101B7400C2041239929002CDE0640D7024123A59D5
:101B8400701F9002BEF01239B85011EF904925939E
:101B9400F599E59830E1FB12398780EA74C8123967
:101BA400C79002CDE0640E7039A3E06404703390F2
:101BB40002D1E09002E2F09002D7F024219002E3F7
:101BC400123A221239B8501774D82FF582E434022D
:101BD400F583E0F599E59830E1FB12398780E4124A
:101BE40039C5123A37439810E49002C4F0D39002F6
:101BF4007DE094E890027CE0648094835003021EAC
:101C040077E4F0A3F09002C5F053A8EF9002C4F07B
:101C14009002C4E0C39405748094804003021E7152
:101C2400E4A3F09002C51239BB4003021E68C3EF5F
:101C3400940A7480948050129002C4E01239EC74B7
:101C4400B12F12397FEEF0021E5F9002C5E0FF64EF
:101C54000A6003021E5F9002C4E0FE705B900245BE
:101C6400E0FD6401600AED64026005ED640A700B36
:101C740074B12F12397F7401F08005123979E4F0C0
:101C84009002C5E004F0E0FFEE1239EC74B02FF5D9
:101C940082E43402F583E0FFEE2F123978123A2100
:101CA4001239B8501374B12F12397FE0F599E598C1
:101CB40030E1FB12398780E89002C4E0FF640170D0
:101CC40041123A6070081239797401F08016ED649B
:101CD4000A4C9002C5700812397C7402F080051217
:101CE400397CE4F0123947123A211239B85013748E
:101CF400B12F12397FE0F599E59830E1FB1239876D
:101D040080E89002C4E0FF6402706B123A607008CD
:101D14001239797401F08040ED640A4C700812396C
:101D2400797402F08032900245E064037025C39018
:101D34000273E09464900272E0648094809002C51F
:101D4400E0500812397D7403F0800D12397D74045B
:101D5400F08005123979E4F0123947123A21123928
:101D6400B8501374B12F12397FE0F599E59830E13A
:101D7400FB12398780E89002C4E064037039900252
:101D840059E09002F1F0241DA3F09002C5E0041282
:101D94003A229002BEE0FFC3940F748094805017DF
:101DA40074E42FF582E43402F583E0F599E5983084
:101DB400E1FB12398780DB9002C4E0FF6404600316
:101DC400021E5F90024B123A63700912397974084B
:101DD400F0021E41ED64024C70091239797410F05E
:101DE400021E4190024BE0FD7C006403700812392E
:101DF400797404F08047ED64044C700812397974E6
:101E040040F0803990024BE0FD7C006405700812BC
:101E140039797401F08026ED64064C700812397922
:101E24007402F0801890024BE064079002C57008B9
:101E340012397C7420F0800512397CE4F0123947A1
:101E4400123A211239B8501374B12F12397FE0F5C8
:101E540099E59830E1FB12398780E89002C5E004E7
:101E6400F0021C279002C4E004F0021C14123A375A
:041E7400439810225D
:03002300023EA7F3
:103EA700C0E0C083C082C0D075D000C004C005C0C8
:103EB70006C007E59820E003023F7C9002BDE0FFC3
:103EC700700EAD99ED64557007C3EF1239BE4016F9
:103ED7009002BDE0FF607C9002C7E064557074C338
:103EE700EF1239BE506D9002BDE0FF04F074C72F8A
:103EF700F582E43402F583E599F09002BDE0FF7E98
:103F0700006407701C9002CAE0FDD3940274809489
:103F1700804005ED640870095398EF9002D474014E
:103F2700F0EF64084E700B9002CAE064037003124E
:103F37003A449002BDE06409700B9002CAE0640E37
:103F47007003123A449002BDE0640C7003123A44C5
:103F57005398FE9002BDE06013AF99EF6455700C63
:103F67009002C7E599F09002BD7401F09002BDE0A0
:103F7700640C7001F0D007D006D005D004D0D0D0A3
:063F870082D083D0E0327D
:10235100C1814C02A3000000000000000000000049
:102361000041024A0042023800004202620000417C
:10237100026500410299014102441E4102450141A9
:10238100026D0042023C00004102460041026A0027
:1023910041026C0041023B0041023E004102B0009B
:1023A10041023700410254004102660041026B00C4
:1023B1004102490044023F0000000044025D000068
:1023C10000004202720000410261004102360044F5
:1023D10002500000000044024C000000004202686C
:1023E10000004102640041023500410296004102B1
:1023F1003A004102670041026E0041025A00410267
:102401004B00420247000041025950410271005401
:102411000280000000000000000000000000000039
:102421000000000000004102430042027C0000C1A4
:0724310000C10241029E0000
:10284E0090024BF07406900245F074FF900300F076
:10285E00A3F0E4900316F022F0741E900244F09060
:10286E0002997401F022E47F287E2390024CFDFC35
:10287E00E0F8A3E0F9A3E0FAA3E0FBC30215E890A9
:10288E00024CE0FCA3E0FDA3E0FEA3E024019002D5
:10289E004CFFE43EFEE43DFDE43CFC02164D90028E
:1028AE006BE075F00684E5F022900257E0FEA3E09F
:1028BE00FF900256E02FFF900255E03EFE90025C24
:1028CE00E02FFF90025BE03EFE22900265E075F085
:1028DE006484C3E5F094327480948022900247E0C1
:1028EE006480948090024CE0FCA3E0FDA3E0FEA384
:1028FE00E022C3900279E0941E900278E0940022C8
:10290E0090027C7403F0A3227D017C00E4FF2290F0
:10291E00023BE0C3940A7480948022C3900275E057
:10292E009414900274E094002278401211B9A80415
:10293E00A905AA06AB07E4FFFE7DC87C421210C1B2
:10294E00121294900247EEF0A3EFF022C39002779A
:10295E00E0942C900276E094012290023BF09003DA
:10296E0000F0A322ED2401FFE43CFEEF25E0FFEE94
:10297E00338F82F58302145890023BD3E094037494
:10298E0080948022900245E0640322E490025AF083
:10299E0004900238F0A3742C22C2B3C295C2042252
:1029AE00900269E004F022900268E004F0229002A6
:1029BE0068E0FEA3E0FF2290026BE075F00384E571
:1029CE00F02290023BE0D394007480948022900217
:1029DE0047E4F0A37464F02290026FE0FEA3E0FFE0
:1029EE00D39414EE940022C374049FFD740B9EFCCA
:1029FE00E402125B7D017C007F017E0022E0C39425
:102A0E00027480948022900245E0640B229002456D
:102A1E00E064062290027AE0FEA3E0FFC322E00407
:102A2E00F090024B2290026BE05403229002447409
:102A3E001EF0900246E0FF2290023BE0D394077412
:102A4E008094802290023BE0C3940574809480228F
:102A5E00900332E025E0FF900331E022900245E042
:102A6E00FD7C00640B22E0FFC394127480948022DC
:1037F40090FFFD121786EBF0A3EAF0A3E9F0850829
:1038040083850982E0F9A3E0FAA3E08508838509AA
:1038140082C9F0A3EAF0A3E9F0E47F64FEFDFC12A0
:1038240049DF43BD1090027DE004F0700690027CF5
:10383400E004F01235351252AD122E82123BB4124E
:103844001E78122A146036E4FFFE124A86123932B8
:1038540090027EE0FFA3E090029ACFF0A3EFF090F5
:103864000294E0FFA3E090029CCFF0A3EFF090025B
:1038740097E0FFA3E090029FCFF0A3EFF090029EA9
:10388400E0700C122A7E123A8C124931122C92C228
:10389400A1E47F02FEFDFC1249DF122A14601F908E
:1038A400029EE0FF600A123923E490029EF0800E2B
:1038B40090029EE0FF12392390029EE004F09002F1
:1038C40045E0FF64036042EF640B603D90029EE0BC
:1038D400703790027EE0FEA3E0FF90029A7B011213
:1038E400393C900294E0FEA3E0FF90029C7B02121C
:1038F400393C900297E0FEA3E0FF90029FE0FCA316
:10390400E0FD7B037A001247CF900245E0FF640399
:103914006007EF640B6002D2A11239320238267EAE
:1039240000124A86E47F02FEFDFC1249DF22E47F96
:1039340001FEFDFC1249DF22E0FCA3E0FD7A001247
:0339440047CF2248
:103BB400900245E0FF64046005EF64057019122863
:103BC400745014900248E0940A1228EA5004240A1B
:103BD4008002240112289C900245E0FF64046005E1
:103BE400EF64057013122874400EE41228549002F6
:103BF4004C12165900000000122A1B703E7F4C7EA6
:103C04001D1228795035900247122A25940DEE642E
:103C14008094805011EF9405EE64809480400712E4
:103C240028F224018012D3900248E094051228EA75
:103C34005004240A8002240112289C122A1B702A90
:103C44007F4C7E1D122879402190024BE06407705E
:103C54000A900245740BF0C2878005E4900245F097
:103C640090024C12165900000000900245E0700CBE
:103C74007F307E75122879500312288D900245E01A
:103C8400701B7F307E751228794012C287900245DE
:103C9400740BF090024C12165900000000122A1402
:103CA40070197F0AFE122879500312288DE47F0AC6
:0C3CB400FE122879700512288DC28722AC
:102C9200900245E0FF640B7003022E81EF64036033
:102CA20060122A22940EEE940B40051229DC800C4D
:102CB2001229F57BF67A2879BC122937900245E071
:102CC200FF6401600AEF640A6005EF6407705490C4
:102CD2000246E0704E9002D7E0FF7E00700890023C
:102CE20048E0241E8011EF64014E9002487005E016
:102CF20024148003E0240AF0900247E03400F080BC
:102D020022900261E06402601A122A229404EE9474
:102D12000B40051229DC800B1229F5E4FBFA79B08D
:102D2200122937D3900248E09464900247E064800D
:102D3200948040031229DFC3900248E09405900278
:102D420047E0648094805006E4F0A37405F090029A
:102D5200711229205021E004F0900247E0FEA3E026
:102D6200FF900271E025E02480F582E43402F583CD
:102D7200EEF0A3EFF0801B7B017A0279807D0A7C62
:102D820000123F8D90028AA3E0900259F0E4900273
:102D920071F0900259E0D3940F74809480501D908A
:102DA2000246E07017122992601290025AE0C39410
:102DB200E874809483500AE004F08005E490025A9B
:102DC200F090025AE0FF7E00BE030FBFE80C04F051
:102DD20090024B7407F014122854122992600302D5
:102DE2002E8190025AF07FC07E7A7D10FC90023FC5
:102DF20012287E501090023F1228F5240190023FC3
:102E020012289F80069002721229DF900261E0640C
:102E120001705C30A0337F32FEFDFC90025DE0F871
:102E2200A3E0F9A3E0FAA3E0FBD31215E850249043
:102E3200025D1228F52401FFE43EFEE43DFDE43C80
:102E4200FC90025D12164D800A90025D1216590026
:102E5200000000E47F32FE90025D12287C40109058
:102E620002617402F090025D121659000000009097
:102E72000261E064027008900272F0A37464F022AE
:1049310020B4651229926060A3E0705C900249C3C3
:1049410012298A501CE4900261F0900249E004F0BF
:10495100E4900272F0A3F090023F12165900000099
:1049610000900249E06403702F900236F0900261DA
:1049710004F0C295C204C2B3C2A112290E74D412AA
:10498100286674FF900300F0A3F0740112299F12AE
:10499100285F9002457403F030B442122992703DB1
:1049A100A3E07039900249E0640A7009E01412280A
:1049B1006612299FF09002491229205020E014F03C
:1049C100E0701A12290E74D4F09002387401F0A329
:0E49D100742CF0E4900245F0D2031228672205
:102E8200A201B3309301B3400B9002B012298A50D1
:102E920003E004F0A201B3309401B3406F90023713
:102EA20012298A5003E004F0C3900263E094F49084
:102EB2000262E094015014900246E0700E900263A8
:102EC200E004F07006900262E004F0900262E0FA20
:102ED200A3E0FBBA011EBB2C1B90024C1216590038
:102EE2000000009002457404F0D20312286D900293
:102EF20044741EF0BA0115BBF31290024C1216591B
:102F0200000000009002457405122866A293300169
:102F120001B3405F9002B0E06403705290024C1221
:102F2200165900000000122999F090026DE0041277
:102F3200286C122A3A601690026AE06010E490024D
:102F42003EF0900266E004F0E490026BF0122A6A0E
:102F52007002D287ED4C7009EF7006900245048032
:102F620004E4900245F0D20312290E74B6F0E49004
:102F720002B0F0A294300101B35003023006900275
:102F820062E0FAA3E0FB942CEA94015058900237D5
:102F9200E06403706490024C1216590000000012A3
:102FA2002999F090026DE00412286C122A3A6011FD
:102FB20090026AE0600BE490023EF090026BE00443
:102FC200F0122A6A7002D287ED4C700AEF700790F5
:102FD2000245740A8004E4900245F0D20312290EDD
:102FE20074B6F08014C3EB94F3EA94019002D350C8
:102FF200057401F080037402F0E4900262F0A3F021
:10300200900237F09002B0E06403702D900237E036
:103012006403702590026DE0C312298B501B90024D
:1030220046E0701512299260101228589002460448
:10303200F0900299F012299FF0C390023DE094C8EB
:1030420090023CE064809480500DA3E004F0700D87
:0E30520090023CE004F02290026D7403F02224
:102A7E001228B7AD07FC3090050DBD00010CD3ED4B
:102A8E009400EC94004004D2008002C200D3EF9474
:102A9E0000EE94004004D2028002C202900245E091
:102AAE00FF64016008EF640A6003022C9120900716
:102ABE00E4900264F08010900264E0C394C87480C5
:102ACE0094805003E004F0900264E064C870111228
:102ADE00290E74E9F0900264E004F0740112284E9D
:102AEE001228B7C3EF9403EE9400501EEF9400EE3D
:102AFE0094004016E4900243F0900235E0949674F0
:102B0E008094805034E004F0802F1228B7EF6403D5
:102B1E004E701D900243E004F0E0C31228E340190A
:102B2E00122858900245122866E4900243F080095C
:102B3E00E4900243F0900235F0900235E064967016
:102B4E001112290E74E9F0900235E004F0740212AD
:102B5E00284ED3900279E094321229074011900248
:102B6E0096E0946474809480500AE004F08005E44A
:102B7E00900296F0900296E06464701112290E7421
:102B8E00E9F0900296122A2C740312285130047A1E
:102B9E001229926075900276E0FEA3E0FFD394FABC
:102BAE00EE9400400E90023AE094C87480948050E7
:102BBE0034802FD3EF94FAEE94005023C390027713
:102BCE00E09432900276E09400401490023A12297A
:102BDE00D34005E014F0800DE490023AF0800690A8
:102BEE00023AE004F090023AE064C8701112290E25
:102BFE0074E9F090023A122A2C74041228519002B1
:102C0E0045E06407700490023AF0D3900275E094A8
:102C1E0050122930400E900267E01228E3500AE06D
:102C2E0004F08005E4900267F0900267E0641E7085
:102C3E001612290E74E9F0900267122A2C7405F010
:102C4E0090024504122857D3900270E094509002DF
:102C5E006FE09400400E90026EE01228E3500AE0FE
:102C6E0004F08005E490026EF090026EE0641E7037
:102C7E001212290E74E9F090026E122A2C7406F0CC
:032C8E00122854B5
:012C91002220
:101E7800900246E070030222DE90026AE07026A219
:101E880093300101B3401EA294300101B340169073
:101E9800026A74011228571229A79002447464F048
:101EA800E490026CF09002661228AF64017061122F
:101EB80028581229A71229C57018900255E07002F7
:101EC800A3E060051229168005E4FDFC7F01FE12DF
:101ED80052E01229C564017018900257E07002A3FD
:101EE800E060051229168005E4FDFC7F01FE125210
:101EF800E01229C56402701890025BE07002A3E04A
:101F080060051229168005E4FDFC7F01FE1252E0EF
:101F18009002661228AF6402705C90026BE0540174
:101F2800701C900254F090023BF090023EF030900A
:101F3800067D01FCFF8020E4FDFC7F0180199002F2
:101F48003BE0700804F09002D37403F0900254E070
:101F5800600BE4FDFC7F01FE1252E0801912291685
:101F6800FE1252E090023BE004F0E0D394FA748051
:101F780094804002E4F09002661228AF6403600384
:101F88000221181228AC704890023EE0700D122908
:101F98006874C812285F90023E04F0D3900275E07E
:101FA800941E122930400E90023BE0122922500D57
:101FB800E004F080081229D04003E014F0122986CA
:101FC80040051229168005E4FDFC7F01FE1252E04F
:101FD8001228AC6401704B90023EE0700D12296823
:101FE80074C912285F90023E04F0D3900270E09406
:101FF8001E90026FE09400400E90023BE0122922EE
:10200800500DE004F080081229D04003E014F012CB
:10201800298640051229168005E4FDFC7F01FE1281
:1020280052E01228AC6402705490023EE0700D90A9
:10203800023B12285790023E04F0D2049002C3E0FB
:10204800C39484748094835017900277E0945E124E
:10205800296140051229168020E4FDFC7F018019C2
:10206800D3900277E094C8900276E094004005127D
:1020780029168005E4FDFC7F01FE1252E01228AC0F
:102088006403702B90023EE0701190023B122857B7
:1020980090023E04F0D2B3C295C204D31229014083
:1020A800051229168005E4FDFC7F01FE1252E0129C
:1020B80028AC6404703190023EE0700E90023B122E
:1020C800285790023E04F01229A7C390027BE0949F
:1020D8006C90027AE0940750051229168005E4FDF9
:1020E800FC7F01FE1252E01228AC640570229002B7
:1020F8003EE0700B90023B12285790023E04F030ED
:10210800B4051229168005E4FDFC7F01FE1252E099
:102118009002661228AF6404600302229A122A33DE
:10212800704A90023EE070101229A712296874CAFA
:1021380012285F90023E04F0900307122A74400AA6
:10214800D3EF941E74809480400A12291D500AE02F
:1021580004F08005E490023BF0122A46400512295B
:10216800168005E4FDFC7F01FE1252E0122A33645A
:1021780001704790023EE0700D12296874CB122856
:102188005F90023E04F090030B122A74400AD3EFCA
:10219800941E74809480400A12291D500AE004F0AD
:1021A8008005E490023BF0122A4640051229168069
:1021B80005E4FDFC7F01FE1252E0122A336402702E
:1021C8006790023EE07011D2B3D20412296874CC31
:1021D80012285F90023E04F01229E6500F12292AB5
:1021E800500A12295B50051229014008122A525040
:1021F80003E004F0C3EF9414EE940050141229295C
:10220800500F12295A500A1229005005E490023B37
:10221800F090023BE0640570067D01FCFF8005E458
:10222800FDFC7F01FE1252E0122A336403706390B2
:10223800023EE0700D12296874CD12285F90023EAC
:1022480004F01229E6500F12292A500A12295B506D
:10225800051229014008122A525003E004F0C3EF86
:102268009414EE94005014122929500F12295A5030
:102278000A1229005005E490023BF090023BE0640A
:102288000570067D01FCFF8005E4FDFC7F01FE1260
:1022980052E0900266E075F00684AFF0EF640560E6
:1022A80003EF703290023EE0700E1229A790023BB5
:1022B80012285790023E04F012291D5005122A02D6
:1022C8008005E4FDFCFFFE1252E090023BE004F0C2
:0722D800E064147001F02224
:1047CF00C3ED9FF582EC9EF583C3E5829450E5839C
:1047DF009400500AED9FEC9E4004D2068002C20660
:1047EF00EA7049EB24FE601B14602C2402703D30EC
:1047FF00060A9002A1122A0B50328026E49002A1E1
:10480F00F0802930060A9002A2122A0B501E801245
:10481F00E49002A2F0801530060D9002AF122A0B21
:10482F00500AE004F08005E49002AFF09002A1E09E
:10483F0064027009900255F0A304F08007E490021F
:10484F0055F0A3F09002AFE06402700990025BF0A4
:10485F00A304F08007E490025BF0A3F09002A2E0C3
:10486F0064027008900257F0A304F022E4900257FC
:03487F00F0A3F0B3
:014882002213
:10353500C3900239E0942C900238E09401502EA3F8
:10354500E004F07006900238E004F0900238E0FEE6
:10355500A3E0FF7C007D641213A1C3ED9432EC94CB
:10356500005005C2B0C2B122D2B0D2B122900265DC
:10357500E004F0900245E0702EA3E0702A90026509
:10358500F07D01FC7F01FE1252E0E4900264F090B0
:103595000235F0900296F090023AF0900267F090B2
:1035A500026EF090024BF0900245E064017015A3A5
:1035B500E070111228D8E4FDFC50047F018001FF62
:1035C500FE1252E0900245E064047020A3E0701CF6
:1035D500900265E075F01484C3E5F0122922E4FD3C
:1035E500FC50047F018001FFFE1252E0900245E08D
:1035F50064057015A3E070111228D8E4FDFC500491
:103605007F018001FFFE1252E0122A1B70087D0126
:10361500FCFFFE1252E0900245E064077010900234
:103625004C12165900000000122A021252E09002B4
:1036350045E0640A7016A3E070121228D85007E41A
:10364500FDFCFFFE8003122A021252E0122A1470BA
:1036550007FDFCFFFE1252E0122992702EA3E070C6
:103665002A90025AF0900272E07004A3E06464703C
:1036750006FDFC7F0180101228D850077D017C00D3
:10368500E48003E4FDFCFFFE1252E0900265E06475
:05369500647001F02249
:103A8C00122A1B6003023BB390024BE0FF7003024F
:103A9C003BA01229A77E0064017015900268E070AB
:103AAC0002A3E070031228671229AE70031229B525
:103ABC00EF64024E701A1229BC4E7003122867EF85
:103ACC0064324E70031228671229AE70031229B5A6
:103ADC0090024BE0640370231229BC4E7003122831
:103AEC0067EF64324E7003122867EF64644E700304
:103AFC001228671229AE70031229B590024BE0FF11
:103B0C007E006404703A900268E0FCA3E0FD4C7007
:103B1C0003122867ED64324C7003122867ED64645D
:103B2C004C7003122867ED64C84C7003122867EDC3
:103B3C0064FA4C70031228671229AE70031229B56F
:103B4C00EF64054E600890024BE064067023122966
:103B5C00BC4E7003122867EF64324E700312286754
:103B6C00EF64964E70031228671229AE7003122967
:103B7C00B590024BE06407701B1229BC7C007D647D
:103B8C001213F6ED4C7005740A1228691229AE70E6
:103B9C00031229B5900268E0B4010CA3E0B4F40759
:083BAC00E4900268F0A3F0228E
:1052E000EF64014E7004C2B08002D2B0ED64014C94
:0852F0007003C2B122D2B12209
:1052AD00900299E06013900244E014F0E06003D2A4
:0A52BD00B222C2B2E4900299F0227E
:104A860090024AE064016003024B2A90FEE0E0FDDA
:104A9600A3E090026FCDF0A3EDF090FEE2E0FDA35F
:104AA600E0900274CDF0A3EDF090FEE4E0FDA3E00B
:104AB600900276CDF0A3EDF090FEE6E0FDA3E09047
:104AC6000278CDF0A3EDF090FEE8E0FDA3E09002C1
:104AD6007ACDF0A3EDF090FEEAE0FDA3E090027E31
:104AE600CDF0A3EDF090FEECE0FDA3E0900294CDB6
:104AF600F0A3EDF090FEEEE0FDA3E0900297CDF07E
:104B0600A3EDF0EF64014E700653B4FE43B401EF1B
:104B16004E700353B4FEE490024AF043B84053B4D7
:054B2600DF43B4402252
:103F8D00E490032FF0A3F0A3F0A3F0A3F0A3F0EDC2
:103F9D0024FFFEEC34FF90032FF0A3CEF0D390035B
:103FAD0030E0940090032FE0648094805003024031
:103FBD0072E4900331F0A3F090032FE0FEA3E0FF35
:103FCD00A3E0FCA3E0FDC39FEE6480F8EC64809851
:103FDD004003024061122972FDACF0122A5E1229D3
:103FED007ED39DEC6480F8E5F06480984052900398
:103FFD0031E0FCA3E0FD25E0FFEC12297EFF9003EC
:10400D0033E5F0F0A3EFF0122972FD122A5E338F23
:10401D0082F583E5F08DF0121490900333E0FCA34C
:10402D00E0FD900332E02401FF900331E03400FE07
:10403D00EF25E0FFEE338F82F583EC8DF0121490B7
:10404D00900332E004F06003023FC5900331E004B9
:10405D00F0023FC5900330E024FFF090032FE034D1
:05406D00FFF0023FAA74
:01407200222B
:03007B000252C767
:1052C700C0E0C083C08290024A7401F053B8BF5354
:0952D700B4DFD082D083D0E032B4
:1024380041032D00410308004103060041032E001B
:102448004103070042030900004202F7000042036B
:1024580021000042032300004202FE000042031054
:102468000000420312000042031400004202F5007B
:10247800004102F90041030B0042030C0000420234
:10248800FC0000420325000042032B000042030227
:1024980000004203170000420319000042031C0019
:1024A800004202FA000042030E000042030400004A
:1024B800C1834103160041031B0042031E00004173
:1024C800032000C10444032700000000420300FF6A
:0124D800FF04
:1025DE00D3900305E09464900304E0648094802219
:1025EE00E4900316F0900300F0A32274FF90030012
:1025FE00F0A3F0E4900316F0227D147B017A007CA8
:10260E00007F017E0022E47D14FBFAFC7F01FE2296
:10261E00900305E004F022900304E004F0229003FE
:10262E0000E4F0A322E4FBFA7D14FCFFFE229002EC
:10263E00FCF0A3F0900325F0A3F090032BF0A3F091
:10264E009002F9F0900302F0A3F0900317F0A3F0BC
:10265E00A3F0A3F02290031EE0FEA3E0FFC322909E
:10266E0002F5E0FAA3E0FBFF7C007DFFAE02021351
:10267E00F6D3900305E09458900304E064809482AE
:10268E00229003167401F0229FFFE09EFE7C007DD7
:10269E000A12138FAA06AB07E0FEA3E0FF7D051218
:1026AE00138FEF2BFBEE3AFA227C007DC81213F645
:1026BE00AC06AD077B017A007F017E00227B017A9A
:1026CE00007D197C00E4FFFE227428F0E490031BC9
:1026DE00F0900316F022900305E024FFF09003041F
:1026EE00E034FFF022E0FFA3E0A3CFF0A3EFF0224F
:1026FE0090031CF0A3F09002FA7402F0A37458F049
:10270E0022D390030DE090030C941AE0648094841D
:10271E0022900304F0A3F022FBAA06E0FEA3E0FF42
:10272E007C007D0F12138FEF2BFDEE3AFC22EEF0A4
:10273E00A3EFF0A3ECF0A3EDF0227C007DFFAF033E
:10274E00AE020213F6E4F5E5F5E4F5E7F5E6F5ED90
:10275E00F5ECF5EFF5EE22EF94E8EE64809483222B
:10276E00EF94D0EE6480948722EF94ACEE64809464
:10277E008D22EF944CEE6480949D22D3900305E05D
:10278E00945022C3900305E094F4900304E0648017
:10279E00948122900331E0FFA3E090030ECFF0A3CB
:1027AE00EFF022900300E4F0A3F0900316227D2CAC
:1027BE007C011213F6EF2290032EF09002FEF0A38E
:1027CE00F09003102225E0FFE033FEC3ED9FFFECF7
:1027DE009EFE22E0FEA3E0FF12138FEF2BFFEE3AD8
:1027EE0022C2B3C295C204227B017A007D192290C7
:1027FE00031BE0C394067480948022D3900305E0FB
:10280E0094002225E0FFE033FEED2FFFEC3E227C0C
:10281E00057DDC1213F6EF2409227C077DD01213FE
:10282E00F6EF240B22900304E4F0A3740FF022E4DD
:10283E00F0A3740AF0229002F7F0A3F09003212285
:104F2A0090FFFD121786EBF0A3EAF0A3E9F0125204
:104F3A002F850883850982E0F9A3E0FAA3E08508B2
:104F4A0083850982C9F0A3EAF0A3E9F0E47FE87E49
:104F5A0003FDFC1249DF124CC5125132120096129F
:104F6A004073124156E47F0FFEFDFC1249DF80E6D2
:10009600900300E07002A3E0703C900316E0700C41
:1000A600120D94E47F0AFEFDFC1249DF12261E7033
:1000B60003122625E420000E1226151232251226DA
:1000C600141233B280051225EF04F012267F400683
:1000D6001225EE7402F0900300E07004A3E06401C0
:1000E600700E900316E07003120CBB7F0C12104EBC
:1000F600900300E07004A3E064027034900316E0FD
:100106007003120CDC12261E700312262520000C2A
:1001160090032DE07006120EFC1233B220000B90F5
:10012600032DE070051225DE40061225EE7403F05D
:10013600900300E07004A3E064037030900316E0BF
:100146007003120CBB12261E70031226252000080F
:10015600120ECA1233B2800612262C1226D7122786
:10016600891225E540061225EE7404F0900300E09E
:100176007004A3E064047034900316E07003120C5C
:10018600DC12261E700312262520000C90032DE09B
:100196007006120EFC1233B220000B90032DE07095
:1001A600051225DE40061225EE7405F0900300E0E8
:1001B6007004A3E064057035900316E07003120D19
:1001C6000312261E700312262520000E1226141274
:1001D60033B2122614123225800812262C74061207
:1001E600260012267F40061225EE7407F0900300C3
:1001F600E07004A3E06406700E900316E07003122C
:100206000D037F1112104E900300E07004A3E0640A
:1002160007702E900316E07003120D6D20000E90ED
:10022600032DE070087D0F12261712108320000B95
:1002360090032DE070051225DE40061225EE7408A7
:10024600F0900300E07004A3E06408703290031697
:10025600E07003120D2412261E70031226252000BC
:1002660008121002123225800812262C7414122647
:10027600D91227891225E540061225EE7409F09059
:100286000300E07004A3E06409702F900316E07089
:1002960003120D6D12261E700312262520000990EA
:1002A600032DE07003120FB620000B90032DE070B3
:1002B600051225DE40041225EEF0900300E07004DE
:1002C600A3E0640C7034900316E07003120D45121F
:1002D600261E700312262520000C90032DE07006C2
:1002E600120F571233B220000B90032DE070051247
:1002F60025DE40061225EE7403F0900300E070043C
:10030600A3E064117031900316E07003120E2312FD
:10031600261E700312262520000990032DE0700387
:1003260012105820000B90032DE070051225DE40B8
:10033600061225EE7408F0900300E07004A3E06452
:10034600147025900316E07003120FCD120F84125D
:1003560033B2300003122833900304E07002A3E0A6
:1003660070061225EF7415F0900300E07004A3E008
:1003760064157040900316E07003120E9912261E43
:100386007003122625C3900305E094321225E5502A
:10039600107D021226091232251226071233B28068
:1003A6000812262C741612260030000812262C7409
:1003B60016122600900300E07004A3E06416705243
:1003C600900316E07006120F4012101812261E70C7
:1003D6000312262512279150141226071232257B66
:1003E600017A007D0412260D1233B2800812262CE3
:1003F600741712260030000812262C7414122600D8
:100406001227FD400DE41225F274181226009003FF
:1004160020F0900300E07004A3E0641770319003AD
:1004260016E07003120E9912261E7003122625205E
:100436000005120E0A800812262C7414122600D308
:10044600900305E094C81225E540041227B1F09008
:100456000300E07004A3E064187036900316E070A1
:1004660003120F1012261E700312262530000A12E0
:10047600262C741A1226008004E4120F29D3900346
:1004860005E094421225E5400812262C741912261E
:1004960000900300E07004A3E06419704590031611
:1004A600E07003120DEB12261E70031226252000A3
:1004B60005120E0A800812262C741A122600D390F2
:1004C6000305E09408122686400812262C7418129A
:1004D6002600900320E0640370081225F2F09003D2
:1004E60016F0900300E07004A3E0641A700E900307
:1004F60016E07003120F107F18121079900300E0B7
:100506007004A3E064287025900316E07003120FB0
:10051600CD120F841233B230000312283390030435
:10052600E07002A3E070061225EF7429F090030034
:10053600E07004A3E064297044900316E07003128F
:100546000F6B12261E7003122625C3900305E09436
:10055600321225E550141226071232257B017A0045
:100566007D0212260D1233B2800812262C742A122E
:10057600260030000812262C74281226009003004C
:10058600E07004A3E0642A7052900316E07006122D
:100596000F4012101812261E7003122625122791DC
:1005A60050147B017A007D0412260D123225122684
:1005B600071233B2800812262C742B122600300044
:1005C6000812262C74281226001227FD400DE4126C
:1005D60025F2742C122600900320F0900300E070A0
:1005E60004A3E0642B7038900316E07003120F6BBF
:1005F60012261E7003122625200008120E671233DB
:10060600B2800812262C7428122600D3900305E027
:1006160094C81225E5400812262C74321226009042
:100626000300E07004A3E0642C703E900316E070B3
:1006360003120FE912261E700312262530000A1235
:10064600262C742E122600800C1226141232251225
:1006560026331233B2D3900305E094421225E540C7
:100666000812262C742D122600900300E07004A3B5
:10067600E0642D7048900316E07003120DEB12260D
:100686001E7003122625200008120E671233B28050
:100696000812262C742E122600D3900305E0940827
:1006A600122686400812262C742C1226009003204F
:1006B600E0640370081225F27432122600900300DB
:1006C600E07004A3E0642E700E900316E07003122F
:1006D6000FE97F2C121079900300E07004A3E06408
:1006E600327034900316E07003120D2412261E7029
:1006F60003122625E420000E1226151233B2122606
:100706001412322580061225EF7433F012267F402C
:10071600061225EE7434F0900300E07004A3E06442
:10072600337011900316E07006120D941210327F8A
:100736003E1210B4900300E07004A3E064347031FC
:10074600900316E07003120DCD12261E70031226BA
:100756002520000990032DE07003120FB620000B30
:1007660090032DE070051225DE40061225EE743545
:10077600F0900300E07004A3E06435703290031635
:10078600E07003120DAC12261E70031226252000FF
:1007960008121002123225800812262C7414122612
:1007A600D91227891225E540061225EE7436F090F7
:1007B6000300E07004A3E064367042900316E07014
:1007C6001490032DF0900308F090030604F0E41251
:1007D6000FA612103212261E7003122625200009BB
:1007E60090032DE0700312105820000B90032DE0AB
:1007F60070051225DE40061225EE7437F0900300D0
:10080600E07004A3E064377035900316E0700312BD
:100816000DAC12261E700312262520000E12261479
:100826001232251226141233B2800812262C74387E
:1008360012260012267F40061225EE7443F090031E
:1008460000E07004A3E064387011900316E07006AF
:10085600120EB212106F7F431210B4900300E070B4
:1008660004A3E064397037900316E07006120DCDCC
:1008760012106F12261E700312262520000C9003FC
:100886002DE07006120F571233B220000B90032D85
:10089600E070051225DE40061225EE743AF090034C
:1008A60000E07004A3E0643A7033900316E070062B
:1008B600120EB212109212261E7003122625200066
:1008C60008120ECA1233B2800612262C1226D7122E
:1008D60027891225E540061225EE743BF0900300A9
:1008E600E07004A3E0643B7047900316E070149038
:1008F600032DF090030804F0E4900306F0120FA60F
:1009060012109212261E700312262520000E900346
:100916002DE0700812103CFFFE1233B220000B903F
:10092600032DE070051225DE40061225EE7432F026
:10093600900300E07004A3E0643E7039900316E073
:100946007003120E2312261E700312262520001194
:1009560090032DE0700BFBFA7D0FFC7F01FE121059
:100966008320000B90032DE070051225DE40061251
:1009760025EE7435F0900300E07004A3E064437044
:1009860036900316E07003120D4512261E700312F0
:10099600262520000E90032DE0700812103CFFFE65
:1009A6001233B220000B90032DE070051225DE40B5
:1009B600061225EE743AF0900300E07004A3E0649A
:1009C60046702B900316E0700312102212261E703A
:1009D60003122625E4200005120F2980061225EFB2
:1009E6007447F01225DE40061225EE7448F0900397
:1009F60000E07004A3E064477041900316E0700EB7
:100A0600900304F0A37414F012527712268F122664
:100A1600E430000312283D1228091225E5400C1285
:100A260026331232251226331233B2900304E070B5
:100A360002A3E070061225EF7446F0900300E07002
:100A460004A3E064486003020B13900316E0700EE3
:100A560012271F12527790031E1227B404F030009B
:100A66000912262C7449F0020B05122663EE6480E7
:100A760094804011122765500C1226B712322512A7
:100A860026071233B2122663122766401012276E0B
:100A9600500B1227BC2402120E4B1233B2122663DD
:100AA60012276F4012122777500D7D901227BE2411
:100AB60003120E4B1233B2122663122778400E121F
:100AC6002780500912281D120EE01233B212266337
:100AD6001227814013EF9410EE648094A7500912F8
:100AE6002828120EE01233B2C390031FE094109030
:100AF600031EE0648094A740061225EE744AF09027
:100B0600031FE004F0700690031EE004F09003005B
:100B1600E07004A3E064497033900316E070061297
:100B2600109C12268F1226E430000312283D12284C
:100B3600091225E5400E12263312322512263312EB
:100B460033B2800812262C744A122600900300E065
:100B56007004A3E0644A7034900316E07003121028
:100B66002212261E7003122625E420000E122634B9
:100B76001232251226141233B280061225EF744B58
:100B8600F01225DE40061225EE744CF0900300E0CC
:100B96007004A3E0644B7039900316E070061210DF
:100BA6009C12268F1226E430000312283D122809D3
:100BB6001225E5400C122633123225122633123343
:100BC600B2900304E07002A3E070061225EF744CA5
:100BD600F0900300E07004A3E0644C6003020CBADA
:100BE600900316E0700912271F12527712268F30D3
:100BF60000071225F91210A822122663EE648094CB
:100C0600804011122765500C1226B71233B21226F5
:100C160007123225122663122766401012276E50DD
:100C26000B1227BC2402120E7D12322512266312E5
:100C3600276F401512277750107C017D901213F60E
:100C4600EF2403120E7D12322512266312277840F6
:100C560018122780501312281DFDE43EFC1226C2EE
:100C66001233B2122607123225122663122781404A
:100C76001ED3EF9410EE648094A75013122828FD1B
:100C8600E43EFC1226C21233B2122607123225D3D4
:100C960090031FE0940090031EE064809480500649
:100CA6001225F91210A890031FE024FFF090031EEE
:100CB600E034FFF022900308F0900306F09003045E
:100CC600F0A3F01252779003167401F0E47F32FE1F
:100CD600FDFC1249DF2290032DF090030804F0E496
:100CE600900306F0900304F0A3F0125277900316D7
:100CF6007401F0E47F32FEFDFC1249DF2290030806
:100D0600F0900306F0900304F0A3F01252779003DC
:100D1600167401F0E47F32FEFDFC1249DF229003D7
:100D260008F0900306F0900304F0A3F012527790B7
:100D360003167401F0E47F32FEFDFC1249DF2290B7
:100D4600032DF09003087402F0E4900306F090037C
:100D560004F0A3F01252779003167401F0E47F3288
:100D6600FEFDFC1249DF2290032DF0900308F0905F
:100D7600030604F0E4900304F0A3F0125277900304
:100D8600167401F0E47F32FEFDFC1249DF22900367
:100D960008F0900306F0900304F0A3F01252779047
:100DA60003167401F022900308F0900306F09003F6
:100DB60004F0A3F01252779003167401F0E47F3228
:100DC600FEFDFC1249DF2290032DF090030804F08B
:100DD600E4900306F0900304F0A3F0125277900318
:100DE600167401F022900320E004F012527790036B
:100DF600167401F0E4900304F0A3F07F32FEFDFCCC
:100E06001249DF22E4FBFA7D14FC7F01FE12322533
:100E1600E4FBFA7D14FC7F01FE1233B22290032D0F
:100E2600F0900308F09003067402F0E4900304F0D7
:100E3600A3F01252779003167401F0E47F32FEFDA0
:100E4600FC1249DF22FDE43EFC7B017A007F017E35
:100E5600001232257B017A007D147C007F017E0022
:100E660022E4FBFA7D14FC7F01FE123225E4FBFA34
:100E76007D14FC7F01FE22FDE43EFC7B017A007FAF
:100E8600017E001233B27B017A007D147C007F0163
:100E96007E00221252779003167401F0E490030448
:100EA600F0A3F07F32FEFDFC1249DF22900308F02A
:100EB600900306F0900304F0A3F012527790031605
:100EC6007401F022E4FBFA7D0FFC7F01FE1232254D
:100ED600E4FBFA7D0FFC7F01FE22FDE43EFC7B0174
:100EE6007A007F017E001232257B017A007D147C18
:100EF600007F017E0022FBFA7D0FFC7F01FE12328D
:100F060025E4FBFA7D0FFCFFFE22125277900316B2
:100F16007401F0E4900304F0A3F07F32FEFDFC12AE
:100F260049DF22FBFA7D14FCFFFE123225E4FBFAB0
:100F36007D14FC7F01FE1233B22290031BE004F005
:100F4600E4900304F0A3F01252779003167401F0B4
:100F560022FBFA7D0FFC7F01FE123225E4FBFA7DAF
:100F66000FFCFFFE221252779003167401F0E490F4
:100F76000304F0A3F07F32FEFDFC1249DF2290034A
:100F860005E024FFF0900304E034FFF0E4FBFA7D73
:100F96000FFCFFFE123225E4FBFA7D0FFCFFFE225A
:100FA600900304F0A3F01252779003167401F02216
:100FB600FBFA7D0FFC7F01FE1233B2E4FBFA7D0FD4
:100FC600FCFFFE123225221252779003167401F0AE
:100FD600900304E4F0A3740FF0E47F32FEFDFC12EC
:100FE60049DF221252779003167401F0E49003044D
:100FF600F0A3F07F32FEFDFC1249DF22E4FBFA7D0E
:101006000FFC7F01FE1233B2E4FBFA7D0FFC7F0179
:10101600FE22E47F32FEFDFC1249DF22900304F03B
:10102600A3F01252779003167401F022E47F32FE89
:10103600FDFC1249DF22FBFA7D0FFC7F01FE123216
:1010460025E4FBFA7D0FFC227D147C007E00124E07
:101056000C22FBFA7D0FFCFFFE123225E4FBFA7D23
:101066000FFC7F01FE1233B222E47F32FEFDFC123A
:1010760049DF227D147C007E00124E0C221233B210
:10108600E4FBFA7D0FFCFFFE12322522E47F32FEDE
:10109600FDFC1249DF22900304F0A3740AF01252F9
:1010A60077221252779002457401F0D203227D1402
:0810B6007C007E00124E0C22AA
:104E0C0090032F12273C900316E06401700C1227BC
:104E1C00A11252779003167402F03000031227A1EE
:104E2C00D390030FE0940090030EE06480948040D4
:104E3C001A1226331232251226331233B290030F74
:104E4C00E024FFF090030EE034FFF090030EE070CE
:104E5C0002A3E0701190032FE0FFA3E0900300CFBA
:074E6C00F0A3EF1226002263
:10513200900300E0F47003A3E0F47025900316E0FE
:10514200701F900246E0640160031227EF9003276C
:1051520012165900000000E412271F12527712267D
:025162008F229A
:10415600900300E07004A3E064DC7023900316E093
:10416600700612422912268F20000E1226141232D1
:10417600251226141233B2800612421F1225F99018
:104186000300E07004A3E064DD7023900316E07082
:104196000612422912268F20000E122633123225CD
:1041A6001226331233B2800612421F1225F99003EB
:1041B60000E07004A3E064DE702A900316E0700A43
:1041C600D2B3D20412527712268F20000E12263353
:1041D6001232251226141233B280091227EF125218
:1041E600771225F9900300E07004A3E064DF7028DD
:1041F600900316E0700AD2B3D20412527712268FB9
:1042060020000C1226141232251226330233B21263
:1042160027EF1252771225F922C2B3C295C20412B1
:0B422600527722D2B3D204125277224A
:10407300900300E07004A3E064C87012900316E09C
:1040830070031241461227F612260D1232259003B1
:1040930000E07004A3E064C97012900316E070039B
:1040A3001241461227F612260D1233B2900300E096
:1040B3007004A3E064CA7015900316E07009122718
:1040C3001F12527712268F1226CB1232259003002D
:1040D300E07004A3E064CB7015900316E07009123E
:1040E300271F12527712268F1226CB1233B2900358
:1040F30000E07004A3E064CC7021900316E0700923
:1041030012271F12527712268F1227F612260D122C
:1041130032251227F612260D1233B2900300E070F7
:1041230004A3E064CD701B900316E0700912271FEF
:1041330012527712268F1226CB1232251226CB1259
:1041430033B222900304F0A3F01252779003167453
:0341530001F02256
:104CC500900245E0FF600964046005EF6405701B10
:104CD500300318900246E07012900327121659000F
:104CE5000000001227EFC2031225F9900245E06487
:104CF50001701730031490032712165900000000A5
:104D0500D2B3D204C2031227B1F0900245E0640A7F
:104D1500701B30031890032712165900000000D2AB
:0E4D2500B3D204C20312262C744612260022BA
:10522F0075E30775E2FF75EB0775EAFF75F3077511
:10523F00F2FF122753F5F5F5F4F5F7F5F643E1779D
:01524F00223C
:0652710090032D7401F012
:1052770012275390032EF09002F9F0900309F0A340
:08528700F090030CF0A3F022EB
:1032250090033312273CAFEFEF7027AFEEEF70221C
:10323500900333E07004A3E0640170161228441271
:10324500265B1227C512265BA3F0A3F09002F512A8
:103255002707AFEDEF7025AFECEF7020900333E05B
:103265007002A3E0701612284412265B1227C512BD
:10327500265BA3F0A3F09002F51227079003211215
:1032850026F390032EE0FFC3900336E09FFE9003E4
:1032950035E09400900321F0A3CEF090031212269E
:1032A500F39003101226F3900321E0FEA3E0FF90B4
:1032B5000310EEF0FCA3EFF0FD9002F8E02FF09084
:1032C50002F7E03EF0900313E09003121227D3902B
:1032D5000315E02FFF900314E03E9002FEF0A3EFEC
:1032E500F0EB4A702E900323122666900322E09F8E
:1032F500FF900321E09EFEEF7803C333CE33CED893
:10330500F99003211227269002FFE09002FE122871
:10331500118016900323122666900322E090032164
:103325001226969002FE1227E1FE9002F6E02FF09B
:103335009002F5E03EF0D39002F6E094D09002F5CD
:10334500E06480948740077407F0A374D0F0C390BD
:1033550002F5E0648094805004E4F0A3F090033318
:10336500E07002A3E0601E900335E07002A3E070F8
:1033750006F5EFF5EE802812266D8FEFAF031226C6
:10338500768DEE801A900335E07002A3E07006F5A5
:10339500EDF5EC800A12266D8FED1227488DEC9025
:0D33A500032EE0900307F0E490032EF022C9
:1033B20090033312273CAFE5EF7017AFE4EF7012C2
:1033C200900333E07004A3E06401700612263C12FD
:1033D20026FEAFE7EF7015AFE6EF7010900333E013
:1033E2007002A3E0700612263C1226FE900325E02E
:1033F200FFA3E090032BCFF0A3EFF09002F9E0FFE0
:10340200C3900336E09FFE900335E09400900325BD
:10341200F0A3CEF0900319E0FFA3E090031CCFF0DD
:10342200A3EFF09003171226F3900325E0FEA3E02A
:10343200FF900317EEF0FCA3EFF0FD9002FDE02FEA
:10344200F09002FCE03EF090031AE090031912277C
:10345200D390031DE02FFF90031CE03E900302F087
:10346200A3EFF0EB4A702E90032B122666900326F0
:10347200E09FFF900325E09EFEEF7803C333CE3337
:10348200CED8F9900325122726900303E090030279
:10349200122811801690032B122666900326E090C4
:1034A20003251226969003021227E1FE9002FBE00A
:1034B2002FF09002FAE03EF0D39002FBE094D0901D
:1034C20002FAE06480948740077407F0A374D0F096
:1034D200C39002FAE0648094805004E4F0A3F09078
:1034E2000333E07002A3E0601F900335E07002A393
:1034F200E07006F5E5F5E4802C9002FA1226708F52
:10350200E51227488DE4801D900335E07002A3E0A8
:103512007006F5E7F5E6800D9002FA1226708FE745
:103522001227488DE69002F9E090030BF0E4900236
:03353200F9F0228B
:03008B00024DA083
:104DA000C0E0C083C082C0D075D000C007E59F308E
:104DB000E14F900245E0FF64036043EF640B603E07
:104DC0009002F9E004F090030DE004F07006900307
:104DD0000CE004F0900308E06401700D12270F400E
:104DE00008125271900308E4F0900308E064027026
:104DF0000D12270F4008125271900308E4F0539FE0
:0C4E0000FDD007D0D0D082D083D0E032AB
:03009300024C45D7
:104C4500C0E0C083C082C0D075D000C007E59F30EA
:104C5500E763900245E0FF64036057EF640B605221
:104C650090032EE004F090030AE004F07006900330
:104C750009E004F0900306E064017015D390030A7F
:104C8500E09003091227174008125271900306E4B9
:104C9500F0900306E064027019D390030AE0941AB9
:104CA500900309E0648094844008125271900306D1
:104CB500E4F0539F7FD007D0D0D082D083D0E032AC
:1024D9006100005800000100020001000300010032
:1024E90002000100040001000200010003000100D4
:1024F90002000100050001000200010003000100C3
:1025090002000100040001000200010003000100B3
:1025190002000100060001000200010003000100A1
:102529000200010004000100020001000300010093
:102539000200010005000100020001000300010082
:102549000200010004000100020001000300010073
:102559000200010007000100020001000300010060
:102569000200010004000100020001000300010053
:102579000200010005000100020001000300010042
:102589000200010004000100020001000300010033
:102599000200010006000100020001000300010021
:1025A9000200010004000100020001000300010013
:1025B9000200010005000100020001000300010002
:1025C90002000100040001000200010003000100F3
:0425D90002000100FB
:10423100E0FF850883850982E0FBA3E0FAA3E02281
:1042410090FFFD121786EBF0A3EAF0A3E9F022E05C
:10425100F9A3E0FAA3E0850883850982229000137F
:1042610012132EFEEF4E900000F090001112132E4B
:1042710024A1F582E43401F583227812E6FF75F07A
:1042810003A42459F582E43401F58322900168E006
:10429100FCA3E0FDA3E0FEA3E02401FFE43EFEE475
:1042A1003DFDE43CFC90016802164DE075F014A45C
:1042B1002405F9740035F0FA22780EA60308A60247
:1042C10008F6229000091215F9E4FBFAF9F8C30285
:1042D10015E89000030217AA90FFFF021786F990D4
:1042E100001212132EFEEF4E22E02458F582E43420
:1042F10000F583227B007A00790022FF1217AAEED3
:05430100F0A3EFF02223
:10000E0012000412520A124FBE12470E12000312B1
:05001E00528F020005F5
:1052F800780AE66401700F900158E0C394FFE494C3
:07530800005003E004F02255
:10504400780AE664017036C2AF900158E0D3940048
:10505400E494004003E014F0900158E0701D9000C7
:1050640001E0701712519412427B1242391242BA73
:0E507400EF0866600612428D12530FD2AF2273
:10525000780AE6701B1251947812E6FF18F6EF12E6
:10526000427F1242391242BA780B1242BC12002617
:01527000221B
:0643DB0090FFFD121786A1
:1043E100120007780AE6640160030244A590000206
:1043F100124250C9124248124233F990000F12136F
:104401002E640470030244A5C2AF1242C4700302B9
:104411004490124233F99000091215F9EF24FFFF7D
:10442100EE34FFFEED34FFFDEC34FFFC9000091289
:1044310016291242C47058124233F990000D12131A
:104441002E5437601AE9240DF9E43AFA121315547F
:10445100C812135B124233F990000E7401800812E6
:104461004233F990000EE412136D124233F99000B9
:104471000D12132E54087017900000E0FF12425ED7
:10448100C083C0821242311242DFD082D083F01247
:104491004233F99000031216FD124257124247D2DD
:0444A100AF0243F82B
:0644A500900003021786DF
:0100030022DA
:10520A00E4900158F0900001F0900170F0780AF6ED
:10521A009001681216590000000090016C1216598C
:05522A0000000000225D
:034FBE001242D9C3
:104FC100E4900000F0124257F0124257E0FFC39400
:104FD10001E49400501074A12F124273E4F01242C4
:104FE10057E004F080E3E47811F608F6780EF6084D
:0A4FF100F608F6780BF608F608F64D
:064FFB0090000102178680
:10528F001242D97404F07B017A01797112424112F2
:0E529F0042F51242417BFF7A5079FD02430630
:06470E0090FFF81217866F
:104714007C007D507B017A0079051250017C007D7C
:104724000F7B017A017959125001124257E4F012B9
:104734004257E0FFC39403E49400504CEF04A3F009
:10474400EF1242AD124257A3A3740112424812421F
:1047540057A31242AC7B019000051217AA124247DC
:104764009000051217AA124239F9C003C002C00111
:10477400124257A3A3124239F990000312172D12C3
:104784004257E004F00247331242571242ACA3A34B
:1047940074011242481242F5C003C002C001124221
:1047A40057A3A3124239F990000312172D90000267
:1047B400E4F0A3F0A3F07B0190005504F0A374008F
:0547C400F0A37405F0F4
:0647C900900008021786B3
:1050010090FFFE121786ECF0A3EDF012424112421E
:10501100D3E0FEA3E0D39400EE9400402012425767
:10502100E0FBA3E475F001121442A9F0FAE41213B3
:105031005B1242D374FFF5F012142C80D19000055D
:03504100021786CD
:1051BD00C2AF900158E0701D900001E070171251C0
:1051CD009412427B1242391242BAEF0866600612FF
:0851DD00428D124E73D2AF2285
:035194001242D9EB
:105197009000001242EA124256F0E0FF12427112EA
:1051A70042EAE0FEEF33333354F8FFEE2F7812F67E
:0651B700900001021786C2
:1050FD00124241124257124250C9124248C2AF9059
:10510D00016CE0FCA3E0FDA3E0FEA3E02401FFE4BD
:10511D003EFEE43DFDE43CFC90016C12164DD2AF19
:05512D0012000880D80B
:0E3060001242411242D9EFF090FFFD12178686
:10306E00C2AF900055124250C91242481242334A22
:10307E004B700302321B124233F99000031216FDFD
:10308E00900055124247D2AF9000041217AA124276
:10309E0039F9C003C002C001124233F91216AE1242
:1030AE0042D3124231F990000FEF12136D90000DC2
:1030BE00E412136D90000EE412136D9000091216B7
:1030CE008A000000009000101217AA124239F990DF
:1030DE0000101217AA12424790000C1217AAE0FC19
:1030EE00A3E0FDA3E0FEA3E0FF90000C1217AA12CE
:1030FE00164D9000071217AA124239F990000712C6
:10310E0017AA1242479000131217AAE0FEA3E090EE
:10311E0000131242FC90000A1217AAE0FEA3E090E0
:10312E00000A1242FC1242D3E0FF131313541FFE87
:10313E00124233F9900011EE12136DEF5407900006
:10314E001012136D90001112132EFFF874010880E7
:10315E0002C333D8FC90001312136D90001012139B
:10316E002EFFF87401088002C333D8FC90001212AF
:10317E00136D12532B124233F9125322C2AF124265
:10318E0033F91242D3E012427F12424790000212EC
:10319E004239F9C003C002C001124233F990000354
:1031AE0012172D1242F5C003C002C001124233F9AC
:1031BE0090000612172D9000021242394A4B6017EA
:1031CE00124233F9C003C002C0019000021242390C
:1031DE00F990000612172D124257E0F9A3E0FAA358
:1031EE00E0900002C9124248900000124231F912DA
:1031FE00425EC083C0821242311242DFD082D0833F
:10320E00F0900170E004F0D2AF7F008004D2AF7F67
:01321E00426D
:06321F0090001502178665
:104BBD00E0FF850883850982E0FBA3E0FAA3E022EC
:104BCD0090FFFE121786E4F0A3F0FBFAF990FFFDBB
:104BDD00121786EBF0A3EAF0A3E9F0221217AAE070
:104BED0075F003A42459F582E43401F583E0F9A3AB
:104BFD00E0FAA3E08508838509822275F003A424D9
:104C0D0059F582E43401F58322780B860308E6FA20
:104C1D0008E6F990000F02132E24A1F582E4340169
:104C2D00F5832290000C0217AA9000030217AA2404
:084C3D000DF9E43AFA02131527
:09430600124BDA90FFFC1217863D
:10430F00C2AF900158E0D39400E494004007D2AFBD
:10431F007F3C0243D590000D1217AAE0FF124C0804
:10432F00124BC54A4B60030243D17901EF124C087F
:10433F00E4F0A3F0A304F0D2AF90FFFE121786E4CF
:10434F00F0A3F0124C30124BC5124BD9124C301255
:10435F004BC5124BD9124C30124BC5F91244AB124C
:10436F004C01124BE0124BCD90FFFC121786121628
:10437F005900000000124BCD90000E1217AA124BDD
:10438F00C5F990001B1217AAE0FF123060124C36CD
:10439F00EFF0124C36E0700C780AE66401701C12D4
:1043AF0051BD8017C2AF7B007A00790090000D12CB
:1043BF0017AAE0124C08124BE0D2AF124C36E0FFB6
:0643CF008004D2AF7F283C
:0643D50090000E021786A5
:0E457B0090FFFF121786EFF090FFFD121786DB
:10458900C2AF900003124BE9C9124BE1124BBF4A6B
:104599004B7007D2AF7F46024642124BBFF9E4F592
:1045A90083758201EB7006E965827001EA7007D2B2
:1045B900AF7F43024642124BBFF990000D12132EF2
:1045C90054086071E9124C3C54F712135B124BBF4B
:1045D900F990000D12132E70569000091215F9E486
:1045E900FBFAF9F8C31215E87041900000124BBDAF
:1045F900F990001312132EFEEF4E900000F0900078
:104609001112132E124C26C083C082124BBDF99091
:10461900001212132EFEEF4ED082D083F0D2AF7863
:104629000AE66401700B1251BD8006D2AF8002D236
:09463900AF7F008004D2AF7F4482
:064642009000040217863F
:0E3CC00090FFFF121786EFF090FFFB121786A1
:103CCE00C2AF9000051217AAE0FFF4700E124C1648
:103CDE00FE9000051217AAEEF08006124C16B507DC
:103CEE0008124C017401F08005124C01E4F09000B2
:103CFE0005124BE9A3C9124BE1124C01A3124BC59D
:103D0E004A4B7007D2AF7F48023DB2124C01A3124C
:103D1E004BC5F9E4F583758201EB7006E965827097
:103D2E0001EA7007D2AF7F43023DB2124C01A312DB
:103D3E004BC5F990001112132EFF9000041217AA12
:103D4E00EFF09000041217AAE0FF124C26C083C0B9
:103D5E0082E0FE124C01A3124BC5F9900012121311
:103D6E002EF4FDEE5DD082D083F074A12F124C287C
:103D7E00E07013900000E0FF90001312132EF4FE7B
:103D8E00EF5E900000F0124C01A3124BC5124C3C9A
:103D9E00440812135BD2AF124C01E064017003129F
:043DAE0051BD7F0084
:063DB200900006021786D6
:10508200121786900158E0D39400E4940022780B22
:10509200860308E6FA08E6F922FC85088385098278
:1050A20022E0FCA3E0FDA3E0FEA3E0FF22F090FFDC
:0E50B200FF021786FFEE3AFEED39FDEC3822C4
:0C49DF0090FFFC12178612164D90FFFF8F
:1049EB001250824003024A80900001E09400E4944C
:1049FB00004003024A80E4FFFEFD12509BA3E0F847
:104A0B00A3E0F9A3E0FAA3E0FB1215E84067C2AFFD
:104A1B0012509090001112132E12509CF0E0FF24B4
:104A2B00A1F582E43401F583C083C082E0FE12500D
:104A3B009090001212132EF4FDEE5DD082D083F015
:104A4B0074A12FF582E43401F583E070139000001C
:104A5B00E0FF90001312132EF4FEEF5E900000F0B7
:104A6B0012509CA31250A3125090900009121629B9
:054A7B00D2AF1251BD95
:064A8000900005021786FC
:104648001250B0EB1250AFED1250AFEFF090FFFCEC
:1046580012508240057F5502470890000112508889
:1046680040057F320247089000051217AAE0FF7E36
:10467800007C007D3C1217B7C004C005C006C00707
:104688009000041217AAE0FF7E007C0E7D1012171E
:10469800B7D003D002D001D000EF2BFBEE3AFAEDF1
:1046A80039F9EC38F89000061217AAE0FFE4FCFD8F
:1046B800FEEB2F1250B6FCC004C005C006C0079020
:1046C80000071217AAE0FEA3E0FFEF24F4FFEE3480
:1046D80001FEE433FDE433FCE47BE87A03F9F812E5
:1046E8001548D003D002D001D000EF2B1250B612DB
:1046F800509B12164D12509C1250A31249DF7F0096
:0647080090000902178673
:03000000024B2B85
:104B2B0078FEE4F6D8FD750804750900758120023E
:024B3B004B78B5
:104D33001217AAA3E0FAEAFF850883850982E0FB3C
:104D4300A3E475F001121442A9F0FAEF12135B8584
:104D53000883850982E0FBA3E475F001121442A9DC
:104D6300F0FA2290FFFD121786EBF0A3EAF0A3E915
:104D7300F0850883850982E0F9A3E0FAA3E08508BA
:104D830083850982C9F0A3EAF0A3E9F022EF1213A5
:0D4D93005B9000090217AA9000060217AA03
:1044AB0090FFFD121786EB124D8890FFFD121786B9
:1044BB00124D9AE0FBA3E0FAA3E0F9124D9AEB122E
:1044CB004D8890000C1217AAE0FEA3E0FF90000CA1
:1044DB001217AAEEF0A3EFF0124D94124D7A124D73
:1044EB0052740F12135B9000031217AAA3A3E0FFE1
:1044FB00124D52EF12135B900003124D33740A12DC
:10450B004D4F740B124D4FE4124D4FE4124D4FE4CF
:10451B00124D4FE412135B124D9AA3A3E0FF124D01
:10452B0052EF12135B900006124D337401124D4F74
:10453B007404124D4F7405124D4F7406124D4F7487
:10454B0007124D91A3E0FAA3E02430E43AFF124D99
:10455B0052124D90A3A3E02430F9AF01124D521229
:0A456B004D90E0FBA3E0FAA3E0F995
:0645750090000E02178603
:09531900758CB8E4F58AD28C22EF
:03000B00024F7A27
:104F7A00C0E0C0F0C083C082C0D075D000C000C0FD
:104F8A0001C002C003C004C005C006C0071252F81F
:104F9A001253191243DB125044D007D006D005D061
:104FAA0004D003D002D001D000D0D0D082D083D098
:044FBA00F0D0E03221
:10369A00758E5190FE917401F05389F0438901753A
:1036AA008CB8E4F58AD2A9D28C90FE80E04401F06D
:1036BA0090FF1374C2F090FF12F090FF09F090FF90
:1036CA000AF090FF907423F090FF9114F075DA01DC
:1036DA0090FF947411F090FF9504F075DB0190FF50
:1036EA000D74C2F090FF987415F075DC0143F17700
:1036FA0090FF0B7454F090FF0CF090FF087450F098
:10370A0090FF0774C2F0D287D2A190FF11F090FF08
:10371A001AF090FF18F090FF19F0D2B0D2B190FFD2
:10372A001BF090FF06F0D28690FF107460F090FFB5
:10373A001CF0E490FF02F090FF03F090FF04F09079
:10374A00FF017402F090FF00F090FF17F090FF1550
:10375A00F090FF16F075B4817F147E0012007E90FF
:10376A00FE9B744BF090FED07410F090FED174DF83
:10377A00F090FED2744EF090FED37423F090FEC007
:10378A00741FF043B84053B4DF43B44090FF1D7434
:10379A0069F090FEB4E04404F090FEBAE04402F00E
:1037AA0043D80190FF14746BF090FEBCE04410F013
:1037BA0043D802D2AF75BD1790FEA074FFF090FFF8
:1037CA000E74C2F090FF0F7462F090FFA07416F0AE
:1037DA0090FFA104F075CC0675CEFF75CD98759E45
:0A37EA000275981043A810D2AF2218
:0100040022D9
:0100050022D8
:09532200124D669000030217868B
:0100060022D7
:09532B00124D6690000302178682
:0100070022D6
:0100080022D5
:0B007E00EF1FAC0670011E4C70F62254
:10002600120006780B088683088682A3E0F8A3E010
:10003600F988838982E0FD7821A308E0F6DDFA8855
:1000460081A3E0F508A3E0F509780A7601D0E0FF80
:10005600D0E0FED0E0FDD0E0FCD0E0FBD0E0FAD06E
:10006600E0F9D0E0F8D0D0D082D083D0F0D0E0D282
:02007600AF32A7
:104E7300C0E0C0F0C083C082C0D0E8C0E0E9C0E0B9
:104E8300EAC0E0EBC0E0ECC0E0EDC0E0EEC0E0EF74
:104E9300C0E0E581C39421FD780B088683088682F0
:104EA300A3E0F8A3E0F988838982EDF07821A308D1
:104EB300E6F0DDFAA3E508F0A3E509F012000678B1
:104EC3000B790EE7F60809E7F60809E7F678117992
:064ED30012E7F6020029BF
:0A530F00E581C39404F581024E9578
:1010BE00021300E86480F8E933E83360110460F04D
:1010CE00ED33EC337009E8FCE9FDEAFEEBFF220498
:1010DE0060DED3EB9FEA9EE99DE8C2E78CF0C2F793
:1010EE0095F0400CE8CCF8E9CDF9EACEFAEBCFFB5F
:1010FE001212CB85D0F05804700320D5B3E80470DB
:10110E00075002B2D502130A92D5EC0460F7E4CC74
:10111E00C0E0C398F8603B94186008400DD0E0FB27
:10112E000212E2E4FBFAC9FC8028E830E406E4C9C6
:10113E00FBE4CAFCE830E305E4C9CACBFCE854077B
:10114E006010F8C3E913F9EA13FAEB13FBEC13FC86
:10115E00D8F130F52FC3E49CFCEF9BFFEE9AFEED29
:10116E0099FDD0E0FBEF4E4D4C701222DB030213C3
:10117E0007EC2CFCEF33FFEE33FEED33FDED30E7E5
:10118E00EB0212E2EF2BFFEE3AFEED39FDD0E0FB63
:10119E0050130BBB000302130AED13FDEE13FEEF0B
:0811AE0013FFEC13FC0212E236
:1011B60002130AEC5D046005E8590470030213008B
:1011C6001212CB580460F6EC4860F2EC7004FDFE97
:1011D600FF22C860DB2481C85009C398600250060C
:1011E6000213079850CAF582E9294B4A7005AB826B
:1011F6000212F675F0007C1A7880C3EF9BEE9AED2A
:1012060099400DC3EF9BFFEE9AFEED99FDE842F083
:10121600DC23ACF0D0E0FFD0E0FED0E0FDAB8220D6
:10122600E7101BEB60BAEC2CFCEF33FFEE33FEED60
:1012360033FD0212E2E803F830E705C0F075F0006E
:10124600EF2FFFEE33FEED33FD40B830E7C280AA44
:1012560075F020800E75F010800575F0087D007E13
:10126600007F003392D530D5031215DAEC334010E7
:10127600EF33FFEE33FEED33FDEC33FCD5F0ED221C
:0E128600E5F0247EA2D513CC92E7CDCEFF2258
:10129400EDD2E7CD33EC3392D524814006E4FFFE52
:1012A400FDFC22FCE4CFCECDCC24E0501174FF80B1
:1012B400EDC3CC13CCCD13CDCE13CECF13CF04704E
:0712C400F030D5DE0215DA5F
:1012CB00E9D2E7C933E833F892D5EDD2E7CD33EC69
:0712DB0033FC5002B2D522E2
:1012E200EC30E7100FBF000C0EBE00080DBD00046D
:1012F2000BEB6014A2D5EB13FCED92E7FD2274FF19
:10130200FCFDFEFF22E480F8A2D574FF13FC7D8071
:03131200E480EF85
:104B3D00024ED9E493A3F8E493A34003F68001F267
:104B4D0008DFF48029E493A3F85407240CC8C33379
:104B5D00C4540F4420C8834004F456800146F6DF48
:104B6D00E4800B01020408102040809022DFE47ED7
:104B7D00019360BCA3FF543F30E509541FFEE4933D
:104B8D00A360010ECF54C025E060A840B8E493A304
:104B9D00FAE493A3F8E493A3C8C582C8CAC583CA2F
:104BAD00F0A3C8C582C8CAC583CADFE9DEE780BEE7
:0125DD0000FD
:10131500BB010689828A83E0225002E722BBFE02D6
:09132500E32289828A83E4932209
:10132E00BB010CE58229F582E5833AF583E0225074
:10133E0006E92582F8E622BBFE06E92582F8E222BE
:0D134E00E58229F582E5833AF583E49322D8
:10135B00BB010689828A83F0225002F722BBFE0171
:02136B00F3226B
:10136D00F8BB010DE58229F582E5833AF583E8F0B6
:10137D00225006E92582C8F622BBFE05E92582C862
:02138D00F2224A
:10138F00EF8DF0A4A8F0CF8CF0A428CE8DF0A42E72
:02139F00FE222C
:1013A100BC000BBE0029EF8DF084FFADF022E4CC30
:1013B100F875F008EF2FFFEE33FEEC33FCEE9DECF9
:1013C100984005FCEE9DFE0FD5F0E9E4CEFD22ED3F
:1013D100F8F5F0EE8420D21CFEADF075F008EF2F89
:1013E100FFED33FD4007985006D5F0F222C398FD7A
:0513F1000FD5F0EA2217
:1013F600C2D5EC30E709B2D5E4C39DFDE49CFCEE12
:1014060030E715B2D5E4C39FFFE49EFE1213A1C3D5
:10141600E49DFDE49CFC80031213A130D507C3E4D0
:061426009FFFE49EFE2280
:10142C00C5F0F8A3E028F0C5F0F8E582158270024B
:06143C001583E038F022E8
:10144200A3F8E0C5F025F0F0E5821582700215835D
:06145200E0C838F0E822BA
:10145800BB0110E58229F582E5833AF583E0F5F0D2
:10146800A3E0225009E92582F886F008E622BBFEAF
:101478000AE92582F8E2F5F008E222E5832AF583F5
:08148800E993F5F0A3E99322BA
:10149000F8BB0111E58229F582E5833AF583E8F08E
:1014A000E5F0A3F0225009E92582C8F608A6F0224B
:0D14B000BBFE09E92582C8F2E5F008F22232
:1014BD00E88FF0A4CC8BF0A42CFCE98EF0A42CFCCE
:1014CD008AF0EDA42CFCEA8EF0A4CDA8F08BF0A44C
:1014DD002DCC3825F0FDE98FF0A42CCD35F0FCEBAB
:1014ED008EF0A4FEA9F0EB8FF0A4CFC5F02ECD3970
:0F14FD00FEE43CFCEAA42DCE35F0FDE43CFC22DD
:10150C0075F008758200EF2FFFEE33FECD33CDCC96
:10151C0033CCC58233C5829BED9AEC99E582984019
:10152C000CF582EE9BFEED9AFDEC99FC0FD5F0D6F6
:10153C00E4CEFBE4CDFAE4CCF9A88222B800C1B920
:10154C000059BA002DEC8BF084CFCECDFCE5F0CB5E
:10155C00F97818EF2FFFEE33FEED33FDEC33FCEB97
:10156C0033FB10D703994004EB99FB0FD8E5E4F952
:10157C00FA227818EF2FFFEE33FEED33FDEC33FC3F
:10158C00C933C910D7059BE99A4007EC9BFCE99A33
:10159C00F90FD8E0E4C9FAE4CCFB2275F010EF2F78
:1015AC00FFEE33FEED33FDCC33CCC833C810D70778
:1015BC009BEC9AE899400AED9BFDEC9AFCE899F8B3
:0E15CC000FD5F0DAE4CDFBE4CCFAE4C8F92246
:0E15DA00C3E49FFFE49EFEE49DFDE49CFC2222
:1015E800EB9FF5F0EA9E42F0E99D42F0E89C45F059
:0115F80022D0
:1015F900BB010DE58229F582E5833AF5830217F0EF
:101609005007E92582F80217E4BBFE07E92582F8AD
:101619000217FCE58229F582E5833AF58302180869
:10162900BB010DE58229F582E5833AF58302164D62
:101639005007E92582F8021818BBFE07E92582F848
:04164900021824223D
:0C164D00ECF0A3EDF0A3EEF0A3EFF02210
:10165900A8828583F0D083D0821216701216701278
:101669001670121670E473E493A3C583C5F0C5839D
:10167900C8C582C8F0A3C583C5F0C583C8C582C8DB
:01168900223E
:10168A00BB010DE58229F582E5833AF583021659F5
:10169A005007E92582F8021830BBFE07E92582F8CF
:0416AA0002184922B7
:1016AE00BB011A89828A83D0F0D0E0F8D0E0F9D05D
:1016BE00E0FAD0E0FBE8C0E0C0F002187D5016E979
:1016CE00F8D083D082D0E0F9D0E0FAD0E0FBC0822F
:1016DE00C08302186BBBFE16E9F8D083D082D0E02F
:0F16EE00F9D0E0FAD0E0FBC082C08302188F224F
:1016FD00BB010DE58229F582E5833AF58302187465
:10170D005007E92582F8021862BBFE07E92582F829
:10171D00021886E58229F582E5833AF58302189849
:10172D00BB0120E58229F582E5833AF583D0F0D01F
:10173D00E0F8D0E0F9D0E0FAD0E0FBE8C0E0C0F08E
:10174D0002187D5018E92582F8D083D082D0E0F9B7
:10175D00D0E0FAD0E0FBC082C08302186BBBFE184C
:10176D00E92582F8D083D082D0E0F9D0E0FAD0E03C
:09177D00FBC082C08302188F2218
:10178600E5092582F582E5083583F583B5080485E4
:1017960082092210AF06858209F50822858209F59D
:0417A60008D2AF2294
:0D17AA00E5092582F582E5083583F58322E7
:1017B700EC8EF0A4CCC5F0CCCDF8EFA4CEC5F02DBF
:1017C700FDE43CFCE8A42EC8C5F03DFDE43CFCEF7D
:0D17D700A4FFE5F028FEE43DFDE43CFC220B
:0C17E400E6FC08E6FD08E6FE08E6FF2231
:0C17F000E0FCA3E0FDA3E0FEA3E0FF226C
:0C17FC00E2FC08E2FD08E2FE08E2FF2229
:10180800E493FC740193FD740293FE740393FF2226
:0C181800ECF608EDF608EEF608EFF622FC
:0C182400ECF208EDF208EEF208EFF22200
:10183000D083D082E493F608740193F6087402937F
:09184000F608740393F6740473B6
:10184900D083D082E493F208740193F2087402936E
:09185900F208740393F2740473A5
:09186200E6FB08E6FA08E6F922AB
:09186B00EBF608EAF608E9F622A2
:09187400E0FBA3E0FAA3E0F92275
:09187D00EBF0A3EAF0A3E9F0226C
:09188600E2FB08E2FA08E2F92293
:09188F00EBF208EAF208E9F2228A
:0C189800E493FB740193FA740293F922AC
:00000001FF
