:10521F007B0190FFFD121786EBF0A3EAF0A3E9F0F4
:10522F007B007A00790090FFFD121786EBF0A3EA5E
:05523F00F0A3E9F022DC
:104F500012000E1237D190FFFF1217867402F07AFA
:104F60000179A212521F7A4C7939124F957401F0CF
:104F7000FB7A0179D31252217A367975124F9574E2
:104F800003F07A02790412521F7BFF7A4F79A11243
:104F900042FA02528A7BFF1242FA90FFFF121786F2
:014FA00022EE
:1048770055AA03000001000355AA03000001010423
:1048870055AA0301002A7B2270223A2275706366BB
:1048970073776136796A737A71346231222C2276A2
:1048A700223A22312E302E30222C226D223A307DB0
:1048B7002655AA030200000455AA03030000055564
:1048C700AA03050001000855AA03050001010955BF
:1048D700AA030E00001055AA0307000502010001F4
:1048E700001255AA0307000503040001001655AA84
:1048F7000307000505040001001855AA030700086F
:1049070006020004001D55AA030700051205000151
:0E491700002655AA030700050D010001011E30
:1022DF004C02DA55AA030700050E04000100214F36
:1022EF0002E655AA030700080602000400000000DA
:1022FF001D4C02B155AA03070000000000000000AA
:10230F004102D4004102BD004C02C7000000000092
:10231F0000000000000000C1054202D7000041028A
:10232F00C6004102D3004102C4004102C500410270
:10233F00D9004402BF000003E84102C3004202F586
:07234F0000004202D500006E
:10392B009002C5E004F0E0FEEF75F00CA424DDF589
:10393B0082E43448F583E5822EF582E43583F58302
:10394B00E493FF74B02EF582E43402F583E0FEEFCE
:10395B002EFF9002C5E024B1F582E43402F58322F8
:10396B005398FD9002BEE004F022E4900245F074FF
:10397B00FF900302F0A3F0E4900318F0227F02FE05
:10398B00FDFC900329E0F8A3E0F9A3E0FAA3E0FB28
:10399B00229002BEE0FFC3940C7480948022741EAC
:1039AB00900244F09002997401F0229002F5F0A37A
:1039BB00F0900245E06401229002457407F09003F9
:1039CB0002E4F0A32275F00CA424DDF582E4344864
:1039DB00F583E5822FF582E43583F583E493FE22AC
:1039EB009002BEE0FFC3940874809480229002BEC4
:1039FB00E0FFC394077480948022EFF0E49002BE42
:103A0B00F0229002BFE0FCA3E0FDA3E0FEA3E022C6
:103A1B0043A810E49002D4F09002BDF0225398EF2B
:103A2B009002D404F0221214BDE47BFFFAF9F802E1
:103A3B0015489002D1E0640122900245E0FD7C0024
:103A4B006401229002CDE0FF7E0022E49002F5F0AB
:103A5B00A3F02290027C7403F0A37484F0229002F2
:053A6B00CDE06404221F
:104C390090FFFD121786EBF0A3EAF0A3E9F08508CF
:104C490083850982E0F9A3E0FAA3E0850883850951
:104C590082C9F0A3EAF0A3E9F0E47F05FEFDFC12A6
:104C690049D3900245E0640B703E9002D5F0A3F061
:104C79009002D5E0FEA3E0FFC3940CEE648094801B
:104C8900501C74C72FF58274023EF583E4F090023C
:104C9900D6E004F070DA9002D5E004F080D2E49016
:104CA90002BDF053988F80061218A412519E123D2E
:034CB900AC80A626
:103DAC00C39002F6E094E89002F5E094035011A35E
:103DBC00E004F070069002F5E004F0E490023AF0B2
:103DCC00200403023E939002D9E014601314601C8B
:103DDC00240270229002BF121659000003E88016CC
:103DEC009002BF12165900000352800A9002BF12B3
:103DFC001659000002BCE47F267E02FDFC9002BF37
:103E0C00123990C31215E85005E490023AF0123AB8
:103E1C000DFF12398DC31215E85019E490023AF0D7
:103E2C00900329123A102401FFE43EFEE43DFDE428
:103E3C003CFC8004123A0DFF90032912164DE47FCE
:103E4C00907E0112398BC31215E8500A9003291287
:103E5C001659000001909002D9E070028001E41222
:103E6C003988123A318FF5E4123988123A31AF039E
:103E7C008FF4E47F107E2712398BC31215E8400EA5
:0F3E8C0075F50775F4FF22123A56F5F5F5F42295
:10519E009002D8E004F070069002D7E004F0D390AD
:1051AE0002D8E094D09002D7E0648094874010E457
:1051BE00F0A3F0123A1F759E0275981043A81022A4
:1018A4009002D3E0FF606F7E006401701F9002BE5F
:1018B400F09002BEE0FD1239F05053ED9048C6930B
:1018C400F599E59830E1FB12396B80E5EF64024E3F
:1018D400701A9002BEF01239EB5033EF9048CE9359
:1018E400F599E59830E1FB12396B80EA9002D3E078
:1018F4006403701A9002BEF01239F85011EF904848
:10190400D693F599E59830E1FB12396B80EA439858
:1019140010E49002D3F09002D4E07003021BEC5365
:10192400A8EF9002C7E064556003021BE69002C969
:10193400E07044A3E070409002D7F0A3F020051CAF
:10194400D2059002BEF01239EB502CEF90487793F9
:10195400F599E59830E1FB12396B80EAE49002BE18
:10196400F01239EB5011EF90487F93F599E59830D8
:10197400E1FB12396B80EA9002C9E07029A3E064AC
:101984000170239002BEF09002BEE0FFC394317454
:101994008094805011EF90488793F599E59830E151
:1019A400FB12396B80E19002C9E07020A3E064026D
:1019B400701A9002BEF01239F85011EF9048B893A3
:1019C400F599E59830E1FB12396B80EA9002C9E0A1
:1019D4007020A3E06403701A9002BEF01239F8502C
:1019E40011EF9048BF93F599E59830E1FB12396BFC
:1019F40080EA9002C9E0700FA3E0FF64086005EF7D
:101A040064037003123A5E9002CAE0FF7E00640E23
:101A1400700D9002CCE06402700590025404F0EF63
:101A240064064E6003021BE6123A5E123A4E6402EA
:101A3400700F123A3D700A90024504F0D203123935
:101A4400A9EF64034E7017123A3D7012900245E0FC
:101A5400700604F0D20380031239751239A990027A
:101A6400CDE06403701B9002D1E064027013900215
:101A740045E07007740AF0D20380031239751239F5
:101A8400A9123A4E6403700C9002D1E07006123928
:101A9400761239A9EF64024E700C9002D1E0700600
:101AA4001239761239A9123A69701F9002D1E07086
:101AB400191239B670079002C604F08005E490024A
:101AC40045F01239C374DC123981123A4E64047041
:101AD4001E123A3D70191239B670079002C604F00E
:101AE4008005E4900245F01239C374DD123981EFA8
:101AF40064044E70219002D1E0640270191239B668
:101B040070079002C604F08005E4900245F0123993
:101B1400C374DE123981123A6970219002D1E064F3
:101B24000370191239B670079002C604F08005E4F8
:101B3400900245F01239C374DF123981123A697088
:101B4400349002D1E06404702C9002C6E064017009
:101B540018123A571252B1E49002C6F090024504AA
:101B6400F0D203D2B3D204800C123A56C2B3C29557
:101B7400C2041239769002CDE0640D7024123A3D0D
:101B8400701F9002BEF012399C5011EF90491993C6
:101B9400F599E59830E1FB12396B80EA74C8123983
:101BA400AB9002CDE0640E7039A3E064047033900E
:101BB40002D1E09002E4F09002D9F024219002E5F1
:101BC400123A0612399C501774DA2FF582E4340263
:101BD400F583E0F599E59830E1FB12396B80E41266
:101BE40039A9123A1B439810E49002C4F0D390022E
:101BF4007DE094E890027CE0648094835003021EAC
:101C040077E4F0A3F09002C5F053A8EF9002C4F07B
:101C14009002C4E0C39405748094804003021E7152
:101C2400E4A3F09002C512399F4003021E68C3EF7B
:101C3400940A7480948050129002C4E01239D074D3
:101C4400B12F123963EEF0021E5F9002C5E0FF640B
:101C54000A6003021E5F9002C4E0FE705B900245BE
:101C6400E0FD6401600AED64026005ED640A700B36
:101C740074B12F1239637401F0800512395DE4F0F8
:101C84009002C5E004F0E0FFEE1239D074B02FF5F5
:101C940082E43402F583E0FFEE2F12395C123A0538
:101CA40012399C501374B12F123963E0F599E598F9
:101CB40030E1FB12396B80E89002C4E0FF640170EC
:101CC40041123A44700812395D7401F08016ED64D3
:101CD4000A4C9002C570081239607402F080051233
:101CE4003960E4F012392B123A0512399C501374FE
:101CF400B12F123963E0F599E59830E1FB12396BA5
:101D040080E89002C4E0FF6402706B123A447008E9
:101D140012395D7401F08040ED640A4C7008123988
:101D24005D7402F08032900245E064037025C39034
:101D34000273E09464900272E0648094809002C51F
:101D4400E050081239617403F0800D123961740493
:101D5400F0800512395DE4F012392B123A0512397C
:101D64009C501374B12F123963E0F599E59830E172
:101D7400FB12396B80E89002C4E06403703990026E
:101D840059E09002F3F0241DA3F09002C5E0041280
:101D94003A069002BEE0FFC3940F748094805017FB
:101DA40074E62FF582E43402F583E0F599E5983082
:101DB400E1FB12396B80DB9002C4E0FF6404600332
:101DC400021E5F90024B123A47700912395D740883
:101DD400F0021E41ED64024C700912395D7410F07A
:101DE400021E4190024BE0FD7C006403700812392E
:101DF4005D7404F08047ED64044C700812395D741E
:101E040040F0803990024BE0FD7C006405700812BC
:101E1400395D7401F08026ED64064C700812395D5A
:101E24007402F0801890024BE064079002C57008B9
:101E34001239607420F08005123960E4F012392BF5
:101E4400123A0512399C501374B12F123963E0F51C
:101E540099E59830E1FB12396B80E89002C5E00403
:101E6400F0021C279002C4E004F0021C14123A1B76
:041E7400439810225D
:03002300023E9BFF
:103E9B00C0E0C083C082C0D075D000C004C005C0D4
:103EAB0006C007E59820E003023F709002BDE0FFDB
:103EBB00700EAD99ED64557007C3EF1239A2401621
:103ECB009002BDE0FF607C9002C7E064557074C344
:103EDB00EF1239A2506D9002BDE0FF04F074C72FB2
:103EEB00F582E43402F583E599F09002BDE0FF7EA4
:103EFB00006407701C9002CAE0FDD3940274809496
:103F0B00804005ED640870095398EF9002D474015A
:103F1B00F0EF64084E700B9002CAE064037003125A
:103F2B003A289002BDE06409700B9002CAE0640E5F
:103F3B007003123A289002BDE0640C7003123A2809
:103F4B005398FE9002BDE06013AF99EF6455700C6F
:103F5B009002C7E599F09002BD7401F09002BDE0AC
:103F6B00640C7001F0D007D006D005D004D0D0D0AF
:063F7B0082D083D0E03289
:10235600C1814C02A3000000000000000000000044
:102366000041024A00420238000042026200004177
:10237600026500410299014102441E4102450141A4
:10238600026D0042023C00004102460041026A0022
:1023960041026C0041023B0041023E004102B00096
:1023A60041023700410254004102660041026B00BF
:1023B6004102490044023F0000000044025D000063
:1023C60000004202720000410261004102360044F0
:1023D60002500000000044024C0000000042026867
:1023E60000004102640041023500410296004102AC
:1023F6003A004102670041026E0041025A00410262
:102406004B004202470000410259504102710054FC
:102416000280000000000000000000000000000034
:102426000000000000004102430042027C0000C19F
:0724360000C10241029E00FB
:1028530090024BF07406900245F074FF900302F06F
:10286300A3F0E4900318F022F0741E900244F09059
:1028730002997401F022E47F287E2390024CFDFC30
:10288300E0F8A3E0F9A3E0FAA3E0FBC30215E890A4
:10289300024CE0FCA3E0FDA3E0FEA3E024019002D0
:1028A3004CFFE43EFEE43DFDE43CFC02164D900289
:1028B3006BE075F00684E5F022900257E0FEA3E09A
:1028C300FF900256E02FFF900255E03EFE90025C1F
:1028D300E02FFF90025BE03EFE22900265E075F080
:1028E3006484C3E5F094327480948022900247E0BC
:1028F3006480948090024CE0FCA3E0FDA3E0FEA37F
:10290300E022C3900279E0941E900278E0940022C2
:1029130090027C7403F0A3227D017C00E4FF2290EB
:10292300023BE0C3940A7480948022C3900275E052
:102933009414900274E094002278401211B9A80410
:10294300A905AA06AB07E4FFFE7DC87C421210C1AD
:10295300121294900247EEF0A3EFF022C390027795
:10296300E0942C900276E094012290023BF09003D5
:1029730002F0A322ED2401FFE43CFEEF25E0FFEE8D
:10298300338F82F58302145890023BD3E09403748F
:1029930080948022900245E0640322E490025AF07E
:1029A30004900238F0A3742C22C2B3C295C204224D
:1029B300900269E004F022900268E004F0229002A1
:1029C30068E0FEA3E0FF2290026BE075F00384E56C
:1029D300F02290023BE0D394007480948022900212
:1029E30047E4F0A37464F022E004F090024B2290D9
:1029F300026FE0FEA3E0FFD39414EE940022C374AD
:102A0300049FFD740B9EFCE402125B7D017C007F3E
:102A1300017E0022E0C394027480948022900245D8
:102A2300E0640B22900245E064062290027AE0FE05
:102A3300A3E0FFC32290026BE054032290025AE00A
:102A4300C394E87480948322900244741EF090022D
:102A530046E0FF2290023BE0D394077480948022E7
:102A630090023BE0C394057480948022900334E089
:102A730025E0FF900333E022900245E0FD7C0064F3
:0C2A83000B22E0FFC394127480948022A8
:1036750090FFFD121786EBF0A3EAF0A3E9F08508A9
:1036850083850982E0F9A3E0FAA3E085088385092B
:1036950082C9F0A3EAF0A3E9F0E47F64FEFDFC1221
:1036A50049D343BD101235101252E7123046123B72
:1036B50098121E78122A20604690027DE004F07070
:1036C5000690027CE004F0E4FFFE124A7A1237BC51
:1036D50090027EE0FFA3E090029ACFF0A3EFF09076
:1036E5000294E0FFA3E090029CCFF0A3EFF09002DC
:1036F50097E0FFA3E090029FCFF0A3EFF08007E4EF
:1037050090027CF0A3F090029EE0700C122A8F12BA
:103715003A70124925122CA3C2A1E47F02FEFDFCDA
:103725001249D3122A20601F90029EE0FF600A1200
:1037350037ADE490029EF0800E90029EE0FF1237B6
:10374500AD90029E7401F0900245E0FF6403604273
:10375500EF640B603D90029EE0703790027EE0FEC4
:10376500A3E0FF90029A7B011237C6900294E0FE17
:10377500A3E0FF90029C7B021237C6900297E0FE01
:10378500A3E0FF90029FE0FCA3E0FD7B037A00121B
:1037950047C3900245E0FF64036007EF640B6002D6
:1037A500D2A11237BC0236A77E00124A7AE47F0204
:1037B500FEFDFC1249D322E47F01FEFDFC1249D334
:0C37C50022E0FCA3E0FD7A001247C322C2
:103B9800900245E0FF64046005EF6405701912287F
:103BA800795014900248E0940A1228EF5004240A2D
:103BB800800224011228A1900245E0FF64046005F8
:103BC800EF64057013122879400EE4122859900208
:103BD8004C12165900000000122A27703E7F4C7EB6
:103BE8001D12287E5035900247122A31940DEE643A
:103BF8008094805011EF9405EE6480948040071201
:103C080028F724018012D3900248E094051228EF87
:103C18005004240A800224011228A1122A27702A9B
:103C28007F4C7E1D12287E402190024BE064077075
:103C38000A900245740BF0C2878005E4900245F0B3
:103C480090024C12165900000000900245E07014D2
:103C58007F987E3A12287E500B900246E0640160FD
:103C680003122892900245E070237F987E3A12282A
:103C78007E401A900246E064016012C287900245B5
:103C8800740BF090024C12165900000000122A2002
:103C980070197F0AFE12287E5003122892E47F0AC8
:0C3CA800FE12287E7005122892C28722AE
:102CA300900245E0FF640B7003022E80EF64036023
:102CB30060122A2E940EEE940B40051229E1800C2B
:102CC300122A017BF67A2879BC12293C900245E04E
:102CD300FF6401600AEF640A6005EF6407705490B3
:102CE3000246E0704E9002D9E0FF7E007008900229
:102CF30048E024148011EF64014E9002487005E00F
:102D030024088003E02405F0900247E03400F080BB
:102D130022900261E06402601A122A2E9404EE9457
:102D23000B40051229E1800B122A01E4FBFA79B06A
:102D330012293CD3900248E09464900247E06480F7
:102D4300948040031229E4C3900248E09405900262
:102D530047E0648094805006E4F0A37405F0900289
:102D6300711229255021E004F0900247E0FEA3E010
:102D7300FF900271E025E02480F582E43402F583BC
:102D8300EEF0A3EFF0801B7B017A0279807D0A7C51
:102D930000123F8190028AA3E0900259F0E490026E
:102DA30071F0900259E0D3940F7480948050159081
:102DB3000246E0700F122997600A122A3F500AE078
:102DC30004F08005E490025AF0122A3F400A1229C7
:102DD300EB7407F0141228591229976003022E800E
:102DE30090025AF07FC07E7A7D10FC90023F122839
:102DF30083501090023F1228FA240190023F1228B8
:102E0300A480069002721229E4900261E0640170CA
:102E13005C30A0337F32FEFDFC90025DE0F8A3E05E
:102E2300F9A3E0FAA3E0FBD31215E8502490025D66
:102E33001228FA2401FFE43EFEE43DFDE43CFC904D
:102E4300025D12164D800A90025D121659000000B1
:102E530000E47F32FE90025D1228814010900261EF
:102E63007402F090025D1216590000000090026196
:0E2E7300E064027008900272F0A37464F02212
:1049250020B4651229976060A3E0705C900249C3CA
:1049350012298F501CE4900261F0900249E004F0C6
:10494500E4900272F0A3F090023F121659000000A5
:1049550000900249E06403702F900236F0900261E6
:1049650004F0C295C204C2B3C2A112291374D412B1
:10497500286B74FF900302F0A3F074011229A412AE
:1049850028649002457403F030B442122997703DB3
:10499500A3E07039900249E0640A7009E014122816
:1049A5006B1229A4F09002491229255020E014F039
:1049B500E0701A12291374D4F09002387401F0A330
:0E49C500742CF0E4900245F0D20312286C220C
:10304600A201B3309301B3400B9002B012298F5006
:1030560003E004F0A201B3309401B3406F9002374D
:1030660012298F5003E004F0C3900263E094F490B9
:103076000262E094015014900246E0700E900263E2
:10308600E004F07006900262E004F0900262E0FA5A
:10309600A3E0FBBA011EBB2C1B90024C1216590072
:1030A6000000009002457404F0D2031228729002C8
:1030B60044741EF0BA0115BBF31290024C12165955
:1030C60000000000900245740512286BA29330019F
:1030D60001B3405F9002B0E06403705290024C125C
:1030E60016590000000012299EF090026DE00412AD
:1030F6002871122A4B601690026AE06010E4900272
:103106003EF0900266E004F0E490026BF0122A7B37
:103116007002D287ED4C7009EF700690024504806C
:1031260004E4900245F0D20312291374B6F0E49039
:1031360002B0F0A294300101B350030231CA9002EA
:1031460062E0FAA3E0FB942CEA940150589002370F
:10315600E06403706490024C1216590000000012DD
:10316600299EF090026DE004122871122A4B60111C
:1031760090026AE0600BE490023EF090026BE0047D
:10318600F0122A7B7002D287ED4C700AEF7007901E
:103196000245740A8004E4900245F0D20312291312
:1031A60074B6F08014C3EB94F3EA94019002D35002
:1031B600057401F080037402F0E4900262F0A3F05B
:1031C600900237F09002B0E06403702D900237E071
:1031D6006403702590026DE0C3122990501B900283
:1031E60046E07015122997601012285D9002460479
:0A31F600F0900299F01229A4F022D3
:102A8F001228BCAD07FC3090050DBD00010CD3ED35
:102A9F009400EC94004004D2008002C200D3EF9463
:102AAF0000EE94004004D2028002C202900245E080
:102ABF00FF64016008EF640A6003022CA2209007F4
:102ACF00E4900264F08010900264E0C394C87480B4
:102ADF0094805003E004F0900264E064C870111217
:102AEF00291374E9F0900264E004F0740112285382
:102AFF001228BCC3EF9403EE9400501EEF9400EE27
:102B0F0094004016E4900243F0900235E0949674DE
:102B1F008094805034E004F0802F1228BCEF6403BF
:102B2F004E701D900243E004F0E0C31228E84019F4
:102B3F0012285D90024512286BE4900243F0800941
:102B4F00E4900243F0900235F0900235E064967005
:102B5F001112291374E9F0900235E004F074021297
:102B6F002853D3900279E0943212290C401190022D
:102B7F0096E0946474809480500AE004F08005E439
:102B8F00900296F0900296E064647011122913740B
:102B9F00E9F09002961229EB740312285630047A4A
:102BAF001229976075900276E0FEA3E0FFD394FAA6
:102BBF00EE9400400E90023AE094C87480948050D6
:102BCF0034802FD3EF94FAEE94005023C390027702
:102BDF00E09432900276E09400401490023A122969
:102BEF00D84005E014F0800DE490023AF080069092
:102BFF00023AE004F090023AE064C870111229130F
:102C0F0074E9F090023A1229EB74041228569002DC
:102C1F0045E06407700490023AF0D3900275E09497
:102C2F0050122935400E900267E01228E8500AE052
:102C3F0004F08005E4900267F0900267E0641E7074
:102C4F001612291374E9F09002671229EB7405F03C
:102C5F009002450412285CD3900270E094509002C9
:102C6F006FE09400400E90026EE01228E8500AE0E8
:102C7F0004F08005E490026EF090026EE0641E7026
:102C8F001212291374E9F090026E1229EB7406F0F8
:032C9F001228599F
:012CA200220F
:101E7800900246E070030222DE90026AE07026A219
:101E880093300101B3401EA294300101B340169073
:101E9800026A740112285C1229AC9002447464F03E
:101EA800E490026CF09002661228B464017061122A
:101EB800285D1229AC1229CA7018900255E07002E8
:101EC800A3E0600512291B8005E4FDFC7F01FE12DA
:101ED800531A1229CA64017018900257E07002A3BD
:101EE800E0600512291B8005E4FDFC7F01FE12530A
:101EF8001A1229CA6402701890025BE07002A3E00B
:101F0800600512291B8005E4FDFC7F01FE12531AAF
:101F18009002661228B46402705C90026BE054016F
:101F2800701C900254F090023BF090023EF030900A
:101F3800067D01FCFF8020E4FDFC7F0180199002F2
:101F48003BE0700804F09002D37403F0900254E070
:101F5800600BE4FDFC7F01FE12531A801912291B45
:101F6800FE12531A90023BE004F0E0D394FA748016
:101F780094804002E4F09002661228B4640360037F
:101F88000221181228B1704890023EE0700D122903
:101F98006D74C812286490023E04F0D3900275E074
:101FA800941E122935400E90023BE0122927500D4D
:101FB800E004F080081229D54003E014F012298BC0
:101FC800400512291B8005E4FDFC7F01FE12531A0F
:101FD8001228B16401704B90023EE0700D12296D19
:101FE80074C912286490023E04F0D3900270E09401
:101FF8001E90026FE09400400E90023BE0122927E9
:10200800500DE004F080081229D54003E014F012C6
:10201800298B400512291B8005E4FDFC7F01FE1277
:10202800531A1228B16402705490023EE0700D9069
:10203800023B12285C90023E04F0D2049002C3E0F6
:10204800C39484748094835017900277E0945E124E
:102058002966400512291B8020E4FDFC7F018019B8
:10206800D3900277E094C8900276E094004005127D
:10207800291B8005E4FDFC7F01FE12531A1228B1CA
:102088006403702B90023EE0701190023B12285CB2
:1020980090023E04F0D2B3C295C204D3122906407E
:1020A8000512291B8005E4FDFC7F01FE12531A125C
:1020B80028B16404703190023EE0700E90023B1229
:1020C800285C90023E04F01229ACC390027BE09495
:1020D8006C90027AE09407500512291B8005E4FDF4
:1020E800FC7F01FE12531A1228B164057022900277
:1020F8003EE0700B90023B12285C90023E04F030E8
:10210800B40512291B8005E4FDFC7F01FE12531A59
:102118009002661228B46404600302229A122A38D4
:10212800704A90023EE070101229AC12296D74CAF0
:1021380012286490023E04F0900309122A85400A8E
:10214800D3EF941E74809480400A122922500AE02A
:1021580004F08005E490023BF0122A57400512294A
:102168001B8005E4FDFC7F01FE12531A122A386415
:1021780001704790023EE0700D12296D74CB122851
:102188006490023E04F090030D122A85400AD3EFB2
:10219800941E74809480400A122922500AE004F0A8
:1021A8008005E490023BF0122A57400512291B8053
:1021B80005E4FDFC7F01FE12531A122A38640270EE
:1021C8006790023EE07011D2B3D20412296D74CC2C
:1021D80012286490023E04F01229F2500F12292F9F
:1021E800500A12296050051229064008122A635025
:1021F80003E004F0C3EF9414EE9400501412292E57
:10220800500F12295F500A1229055005E490023B2D
:10221800F090023BE0640570067D01FCFF8005E458
:10222800FDFC7F01FE12531A122A38640370639072
:10223800023EE0700D12296D74CD12286490023EA2
:1022480004F01229F2500F12292F500A1229605057
:10225800051229064008122A635003E004F0C3EF70
:102268009414EE9400501412292E500F12295F5026
:102278000A1229055005E490023BF090023BE06405
:102288000570067D01FCFF8005E4FDFC7F01FE1260
:10229800531A900266E075F00684AFF0EF640560AB
:1022A80003EF703290023EE0700E1229AC90023BB0
:1022B80012285C90023E04F01229225005122A0EC0
:1022C8008005E4FDFCFFFE12531A90023BE004F087
:0722D800E064147001F02224
:1047C300C3ED9FF582EC9EF583C3E5829450E583A8
:1047D3009400500AED9FEC9E4004D2068002C2066C
:1047E300EA7049EB24FE601B14602C2402703D30F8
:1047F300060A9002A1122A1750328026E49002A1E1
:10480300F0802930060A9002A2122A17501E801245
:10481300E49002A2F0801530060D9002AF122A1721
:10482300500AE004F08005E49002AFF09002A1E0AA
:1048330064027009900255F0A304F08007E490022B
:1048430055F0A3F09002AFE06402700990025BF0B0
:10485300A304F08007E490025BF0A3F09002A2E0CF
:1048630064027008900257F0A304F022E490025708
:03487300F0A3F0BF
:01487600221F
:10351000C3900239E0942C900238E09401502EA31D
:10352000E004F07006900238E004F0900238E0FE0B
:10353000A3E0FF7C007D641213A1C3ED9432EC94F0
:10354000005005C2B0C2B122D2B0D2B12290026501
:10355000E004F0900245E0702EA3E0702A9002652E
:10356000F07D01FC7F01FE12531AE4900264F0909A
:103570000235F0900296F090023AF0900267F090D7
:10358000026EF090024BF0900245E064017015A3CA
:10359000E070111228DDE4FDFC50047F018001FF82
:1035A000FE12531A900245E064047020A3E0701CE0
:1035B000900265E075F01484C3E5F0122927E4FD5C
:1035C000FC50047F018001FFFE12531A900245E077
:1035D00064057015A3E070111228DDE4FDFC5004B1
:1035E0007F018001FFFE12531A122A2770087D0105
:1035F000FCFFFE12531A900245E06407701090021F
:103600004C12165900000000122A0E12531A900292
:1036100045E0640A7016A3E070121228DD5007E43A
:10362000FDFCFFFE8003122A0E12531A122A20708C
:1036300007FDFCFFFE12531A122997702EA3E070AB
:103640002A90025AF0900272E07004A3E064647061
:1036500006FDFC7F0180101228DD50077D017C00F3
:10366000E48003E4FDFCFFFE12531A900265E0645F
:05367000647001F0226E
:103A7000122A276003023B9790024BE0FF7003027B
:103A80003B841229AC7E0064017015900268E070DE
:103A900002A3E0700312286C1229B370031229BA32
:103AA000EF64024E701A1229C14E700312286CEF97
:103AB00064324E700312286C1229B370031229BAB3
:103AC00090024BE0640370231229C14E7003122848
:103AD0006CEF64324E700312286CEF64644E700316
:103AE00012286C1229B370031229BA90024BE0FF1E
:103AF0007E006404703A900268E0FCA3E0FD4C7024
:103B00000312286CED64324C700312286CED64646F
:103B10004C700312286CED64C84C700312286CEDD5
:103B200064FA4C700312286C1229B370031229BA7C
:103B3000EF64054E600890024BE064067023122982
:103B4000C14E700312286CEF64324E700312286C61
:103B5000EF64964E700312286C1229B37003122979
:103B6000BA90024BE06407701B1229C17C007D648F
:103B70001213F6ED4C7005740A12286E1229B370F8
:103B8000031229BA900268E0B4010CA3E0B4F40770
:083B9000E4900268F0A3F022AA
:10531A00EF64014E7004C2B08002D2B0ED64014C59
:08532A007003C2B122D2B122CE
:1052E700900299E06013900244E014F0E06003D26A
:0A52F700B222C2B2E4900299F02244
:104A7A0090024AE064016003024B1E90FEE0E0FDF2
:104A8A00A3E090026FCDF0A3EDF090FEE2E0FDA36B
:104A9A00E0900274CDF0A3EDF090FEE4E0FDA3E017
:104AAA00900276CDF0A3EDF090FEE6E0FDA3E09053
:104ABA000278CDF0A3EDF090FEE8E0FDA3E09002CD
:104ACA007ACDF0A3EDF090FEEAE0FDA3E090027E3D
:104ADA00CDF0A3EDF090FEECE0FDA3E0900294CDC2
:104AEA00F0A3EDF090FEEEE0FDA3E0900297CDF08A
:104AFA00A3EDF0EF64014E700653B4FE43B401EF28
:104B0A004E700353B4FEE490024AF043B84053B4E3
:054B1A00DF43B440225E
:103F8100E4900331F0A3F0A3F0A3F0A3F0A3F0EDCC
:103F910024FFFEEC34FF900331F0A3CEF0D3900365
:103FA10032E09400900331E0648094805003024039
:103FB10066E4900333F0A3F0900331E0FEA3E0FF49
:103FC100A3E0FCA3E0FDC39FEE6480F8EC6480985D
:103FD1004003024055122977FDACF0122A6F1229D5
:103FE10083D39DEC6480F8E5F0648098405290039F
:103FF10033E0FCA3E0FD25E0FFEC122983FF9003F1
:1040010035E5F0F0A3EFF0122977FD122A6F338F17
:1040110082F583E5F08DF0121490900335E0FCA356
:10402100E0FD900334E02401FF900333E03400FE0F
:10403100EF25E0FFEE338F82F583EC8DF0121490C3
:10404100900334E004F06003023FB9900333E004CD
:10405100F0023FB9900332E024FFF0900331E034E5
:05406100FFF0023F9E8C
:014066002237
:03007B000253012C
:10530100C0E0C083C08290024A7401F053B8BF5319
:09531100B4DFD082D083D0E03279
:10243D0041032F0041030A0041030800410330000E
:10244D004103090042030B00004202F90000420360
:10245D002300004203250000420300000042031246
:10246D000000420314000042031600004202F70070
:10247D00004102FB0041030D0042030E0000420229
:10248D00FE0000420327000042032D00004203041A
:10249D000000420319000042031B000042031E000E
:1024AD00004202FC0000420310000042030600003F
:1024BD00C1834103180041031D0042032000004168
:1024CD00032200C10444032900000000420302FF5F
:0124DD00FFFF
:1025E300D3900307E09464900306E0648094802210
:1025F300E4900318F0900302F0A32274FF90030207
:10260300F0A3F0E4900318F0227D147B017A007CA0
:10261300007F017E0022E47D14FBFAFC7F01FE2291
:10262300900307E004F022900306E004F0229003F5
:1026330002E4F0A322E4FBFA7D14FCFFFE229002E5
:10264300FEF0A3F0900327F0A3F090032DF0A3F086
:102653009002FBF0900304F0A3F0900319F0A3F0B1
:10266300A3F0A3F022900320E0FEA3E0FFC3229097
:1026730002F7E0FAA3E0FBFF7C007DFFAE0202134A
:10268300F6D3900307E09458900306E064809482A5
:10269300229003187401F0229FFFE09EFE7C007DD0
:1026A3000A12138FAA06AB07E0FEA3E0FF7D051213
:1026B300138FEF2BFBEE3AFA227C007DC81213F640
:1026C300AC06AD077B017A007F017E00227B017A95
:1026D300007D197C00E4FFFE227428F0E490031DC2
:1026E300F0900318F022900307E024FFF090030614
:1026F300E034FFF022E0FFA3E0A3CFF0A3EFF0224A
:1027030090031EF0A3F09002FC7402F0A37458F03F
:1027130022D390030FE090030E941AE06480948414
:1027230022900306F0A3F022FBAA06E0FEA3E0FF3B
:102733007C007D0F12138FEF2BFDEE3AFC22EEF09F
:10274300A3EFF0A3ECF0A3EDF0227C007DFFAF0339
:10275300AE020213F6E4F5E5F5E4F5E7F5E6F5ED8B
:10276300F5ECF5EFF5EE22EF94E8EE648094832226
:10277300EF94D0EE6480948722EF94ACEE6480945F
:102783008D22EF944CEE6480949D22D3900307E056
:10279300945022C3900307E094F4900306E064800E
:1027A300948122900333E0FFA3E0900310CFF0A3C2
:1027B300EFF022900302E4F0A3F0900318227D2CA3
:1027C3007C011213F6EF22900330F0900300F0A384
:1027D300F09003122225E0FFE033FEC3ED9FFFECF0
:1027E3009EFE22E0FEA3E0FF12138FEF2BFFEE3AD3
:1027F30022C2B3C295C204227B017A007D192290C2
:10280300031DE0C394067480948022D3900307E0F1
:1028130094002225E0FFE033FEED2FFFEC3E227C07
:10282300057DDC1213F6EF2409227C077DD01213F9
:10283300F6EF240B22900306E4F0A3740FF022E4D6
:10284300F0A3740AF0229002F9F0A3F0900323227C
:104FA10090FFFD121786EBF0A3EAF0A3E9F012528D
:104FB10069850883850982E0F9A3E0FAA3E0850801
:104FC10083850982C9F0A3EAF0A3E9F0E47FE87ED2
:104FD10003FDFC1249D3124D3C12516C1200961282
:104FE100406712414AE47F0FFEFDFC1249D380E67F
:10009600900302E07002A3E0703C900318E0700C3D
:1000A600120D94E47F0AFEFDFC1249D3122623703A
:1000B6000312262AE420000E12261A1232001226F5
:1000C6001912338D80051225F404F0122684400699
:1000D6001225F37402F0900302E07004A3E06401B9
:1000E600700E900318E07003120CBB7F0C12104EBA
:1000F600900302E07004A3E064027034900318E0F9
:100106007003120CDC122623700312262A20000C20
:1001160090032FE07006120EFC12338D20000B9018
:10012600032FE070051225E340061225F37403F051
:10013600900302E07004A3E064037030900318E0BB
:100146007003120CBB122623700312262A20000805
:10015600120ECA12338D80061226311226DC1227A1
:100166008E1225EA40061225F37404F0900302E08D
:100176007004A3E064047034900318E07003120C5A
:10018600DC122623700312262A20000C90032FE08F
:100196007006120EFC12338D20000B90032FE070B8
:1001A600051225E340061225F37405F0900302E0DC
:1001B6007004A3E064057035900318E07003120D17
:1001C60003122623700312262A20000E1226191265
:1001D600338D122619123200800812263174061247
:1001E600260512268440061225F37407F0900302B2
:1001F600E07004A3E06406700E900318E07003122A
:100206000D037F1112104E900302E07004A3E06408
:1002160007702E900318E07003120D6D20000E90EB
:10022600032FE070087D0F12261C12108320000B8E
:1002360090032FE070051225E340061225F374089B
:10024600F0900302E07004A3E06408703290031893
:10025600E07003120D24122623700312262A2000B2
:100266000812100212320080081226317414122667
:10027600DE12278E1225EA40061225F37409F09045
:100286000302E07004A3E06409702F900318E07085
:1002960003120D6D122623700312262A20000990E0
:1002A600032FE07003120FB620000B90032FE070AF
:1002B600051225E340041225F3F0900302E07004D2
:1002C600A3E0640C7034900318E07003120D45121D
:1002D6002623700312262A20000C90032FE07006B6
:1002E600120F5712338D20000B90032FE07005126A
:1002F60025E340061225F37403F0900302E0700430
:10030600A3E064117031900318E07003120E2312FB
:100316002623700312262A20000990032FE070037B
:1003260012105820000B90032FE070051225E340B1
:10033600061225F37408F0900302E07004A3E0644B
:10034600147025900318E07003120FCD120F84125B
:10035600338D300003122838900306E07002A3E0C4
:1003660070061225F47415F0900302E07004A3E001
:1003760064157040900318E07003120E991226233C
:10038600700312262AC3900307E094321225EA501E
:10039600107D0212260E12320012260C12338D80A8
:1003A60008122631741612260530000812263174FA
:1003B60016122605900302E07004A3E0641670523C
:1003C600900318E07006120F4012101812262370C0
:1003D6000312262A122796501412260C1232007B7C
:1003E600017A007D0412261212338D8008122631FE
:1003F60074171226053000081226317414122605C9
:10040600122802400DE41225F774181226059003EF
:1004160022F0900302E07004A3E0641770319003A9
:1004260018E07003120E99122623700312262A2052
:100436000005120E0A80081226317414122605D3FE
:10044600900307E094C81225EA40041227B6F090FC
:100456000302E07004A3E064187036900318E0709D
:1004660003120F10122623700312262A30000A12D6
:100476002631741A1226058004E4120F29D390033C
:1004860007E094421225EA40081226317419122612
:1004960005900302E07004A3E06419704590031808
:1004A600E07003120DEB122623700312262A200099
:1004B60005120E0A8008122631741A122605D390E8
:1004C6000307E0940812268B40081226317418128E
:1004D6002605900322E0640370081225F7F09003C6
:1004E60018F0900302E07004A3E0641A700E900303
:1004F60018E07003120F107F18121079900302E0B3
:100506007004A3E064287025900318E07003120FAE
:10051600CD120F8412338D30000312283890030653
:10052600E07002A3E070061225F47429F09003022D
:10053600E07004A3E064297044900318E07003128D
:100546000F6B122623700312262AC3900307E0942A
:10055600321225EA501412260C1232007B017A0060
:100566007D0212261212338D8008122631742A1249
:10057600260530000812263174281226059003023B
:10058600E07004A3E0642A7052900318E07006122B
:100596000F40121018122623700312262A122796CD
:1005A60050147B017A007D041226121232001226A4
:1005B6000C12338D8008122631742B12260530005A
:1005C600081226317428122605122802400DE4125C
:1005D60025F7742C122605900322F0900302E07092
:1005E60004A3E0642B7038900318E07003120F6BBD
:1005F600122623700312262A200008120E671233D1
:100606008D80081226317428122605D3900307E040
:1006160094C81225EA400812263174321226059033
:100626000302E07004A3E0642C703E900318E070AF
:1006360003120FE9122623700312262A30000A122B
:100646002631742E122605800C122619123200123B
:10065600263812338DD3900307E094421225EA40E0
:1006660008122631742D122605900302E07004A3A9
:10067600E0642D7048900318E07003120DEB12260B
:1006860023700312262A200008120E6712338D806B
:1006960008122631742E122605D3900307E094081B
:1006A60012268B4008122631742C1226059003223E
:1006B600E0640370081225F77432122605900302CF
:1006C600E07004A3E0642E700E900318E07003122D
:1006D6000FE97F2C121079900302E07004A3E06406
:1006E600327034900318E07003120D241226237022
:1006F6000312262AE420000E12261A12338D122621
:100706001912320080061225F47433F01226844042
:10071600061225F37434F0900302E07004A3E0643B
:10072600337011900318E07006120D941210327F88
:100736003E1210B4900302E07004A3E064347031FA
:10074600900318E07003120DCD12262370031226B3
:100756002A20000990032FE07003120FB620000B29
:1007660090032FE070051225E340061225F3743539
:10077600F0900302E07004A3E06435703290031831
:10078600E07003120DAC122623700312262A2000F5
:100796000812100212320080081226317414122632
:1007A600DE12278E1225EA40061225F37436F090E3
:1007B6000302E07004A3E064367042900318E07010
:1007C6001490032FF090030AF090030804F0E4124B
:1007D6000FA6121032122623700312262A200009B1
:1007E60090032FE0700312105820000B90032FE0A7
:1007F60070051225E340061225F37437F0900302C4
:10080600E07004A3E064377035900318E0700312BB
:100816000DAC122623700312262A20000E1226196A
:1008260012320012261912338D80081226317438BE
:1008360012260512268440061225F37443F090030F
:1008460002E07004A3E064387011900318E07006AB
:10085600120EB212106F7F431210B4900302E070B2
:1008660004A3E064397037900318E07006120DCDCA
:1008760012106F122623700312262A20000C9003F2
:100886002FE07006120F5712338D20000B90032FA6
:10089600E070051225E340061225F3743AF0900342
:1008A60002E07004A3E0643A7033900318E0700627
:1008B600120EB2121092122623700312262A20005C
:1008C60008120ECA12338D80061226311226DC1249
:1008D600278E1225EA40061225F3743BF090030298
:1008E600E07004A3E0643B7047900318E070149036
:1008F600032FF090030A04F0E4900308F0120FA609
:10090600121092122623700312262A20000E90033C
:100916002FE0700812103CFFFE12338D20000B9062
:10092600032FE070051225E340061225F37432F01A
:10093600900302E07004A3E0643E7039900318E06F
:100946007003120E23122623700312262A2000118A
:1009560090032FE0700BFBFA7D0FFC7F01FE121057
:100966008320000B90032FE070051225E34006124A
:1009760025F37435F0900302E07004A3E06443703D
:1009860036900318E07003120D45122623700312E9
:10099600262A20000E90032FE0700812103CFFFE5E
:1009A60012338D20000B90032FE070051225E340D3
:1009B600061225F3743AF0900302E07004A3E06493
:1009C60046702B900318E070031210221226237033
:1009D6000312262AE4200005120F2980061225F4A8
:1009E6007447F01225E340061225F37448F090038D
:1009F60002E07004A3E064477041900318E0700EB3
:100A0600900306F0A37414F01252B1122694122623
:100A1600E930000312284212280E1225EA400C1271
:100A2600263812320012263812338D900306E070F3
:100A360002A3E070061225F47446F0900302E070FB
:100A460004A3E064486003020B13900318E0700EE1
:100A56001227241252B19003201227B904F0300055
:100A6600091226317449F0020B05122668EE6480DD
:100A76009480401112276A500C1226BC12320012C2
:100A8600260C12338D12266812276B40101227731C
:100A9600500B1227C12402120E4B12338D122668F8
:100AA600122774401212277C500D7D901227C32402
:100AB60003120E4B12338D12266812277D400E123A
:100AC60027855009122822120EE012338D1226684D
:100AD6001227864013EF9410EE648094A7500912F3
:100AE600282D120EE012338DC3900321E09410904E
:100AF6000320E0648094A740061225F3744AF09020
:100B06000321E004F07006900320E004F090030255
:100B1600E07004A3E064497033900318E070061295
:100B2600109C1226941226E930000312284212283D
:100B36000E1225EA400E12263812320012263812FC
:100B4600338D8008122631744A122605900302E07E
:100B56007004A3E0644A7034900318E07003121026
:100B660022122623700312262AE420000E122639AA
:100B760012320012261912338D80061225F4744B98
:100B8600F01225E340061225F3744CF0900302E0C0
:100B96007004A3E0644B7039900318E070061210DD
:100BA6009C1226941226E930000312284212280EBF
:100BB6001225EA400C122638123200122638123359
:100BC6008D900306E07002A3E070061225F4744CC3
:100BD600F0900302E07004A3E0644C6003020CBAD8
:100BE600900318E070091227241252B1122694308D
:100BF60000071225FE1210A822122668EE648094C1
:100C060080401112276A500C1226BC12338D122610
:100C16000C12320012266812276B401012277350EE
:100C26000B1227C12402120E7D1232001226681200
:100C36002774401512277C50107C017D901213F604
:100C4600EF2403120E7D12320012266812277D4011
:100C5600181227855013122822FDE43EFC1226C7DF
:100C660012338D12260C1232001226681227864085
:100C76001ED3EF9410EE648094A7501312282DFD16
:100C8600E43EFC1226C712338D12260C123200D314
:100C9600900321E09400900320E064809480500645
:100CA6001225FE1210A8900321E024FFF0900320E5
:100CB600E034FFF02290030AF0900308F090030658
:100CC600F0A3F01252B19003187401F0E47F32FEE3
:100CD600FDFC1249D32290032FF090030A04F0E49E
:100CE600900308F0900306F0A3F01252B190031897
:100CF6007401F0E47F32FEFDFC1249D32290030A10
:100D0600F0900308F0900306F0A3F01252B190039E
:100D1600187401F0E47F32FEFDFC1249D3229003E1
:100D26000AF0900308F0900306F0A3F01252B19077
:100D360003187401F0E47F32FEFDFC1249D32290C1
:100D4600032FF090030A7402F0E4900308F0900376
:100D560006F0A3F01252B19003187401F0E47F324A
:100D6600FEFDFC1249D32290032FF090030AF09067
:100D7600030804F0E4900306F0A3F01252B19003C6
:100D8600187401F0E47F32FEFDFC1249D322900371
:100D96000AF0900308F0900306F0A3F01252B19007
:100DA60003187401F02290030AF0900308F09003F0
:100DB60006F0A3F01252B19003187401F0E47F32EA
:100DC600FEFDFC1249D32290032FF090030A04F093
:100DD600E4900308F0900306F0A3F01252B19003DA
:100DE600187401F022900322E004F01252B190032D
:100DF600187401F0E4900306F0A3F07F32FEFDFCC8
:100E06001249D322E4FBFA7D14FC7F01FE12320064
:100E1600E4FBFA7D14FC7F01FE12338D2290032F32
:100E2600F090030AF09003087402F0E4900306F0D1
:100E3600A3F01252B19003187401F0E47F32FEFD64
:100E4600FC1249D322FDE43EFC7B017A007F017E41
:100E5600001232007B017A007D147C007F017E0047
:100E660022E4FBFA7D14FC7F01FE123200E4FBFA59
:100E76007D14FC7F01FE22FDE43EFC7B017A007FAF
:100E8600017E0012338D7B017A007D147C007F0188
:100E96007E00221252B19003187401F0E49003060A
:100EA600F0A3F07F32FEFDFC1249D32290030AF034
:100EB600900308F0900306F0A3F01252B1900318C5
:100EC6007401F022E4FBFA7D0FFC7F01FE12320072
:100ED600E4FBFA7D0FFC7F01FE22FDE43EFC7B0174
:100EE6007A007F017E001232007B017A007D147C3D
:100EF600007F017E0022FBFA7D0FFC7F01FE12328D
:100F060000E4FBFA7D0FFCFFFE221252B19003189B
:100F16007401F0E4900306F0A3F07F32FEFDFC12AC
:100F260049D322FBFA7D14FCFFFE123200E4FBFAE1
:100F36007D14FC7F01FE12338D2290031DE004F028
:100F4600E4900306F0A3F01252B19003187401F076
:100F560022FBFA7D0FFC7F01FE123200E4FBFA7DD4
:100F66000FFCFFFE221252B19003187401F0E490B8
:100F76000306F0A3F07F32FEFDFC1249D322900354
:100F860007E024FFF0900306E034FFF0E4FBFA7D6F
:100F96000FFCFFFE123200E4FBFA7D0FFCFFFE227F
:100FA600900306F0A3F01252B19003187401F022D8
:100FB600FBFA7D0FFC7F01FE12338DE4FBFA7D0FF9
:100FC600FCFFFE123200221252B19003187401F097
:100FD600900306E4F0A3740FF0E47F32FEFDFC12EA
:100FE60049D3221252B19003187401F0E49003061B
:100FF600F0A3F07F32FEFDFC1249D322E4FBFA7D1A
:101006000FFC7F01FE12338DE4FBFA7D0FFC7F019E
:10101600FE22E47F32FEFDFC1249D322900306F045
:10102600A3F01252B19003187401F022E47F32FE4D
:10103600FDFC1249D322FBFA7D0FFC7F01FE123222
:1010460000E4FBFA7D0FFC227D147C007E00124E2C
:101056008322FBFA7D0FFCFFFE123200E4FBFA7DD1
:101066000FFC7F01FE12338D22E47F32FEFDFC125F
:1010760049D3227D147C007E00124E832212338DCA
:10108600E4FBFA7D0FFCFFFE12320022E47F32FE03
:10109600FDFC1249D322900306F0A3740AF0125203
:1010A600B1221252B19002457401F0D203227D148E
:0810B6007C007E00124E832233
:104E8300900331122741900318E06401700C12273C
:104E9300A61252B19003187402F03000031227A631
:104EA300D3900311E09400900310E0648094804059
:104EB3001A12263812320012263812338D9003113B
:104EC300E024FFF0900310E034FFF0900310E07053
:104ED30002A3E07011900331E0FFA3E0900302CF3F
:074EE300F0A3EF12260522E7
:10516C00900302E0F47003A3E0F47025900318E0C0
:10517C00701F900246E0640160031227F49003292B
:10518C0012165900000000E41227241252B1122604
:02519C0094225B
:10414A00900302E07004A3E064DC7023900318E09B
:10415A00700612421D12269420000E1226191232DF
:10416A000012261912338D80061242131225FE9070
:10417A000302E07004A3E064DD7023900318E0708A
:10418A000612421D12269420000E12263812320000
:10419A0012263812338D80061242131225FE90031E
:1041AA0002E07004A3E064DE702A900318E0700A4B
:1041BA00D2B3D2041252B112269420000E1226381B
:1041CA0012320012261912338D80091227F4125264
:1041DA00B11225FE900302E07004A3E064DF7028A8
:1041EA00900318E0700AD2B3D2041252B112269484
:1041FA0020000C12261912320012263802338D12B0
:10420A0027F41252B11225FE22C2B3C295C2041279
:0B421A0052B122D2B3D2041252B122E2
:10406700900302E07004A3E064C87012900318E0A4
:10407700700312413A1227FB1226121232009003E4
:1040870002E07004A3E064C97012900318E07003A3
:1040970012413A1227FB12261212338D900302E0C7
:1040A7007004A3E064CA7015900318E07009122722
:1040B700241252B11226941226D012320090030213
:1040C700E07004A3E064CB7015900318E070091248
:1040D70027241252B11226941226D012338D900340
:1040E70002E07004A3E064CC7021900318E070092B
:1040F7001227241252B11226941227FB12261212EB
:1041070032001227FB12261212338D900302E07041
:1041170004A3E064CD701B900318E07009122724F4
:104127001252B11226941226D01232001226D01241
:10413700338D22900306F0A3F01252B19003187446
:0341470001F02262
:104D3C00900245E0FF600964046005EF6405701B98
:104D4C00300318900246E070129003291216590095
:104D5C000000001227F4C2031225FE900245E06405
:104D6C00017017300314900329121659000000002B
:104D7C00D2B3D204C2031227B6F0900245E0640A03
:104D8C00701B30031890032912165900000000D232
:0E4D9C00B3D204C20312263174461226052239
:1052690075E30775E2FF75EB0775EAFF75F30775D7
:10527900F2FF122758F5F5F5F4F5F7F5F643E1775E
:015289002202
:0652AB0090032F7401F0D6
:1052B100122758900330F09002FBF090030BF0A3FB
:0852C100F090030EF0A3F022AF
:10320000900335122741AFEFEF7027AFEEEF70223A
:10321000900335E07004A3E064017016122849128F
:1032200026601227CA122660A3F0A3F09002F712BC
:10323000270CAFEDEF7025AFECEF7020900335E079
:103240007002A3E070161228491226601227CA12D3
:103250002660A3F0A3F09002F712270C900323122C
:1032600026F8900330E0FFC3900338E09FFE900300
:1032700037E09400900323F0A3CEF09003141226BD
:10328000F89003121226F8900323E0FEA3E0FF90CB
:103290000312EEF0FCA3EFF0FD9002FAE02FF090A5
:1032A00002F9E03EF0900315E09003141227D89045
:1032B0000317E02FFF900316E03E900300F0A3EF0A
:1032C000F0EB4A702E90032512266B900324E09FAA
:1032D000FF900323E09EFEEF7803C333CE33CED8B6
:1032E000F990032312272B900301E090030012288A
:1032F00016801690032512266B900324E09003237A
:1033000012269B9003001227E6FE9002F8E02FF0B1
:103310009002F7E03EF0D39002F8E094D09002F7EC
:10332000E06480948740077407F0A374D0F0C390E2
:1033300002F7E0648094805004E4F0A3F090033539
:10334000E07002A3E0601E900337E07002A3E0701B
:1033500006F5EFF5EE80281226728FEFAF031226E6
:103360007B8DEE801A900337E07002A3E07006F5C3
:10337000EDF5EC800A1226728FED12274D8DEC9040
:0D3380000330E0900309F0E4900330F022E8
:10338D00900335122741AFE5EF7017AFE4EF7012E0
:10339D00900335E07004A3E064017006122641121B
:1033AD002703AFE7EF7015AFE6EF7010900335E030
:1033BD007002A3E07006122641122703900327E046
:1033CD00FFA3E090032DCFF0A3EFF09002FBE0FF01
:1033DD00C3900338E09FFE900337E09400900327DD
:1033ED00F0A3CEF090031BE0FFA3E090031ECFF0FF
:1033FD00A3EFF09003191226F8900327E0FEA3E047
:10340D00FF900319EEF0FCA3EFF0FD9002FFE02F0B
:10341D00F09002FEE03EF090031CE090031B12279B
:10342D00D890031FE02FFF90031EE03E900304F0A1
:10343D00A3EFF0EB4A702E90032D12266B9003280C
:10344D00E09FFF900327E09EFEEF7803C333CE335A
:10345D00CED8F990032712272B900305E090030493
:10346D00122816801690032D12266B900328E090DB
:10347D00032712269B9003041227E6FE9002FDE01F
:10348D002FF09002FCE03EF0D39002FDE094D0903E
:10349D0002FCE06480948740077407F0A374D0F0B9
:1034AD00C39002FCE0648094805004E4F0A3F0909B
:1034BD000335E07002A3E0601F900337E07002A3B4
:1034CD00E07006F5E5F5E4802C9002FC1226758F70
:1034DD00E512274D8DE4801D900337E07002A3E0C7
:1034ED007006F5E7F5E6800D9002FC1226758FE764
:1034FD0012274D8DE69002FBE090030DF0E4900253
:03350D00FBF022AE
:03008B00024E170B
:104E1700C0E0C083C082C0D075D000C007E59F3016
:104E2700E14F900245E0FF64036043EF640B603E8F
:104E37009002FBE004F090030FE004F0700690038B
:104E47000EE004F090030AE06401700D122714408D
:104E5700081252AB90030AE4F090030AE064027070
:104E67000D12271440081252AB90030AE4F0539F27
:0C4E7700FDD007D0D0D082D083D0E03234
:03009300024CBC60
:104CBC00C0E0C083C082C0D075D000C007E59F3073
:104CCC00E763900245E0FF64036057EF640B6052AA
:104CDC00900330E004F090030CE004F070069003B5
:104CEC000BE004F0900308E064017015D390030C02
:104CFC00E090030B12271C40081252AB900308E4FF
:104D0C00F0900308E064027019D390030CE0941A3D
:104D1C0090030BE06480948440081252AB9003081B
:104D2C00E4F0539F7FD007D0D0D082D083D0E03234
:1024DE00610000580000010002000100030001002D
:1024EE0002000100040001000200010003000100CF
:1024FE0002000100050001000200010003000100BE
:10250E0002000100040001000200010003000100AE
:10251E00020001000600010002000100030001009C
:10252E00020001000400010002000100030001008E
:10253E00020001000500010002000100030001007D
:10254E00020001000400010002000100030001006E
:10255E00020001000700010002000100030001005B
:10256E00020001000400010002000100030001004E
:10257E00020001000500010002000100030001003D
:10258E00020001000400010002000100030001002E
:10259E00020001000600010002000100030001001C
:1025AE00020001000400010002000100030001000E
:1025BE0002000100050001000200010003000100FD
:1025CE0002000100040001000200010003000100EE
:0425DE0002000100F6
:10422500E0FF850883850982E0FBA3E0FAA3E0228D
:1042350090FFFD121786EBF0A3EAF0A3E9F022E068
:10424500F9A3E0FAA3E0850883850982229000138B
:1042550012132EFEEF4E900000F090001112132E57
:1042650024A1F582E43401F583227812E6FF75F086
:1042750003A42459F582E43401F58322900168E012
:10428500FCA3E0FDA3E0FEA3E02401FFE43EFEE481
:104295003DFDE43CFC90016802164DE075F014A468
:1042A5002405F9740035F0FA22780EA60308A60253
:1042B50008F6229000091215F9E4FBFAF9F8C30291
:1042C50015E89000030217AA90FFFF021786F990E0
:1042D500001212132EFEEF4E22E02458F582E4342C
:1042E50000F583227B007A00790022FF1217AAEEDF
:0542F500F0A3EFF02230
:10000E00120004125244125035124702120003120B
:05001E0052C9020005BB
:10533200780AE66401700F900158E0C394FFE49488
:07534200005003E004F0221B
:1050BB00780AE664017036C2AF900158E0D39400D1
:1050CB00E494004003E014F0900158E0701D900050
:1050DB0001E070171251CE12426F12422D1242AEE6
:0E50EB00EF08666006124281125349D2AF22CE
:10528A00780AE6701B1251CE7812E6FF18F6EF1272
:10529A00427312422D1242AE780B1242B01200260D
:0152AA0022E1
:0643CF0090FFFD121786AD
:1043D500120007780AE6640160030244999000021E
:1043E500124244C912423C124227F990000F12139F
:1043F5002E64047003024499C2AF1242B8700302DE
:104405004484124227F99000091215F9EF24FFFFA1
:10441500EE34FFFEED34FFFDEC34FFFC9000091295
:1044250016291242B87058124227F990000D12133E
:104435002E5437601AE9240DF9E43AFA121315548B
:10444500C812135B124227F990000E7401800812FE
:104455004227F990000EE412136D124227F99000DD
:104465000D12132E54087017900000E0FF124252EF
:10447500C083C0821242251242D3D082D083F0126B
:104485004227F99000031216FD12424B12423BD20D
:04449500AF0243EC43
:06449900900003021786EB
:0100030022DA
:10524400E4900158F0900001F0900170F0780AF6B3
:105254009001681216590000000090016C12165952
:05526400000000002223
:035035001242CD57
:10503800E4900000F012424BF012424BE0FFC394A0
:1050480001E49400501074A12F124267E4F0124258
:105058004BE004F080E3E47811F608F6780EF608E1
:0A506800F608F6780BF608F608F6D5
:0650720090000102178608
:1052C9001242CD7404F07B017A01797112423512D0
:0E52D90042E91242357BFF7A5179370242FAE0
:0647020090FFF81217867B
:104708007C007D507B017A0079051250787C007D11
:104718000F7B017A01795912507812424BE4F0125A
:10472800424BE0FFC39403E49400504CEF04A3F021
:10473800EF1242A112424BA3A3740112423C12424F
:104748004BA31242A07B019000051217AA12423B0C
:104758009000051217AA12422DF9C003C002C00129
:1047680012424BA3A312422DF990000312172D12E7
:10477800424BE004F002472712424B1242A0A3A387
:10478800740112423C1242E9C003C002C001124245
:104798004BA3A312422DF990000312172D9000028B
:1047A800E4F0A3F0A3F07B0190005504F0A374009B
:0547B800F0A37405F000
:0647BD00900008021786BF
:1050780090FFFE121786ECF0A3EDF01242351242B3
:10508800C7E0FEA3E0D39400EE9400402012424B08
:10509800E0FBA3E475F001121442A9F0FAE412133C
:1050A8005B1242C774FFF5F012142C80D1900005F2
:0350B80002178656
:1051F700C2AF900158E0701D900001E07017125186
:10520700CE12426F12422D1242AEEF0866600612AE
:085217004281124EEAD2AF22DF
:0351CE001242CDBD
:1051D1009000001242DE12424AF0E0FF12426512D4
:1051E10042DEE0FEEF33333354F8FFEE2F7812F650
:0651F10090000102178688
:1051370012423512424B124244C912423CC2AF904E
:10514700016CE0FCA3E0FDA3E0FEA3E02401FFE483
:105157003EFEE43DFDE43CFC90016C12164DD2AFDF
:0551670012000880D8D1
:0E2E81001242351242CDEFF090FFFD1217867F
:102E8F00C2AF900055124244C912423C1242274A27
:102E9F004B700302303C124227F99000031216FDCB
:102EAF0090005512423BD2AF9000041217AA124263
:102EBF002DF9C003C002C001124227F91216AE123B
:102ECF0042C7124225F990000FEF12136D90000DBB
:102EDF00E412136D90000EE412136D900009121698
:102EEF008A000000009000101217AA12422DF990CC
:102EFF0000101217AA12423B90000C1217AAE0FC06
:102F0F00A3E0FDA3E0FEA3E0FF90000C1217AA12AE
:102F1F00164D9000071217AA12422DF990000712B2
:102F2F0017AA12423B9000131217AAE0FEA3E090DB
:102F3F0000131242F090000A1217AAE0FEA3E090CD
:102F4F00000A1242F01242C7E0FF131313541FFE80
:102F5F00124227F9900011EE12136DEF54079000F3
:102F6F001012136D90001112132EFFF874010880C8
:102F7F0002C333D8FC90001312136D90001012137C
:102F8F002EFFF87401088002C333D8FC9000121290
:102F9F00136D125365124227F912535CC2AF1242DE
:102FAF0027F91242C7E012427312423B90000212FD
:102FBF00422DF9C003C002C001124227F99000034D
:102FCF0012172D1242E9C003C002C001124227F9A5
:102FDF0090000612172D90000212422D4A4B6017D7
:102FEF00124227F9C003C002C00190000212422D05
:102FFF00F990000612172D12424BE0F9A3E0FAA345
:10300F00E0900002C912423C900000124225F912D2
:10301F004252C083C0821242251242D3D082D08343
:10302F00F0900170E004F0D2AF7F008004D2AF7F48
:01303F00424E
:0630400090001502178646
:104BB100E0FF850883850982E0FBA3E0FAA3E022F8
:104BC10090FFFE121786E4F0A3F0FBFAF990FFFDC7
:104BD100121786EBF0A3EAF0A3E9F0221217AAE07C
:104BE10075F003A42459F582E43401F583E0F9A3B7
:104BF100E0FAA3E08508838509822275F003A424E5
:104C010059F582E43401F58322780B860308E6FA2C
:104C110008E6F990000F02132E24A1F582E4340175
:104C2100F5832290000C0217AA9000030217AA2410
:084C31000DF9E43AFA02131533
:0942FA00124BCE90FFFC12178656
:10430300C2AF900158E0D39400E494004007D2AFC9
:104313007F3C0243C990000D1217AAE0FF124BFC29
:10432300124BB94A4B60030243C57901EF124BFCB0
:10433300E4F0A3F0A304F0D2AF90FFFE121786E4DB
:10434300F0A3F0124C24124BB9124BCD124C241291
:104353004BB9124BCD124C24124BB9F912449F1294
:104363004BF5124BD4124BC190FFFC121786121659
:104373005900000000124BC190000E1217AA124BF5
:10438300B9F990001B1217AAE0FF122E81124C2AD2
:10439300EFF0124C2AE0700C780AE66401701C12EC
:1043A30051F78017C2AF7B007A00790090000D129D
:1043B30017AAE0124BFC124BD4D2AF124C2AE0FFE7
:0643C3008004D2AF7F2848
:0643C90090000E021786B1
:0E456F0090FFFF121786EFF090FFFD121786E7
:10457D00C2AF900003124BDDC9124BD5124BB34A9B
:10458D004B7007D2AF7F46024636124BB3F9E4F5B6
:10459D0083758201EB7006E965827001EA7007D2BE
:1045AD00AF7F43024636124BB3F990000D12132E16
:1045BD0054086071E9124C3054F712135B124BB36F
:1045CD00F990000D12132E70569000091215F9E492
:1045DD00FBFAF9F8C31215E87041900000124BB1C7
:1045ED00F990001312132EFEEF4E900000F0900084
:1045FD001112132E124C1AC083C082124BB1F990B6
:10460D00001212132EFEEF4ED082D083F0D2AF786F
:10461D000AE66401700B1251F78006D2AF8002D208
:09462D00AF7F008004D2AF7F448E
:064636009000040217864B
:0E3CB40090FFFF121786EFF090FFFB121786AD
:103CC200C2AF9000051217AAE0FFF4700E124C0A60
:103CD200FE9000051217AAEEF08006124C0AB507F4
:103CE20008124BF57401F08005124BF5E4F09000D8
:103CF20005124BDDA3C9124BD5124BF5A3124BB9DA
:103D02004A4B7007D2AF7F48023DA6124BF5A31271
:103D12004BB9F9E4F583758201EB7006E9658270AF
:103D220001EA7007D2AF7F43023DA6124BF5A31200
:103D32004BB9F990001112132EFF9000041217AA2A
:103D4200EFF09000041217AAE0FF124C1AC083C0D1
:103D520082E0FE124BF5A3124BB9F9900012121336
:103D62002EF4FDEE5DD082D083F074A12F124C1C94
:103D7200E07013900000E0FF90001312132EF4FE87
:103D8200EF5E900000F0124BF5A3124BB9124C30CB
:103D9200440812135BD2AF124BF5E06401700312B8
:043DA20051F77F0056
:063DA600900006021786E2
:1050F900121786900158E0D39400E4940022780BAB
:10510900860308E6FA08E6F922FC85088385098200
:1051190022E0FCA3E0FDA3E0FEA3E0FF22F090FF64
:0E512900FF021786FFEE3AFEED39FDEC38224C
:0C49D30090FFFC12178612164D90FFFF9B
:1049DF001250F94003024A74900001E09400E494ED
:1049EF00004003024A74E4FFFEFD125112A3E0F8E7
:1049FF00A3E0F9A3E0FAA3E0FB1215E84067C2AF0A
:104A0F0012510790001112132E125113F0E0FF24D0
:104A1F00A1F582E43401F583C083C082E0FE125118
:104A2F000790001212132EF4FDEE5DD082D083F0AA
:104A3F0074A12FF582E43401F583E0701390000028
:104A4F00E0FF90001312132EF4FEEF5E900000F0C3
:104A5F00125113A312511A1251079000091216295D
:054A6F00D2AF1251F767
:064A740090000502178608
:10463C00125127EB125126ED125126EFF090FFFC90
:10464C001250F940057F550246FC9000011250FFB4
:10465C0040057F320246FC9000051217AAE0FF7E4F
:10466C00007C007D3C1217B7C004C005C006C00713
:10467C009000041217AAE0FF7E007C0E7D1012172A
:10468C00B7D003D002D001D000EF2BFBEE3AFAEDFD
:10469C0039F9EC38F89000061217AAE0FFE4FCFD9B
:1046AC00FEEB2F12512DFCC004C005C006C00790B4
:1046BC0000071217AAE0FEA3E0FFEF24F4FFEE348C
:1046CC0001FEE433FDE433FCE47BE87A03F9F812F1
:1046DC001548D003D002D001D000EF2B12512D126F
:1046EC00511212164D12511312511A1249D37F0046
:0646FC0090000902178680
:03000000024B1F91
:104B1F0078FEE4F6D8FD750804750900758120024A
:024B2F004B6CCD
:104DAA001217AAA3E0FAEAFF850883850982E0FBC5
:104DBA00A3E475F001121442A9F0FAEF12135B850D
:104DCA000883850982E0FBA3E475F001121442A965
:104DDA00F0FA2290FFFD121786EBF0A3EAF0A3E99E
:104DEA00F0850883850982E0F9A3E0FAA3E0850843
:104DFA0083850982C9F0A3EAF0A3E9F022EF12132E
:0D4E0A005B9000090217AA9000060217AA8B
:10449F0090FFFD121786EB124DFF90FFFD1217864E
:1044AF00124E11E0FBA3E0FAA3E0F9124E11EB124A
:1044BF004DFF90000C1217AAE0FEA3E0FF90000C36
:1044CF001217AAEEF0A3EFF0124E0B124DF1124D90
:1044DF00C9740F12135B9000031217AAA3A3E0FF76
:1044EF00124DC9EF12135B900003124DAA740A12FA
:1044FF004DC6740B124DC6E4124DC6E4124DC6E400
:10450F00124DC6E412135B124E11A3A3E0FF124D1E
:10451F00C9EF12135B900006124DAA7401124DC61B
:10452F007404124DC67405124DC67406124DC6742E
:10453F0007124E08A3E0FAA3E02430E43AFF124D2D
:10454F00C9124E07A3A3E02430F9AF01124DC912CF
:0A455F004E07E0FBA3E0FAA3E0F929
:0645690090000E0217860F
:09535300758CB8E4F58AD28C22B5
:03000B00024FF1B0
:104FF100C0E0C0F0C083C082C0D075D000C000C086
:1050010001C002C003C004C005C006C0071253326C
:105011001253531243CF1250BBD007D006D005D044
:1050210004D003D002D001D000D0D0D082D083D020
:04503100F0D0E032A9
:1037D100758E5190FE917401F05389F04389017502
:1037E1008CB8E4F58AD2A9D28C90FE80E04401F035
:1037F10090FF1374C2F090FF12F090FF09F090FF58
:103801000AF090FF907423F090FF9114F075DA01A3
:1038110090FF947411F090FF9504F075DB0190FF17
:103821000D74C2F090FF987415F075DC0143F177C7
:1038310090FF0B7454F090FF0CF090FF087450F05F
:1038410090FF0774C2F0D287D2A190FF11F090FFD0
:103851001AF090FF18F090FF19F0D2B0D2B190FF9A
:103861001BF090FF06F0D28690FF107460F090FF7D
:103871001CF0E490FF02F090FF03F090FF04F09041
:10388100FF017402F090FF00F090FF17F090FF1518
:10389100F090FF16F075B4817F147E0012007E90C7
:1038A100FE9B744BF090FED07410F090FED174DF4B
:1038B100F090FED2744EF090FED37423F090FEC0CF
:1038C100741FF043B84053B4DF43B44090FF1D74FC
:1038D10069F090FEB4E04404F090FEBAE04402F0D6
:1038E10043D80190FF14746BF090FEBCE04410F0DB
:1038F10043D802D2AF75BD1790FEA074FFF090FFC0
:103901000E74C2F090FF0F7462F090FFA07416F075
:1039110090FFA104F075CC0675CEFF75CD98759E0C
:0A3921000275981043A810D2AF22DF
:0100040022D9
:0100050022D8
:09535C00124DDD900003021786DA
:0100060022D7
:09536500124DDD900003021786D1
:0100070022D6
:0100080022D5
:0B007E00EF1FAC0670011E4C70F62254
:10002600120006780B088683088682A3E0F8A3E010
:10003600F988838982E0FD7821A308E0F6DDFA8855
:1000460081A3E0F508A3E0F509780A7601D0E0FF80
:10005600D0E0FED0E0FDD0E0FCD0E0FBD0E0FAD06E
:10006600E0F9D0E0F8D0D0D082D083D0F0D0E0D282
:02007600AF32A7
:104EEA00C0E0C0F0C083C082C0D0E8C0E0E9C0E042
:104EFA00EAC0E0EBC0E0ECC0E0EDC0E0EEC0E0EFFD
:104F0A00C0E0E581C39421FD780B08868308868278
:104F1A00A3E0F8A3E0F988838982EDF07821A30859
:104F2A00E6F0DDFAA3E508F0A3E509F01200067839
:104F3A000B790EE7F60809E7F60809E7F67811791A
:064F4A0012E7F602002947
:0A534900E581C39404F581024F0CC6
:1010BE00021300E86480F8E933E83360110460F04D
:1010CE00ED33EC337009E8FCE9FDEAFEEBFF220498
:1010DE0060DED3EB9FEA9EE99DE8C2E78CF0C2F793
:1010EE0095F0400CE8CCF8E9CDF9EACEFAEBCFFB5F
:1010FE001212CB85D0F05804700320D5B3E80470DB
:10110E00075002B2D502130A92D5EC0460F7E4CC74
:10111E00C0E0C398F8603B94186008400DD0E0FB27
:10112E000212E2E4FBFAC9FC8028E830E406E4C9C6
:10113E00FBE4CAFCE830E305E4C9CACBFCE854077B
:10114E006010F8C3E913F9EA13FAEB13FBEC13FC86
:10115E00D8F130F52FC3E49CFCEF9BFFEE9AFEED29
:10116E0099FDD0E0FBEF4E4D4C701222DB030213C3
:10117E0007EC2CFCEF33FFEE33FEED33FDED30E7E5
:10118E00EB0212E2EF2BFFEE3AFEED39FDD0E0FB63
:10119E0050130BBB000302130AED13FDEE13FEEF0B
:0811AE0013FFEC13FC0212E236
:1011B60002130AEC5D046005E8590470030213008B
:1011C6001212CB580460F6EC4860F2EC7004FDFE97
:1011D600FF22C860DB2481C85009C398600250060C
:1011E6000213079850CAF582E9294B4A7005AB826B
:1011F6000212F675F0007C1A7880C3EF9BEE9AED2A
:1012060099400DC3EF9BFFEE9AFEED99FDE842F083
:10121600DC23ACF0D0E0FFD0E0FED0E0FDAB8220D6
:10122600E7101BEB60BAEC2CFCEF33FFEE33FEED60
:1012360033FD0212E2E803F830E705C0F075F0006E
:10124600EF2FFFEE33FEED33FD40B830E7C280AA44
:1012560075F020800E75F010800575F0087D007E13
:10126600007F003392D530D5031215DAEC334010E7
:10127600EF33FFEE33FEED33FDEC33FCD5F0ED221C
:0E128600E5F0247EA2D513CC92E7CDCEFF2258
:10129400EDD2E7CD33EC3392D524814006E4FFFE52
:1012A400FDFC22FCE4CFCECDCC24E0501174FF80B1
:1012B400EDC3CC13CCCD13CDCE13CECF13CF04704E
:0712C400F030D5DE0215DA5F
:1012CB00E9D2E7C933E833F892D5EDD2E7CD33EC69
:0712DB0033FC5002B2D522E2
:1012E200EC30E7100FBF000C0EBE00080DBD00046D
:1012F2000BEB6014A2D5EB13FCED92E7FD2274FF19
:10130200FCFDFEFF22E480F8A2D574FF13FC7D8071
:03131200E480EF85
:104B3100024F50E493A3F8E493A34003F68001F2FB
:104B410008DFF48029E493A3F85407240CC8C33385
:104B5100C4540F4420C8834004F456800146F6DF54
:104B6100E4800B01020408102040809022DFE47EE3
:104B7100019360BCA3FF543F30E509541FFEE49349
:104B8100A360010ECF54C025E060A840B8E493A310
:104B9100FAE493A3F8E493A3C8C582C8CAC583CA3B
:104BA100F0A3C8C582C8CAC583CADFE9DEE780BEF3
:0125E20000F8
:10131500BB010689828A83E0225002E722BBFE02D6
:09132500E32289828A83E4932209
:10132E00BB010CE58229F582E5833AF583E0225074
:10133E0006E92582F8E622BBFE06E92582F8E222BE
:0D134E00E58229F582E5833AF583E49322D8
:10135B00BB010689828A83F0225002F722BBFE0171
:02136B00F3226B
:10136D00F8BB010DE58229F582E5833AF583E8F0B6
:10137D00225006E92582C8F622BBFE05E92582C862
:02138D00F2224A
:10138F00EF8DF0A4A8F0CF8CF0A428CE8DF0A42E72
:02139F00FE222C
:1013A100BC000BBE0029EF8DF084FFADF022E4CC30
:1013B100F875F008EF2FFFEE33FEEC33FCEE9DECF9
:1013C100984005FCEE9DFE0FD5F0E9E4CEFD22ED3F
:1013D100F8F5F0EE8420D21CFEADF075F008EF2F89
:1013E100FFED33FD4007985006D5F0F222C398FD7A
:0513F1000FD5F0EA2217
:1013F600C2D5EC30E709B2D5E4C39DFDE49CFCEE12
:1014060030E715B2D5E4C39FFFE49EFE1213A1C3D5
:10141600E49DFDE49CFC80031213A130D507C3E4D0
:061426009FFFE49EFE2280
:10142C00C5F0F8A3E028F0C5F0F8E582158270024B
:06143C001583E038F022E8
:10144200A3F8E0C5F025F0F0E5821582700215835D
:06145200E0C838F0E822BA
:10145800BB0110E58229F582E5833AF583E0F5F0D2
:10146800A3E0225009E92582F886F008E622BBFEAF
:101478000AE92582F8E2F5F008E222E5832AF583F5
:08148800E993F5F0A3E99322BA
:10149000F8BB0111E58229F582E5833AF583E8F08E
:1014A000E5F0A3F0225009E92582C8F608A6F0224B
:0D14B000BBFE09E92582C8F2E5F008F22232
:1014BD00E88FF0A4CC8BF0A42CFCE98EF0A42CFCCE
:1014CD008AF0EDA42CFCEA8EF0A4CDA8F08BF0A44C
:1014DD002DCC3825F0FDE98FF0A42CCD35F0FCEBAB
:1014ED008EF0A4FEA9F0EB8FF0A4CFC5F02ECD3970
:0F14FD00FEE43CFCEAA42DCE35F0FDE43CFC22DD
:10150C0075F008758200EF2FFFEE33FECD33CDCC96
:10151C0033CCC58233C5829BED9AEC99E582984019
:10152C000CF582EE9BFEED9AFDEC99FC0FD5F0D6F6
:10153C00E4CEFBE4CDFAE4CCF9A88222B800C1B920
:10154C000059BA002DEC8BF084CFCECDFCE5F0CB5E
:10155C00F97818EF2FFFEE33FEED33FDEC33FCEB97
:10156C0033FB10D703994004EB99FB0FD8E5E4F952
:10157C00FA227818EF2FFFEE33FEED33FDEC33FC3F
:10158C00C933C910D7059BE99A4007EC9BFCE99A33
:10159C00F90FD8E0E4C9FAE4CCFB2275F010EF2F78
:1015AC00FFEE33FEED33FDCC33CCC833C810D70778
:1015BC009BEC9AE899400AED9BFDEC9AFCE899F8B3
:0E15CC000FD5F0DAE4CDFBE4CCFAE4C8F92246
:0E15DA00C3E49FFFE49EFEE49DFDE49CFC2222
:1015E800EB9FF5F0EA9E42F0E99D42F0E89C45F059
:0115F80022D0
:1015F900BB010DE58229F582E5833AF5830217F0EF
:101609005007E92582F80217E4BBFE07E92582F8AD
:101619000217FCE58229F582E5833AF58302180869
:10162900BB010DE58229F582E5833AF58302164D62
:101639005007E92582F8021818BBFE07E92582F848
:04164900021824223D
:0C164D00ECF0A3EDF0A3EEF0A3EFF02210
:10165900A8828583F0D083D0821216701216701278
:101669001670121670E473E493A3C583C5F0C5839D
:10167900C8C582C8F0A3C583C5F0C583C8C582C8DB
:01168900223E
:10168A00BB010DE58229F582E5833AF583021659F5
:10169A005007E92582F8021830BBFE07E92582F8CF
:0416AA0002184922B7
:1016AE00BB011A89828A83D0F0D0E0F8D0E0F9D05D
:1016BE00E0FAD0E0FBE8C0E0C0F002187D5016E979
:1016CE00F8D083D082D0E0F9D0E0FAD0E0FBC0822F
:1016DE00C08302186BBBFE16E9F8D083D082D0E02F
:0F16EE00F9D0E0FAD0E0FBC082C08302188F224F
:1016FD00BB010DE58229F582E5833AF58302187465
:10170D005007E92582F8021862BBFE07E92582F829
:10171D00021886E58229F582E5833AF58302189849
:10172D00BB0120E58229F582E5833AF583D0F0D01F
:10173D00E0F8D0E0F9D0E0FAD0E0FBE8C0E0C0F08E
:10174D0002187D5018E92582F8D083D082D0E0F9B7
:10175D00D0E0FAD0E0FBC082C08302186BBBFE184C
:10176D00E92582F8D083D082D0E0F9D0E0FAD0E03C
:09177D00FBC082C08302188F2218
:10178600E5092582F582E5083583F583B5080485E4
:1017960082092210AF06858209F50822858209F59D
:0417A60008D2AF2294
:0D17AA00E5092582F582E5083583F58322E7
:1017B700EC8EF0A4CCC5F0CCCDF8EFA4CEC5F02DBF
:1017C700FDE43CFCE8A42EC8C5F03DFDE43CFCEF7D
:0D17D700A4FFE5F028FEE43DFDE43CFC220B
:0C17E400E6FC08E6FD08E6FE08E6FF2231
:0C17F000E0FCA3E0FDA3E0FEA3E0FF226C
:0C17FC00E2FC08E2FD08E2FE08E2FF2229
:10180800E493FC740193FD740293FE740393FF2226
:0C181800ECF608EDF608EEF608EFF622FC
:0C182400ECF208EDF208EEF208EFF22200
:10183000D083D082E493F608740193F6087402937F
:09184000F608740393F6740473B6
:10184900D083D082E493F208740193F2087402936E
:09185900F208740393F2740473A5
:09186200E6FB08E6FA08E6F922AB
:09186B00EBF608EAF608E9F622A2
:09187400E0FBA3E0FAA3E0F92275
:09187D00EBF0A3EAF0A3E9F0226C
:09188600E2FB08E2FA08E2F92293
:09188F00EBF208EAF208E9F2228A
:0C189800E493FB740193FA740293F922AC
:00000001FF
             