:10522B007B0190FFFD121786EBF0A3EAF0A3E9F0E8
:10523B007B007A00790090FFFD121786EBF0A3EA52
:05524B00F0A3E9F022D0
:104F5C0012000E12368590FFFF1217867402F07A3B
:104F6C000179A212522B7A4C7945124FA17401F09F
:104F7C00FB7A0179D312522D7A3779DF124FA17453
:104F8C0003F07A02790412522B7BFF7A4F79AD121F
:104F9C0043060252967BFF12430690FFFF121786C0
:014FAC0022E2
:1048830055AA03000001000355AA03000001010417
:1048930055AA0301002A7B2270223A2275706366AF
:1048A30073776136796A737A71346231222C227696
:1048B300223A22312E302E30222C226D223A307DA4
:1048C3002655AA030200000455AA03030000055558
:1048D300AA03050001000855AA03050001010955B3
:1048E300AA030E00001055AA0307000502010001E8
:1048F300001255AA0307000503040001001655AA78
:104903000307000505040001001855AA0307000862
:1049130006020004001D55AA030700051205000145
:0E492300002655AA030700050D010001011E24
:1022DF004C02DA55AA030700050E04000100214F36
:1022EF0002E655AA030700080602000400000000DA
:1022FF001D4C02B155AA03070000000000000000AA
:10230F004102D4004102BD004C02C7000000000092
:10231F0000000000000000C1054202D7000041028A
:10232F00C6004102D3004102C4004102C500410270
:10233F00D9004402BF000003E84102C3004202F586
:07234F0000004202D500006E
:103932009002C5E004F0E0FEEF75F00CA424E9F576
:1039420082E43448F583E5822EF582E43583F583FB
:10395200E493FF74B02EF582E43402F583E0FEEFC7
:103962002EFF9002C5E024B1F582E43402F58322F1
:103972005398FD9002BEE004F022E4900245F074F8
:10398200FF900302F0A3F0E4900318F0227F02FEFE
:10399200FDFC900329E0F8A3E0F9A3E0FAA3E0FB21
:1039A200229002BEE0FFC3940C7480948022741EA5
:1039B200900244F09002997401F0229002F5F0A373
:1039C200F0900245E06401229002457407F09003F2
:1039D20002E4F0A32275F00CA424E9F582E4344851
:1039E200F583E5822FF582E43583F583E493FE22A5
:1039F2009002BEE0FFC3940874809480229002BEBD
:103A0200E0FFC394077480948022EFF0E49002BE3A
:103A1200F0229002BFE0FCA3E0FDA3E0FEA3E022BF
:103A220043A810E49002D4F09002BDF0225398EF24
:103A32009002D404F0221214BDE47BFFFAF9F802DA
:103A420015489002D1E0640122900245E0FD7C001D
:103A52006401229002CDE0FF7E0022E49002F5F0A4
:103A6200A3F02290027C7403F0A37484F0229002EB
:053A7200CDE064042218
:104C450090FFFD121786EBF0A3EAF0A3E9F08508C3
:104C550083850982E0F9A3E0FAA3E0850883850945
:104C650082C9F0A3EAF0A3E9F0E47F05FEFDFC129A
:104C750049DF900245E0640B703E9002D5F0A3F049
:104C85009002D5E0FEA3E0FFC3940CEE648094800F
:104C9500501C74C72FF58274023EF583E4F0900230
:104CA500D6E004F070DA9002D5E004F080D2E4900A
:104CB50002BDF053988F80061218A41251AA123D16
:034CC500B880A60E
:103DB800C39002F6E094E89002F5E094035011A352
:103DC800E004F070069002F5E004F0E490023AF0A6
:103DD800200403023E9F9002D9E014601314601C73
:103DE800240270229002BF121659000003E88016C0
:103DF8009002BF12165900000352800A9002BF12A7
:103E08001659000002BCE47F267E02FDFC9002BF2A
:103E1800123997C31215E85005E490023AF0123AA5
:103E280014FF123994C31215E85019E490023AF0BD
:103E3800900329123A172401FFE43EFEE43DFDE415
:103E48003CFC8004123A14FF90032912164DE47FBB
:103E5800907E01123992C31215E8500A9003291274
:103E68001659000001909002D9E070028001E41216
:103E7800398F123A388FF5E412398F123A38AF0376
:103E88008FF4E47F107E27123992C31215E8400E92
:0F3E980075F50775F4FF22123A5DF5F5F5F42282
:1051AA009002D8E004F070069002D7E004F0D390A1
:1051BA0002D8E094D09002D7E0648094874010E44B
:1051CA00F0A3F0123A26759E0275981043A8102291
:1018A4009002D3E0FF606F7E006401701F9002BE5F
:1018B400F09002BEE0FD1239F75053ED9048D293F8
:1018C400F599E59830E1FB12397280E5EF64024E38
:1018D400701A9002BEF01239F25033EF9048DA9346
:1018E400F599E59830E1FB12397280EA9002D3E071
:1018F4006403701A9002BEF01239FF5011EF904841
:10190400E293F599E59830E1FB12397280EA439845
:1019140010E49002D3F09002D4E07003021BEC5365
:10192400A8EF9002C7E064556003021BE69002C969
:10193400E07044A3E070409002D7F0A3F020051CAF
:10194400D2059002BEF01239F2502CEF90488393E6
:10195400F599E59830E1FB12397280EAE49002BE11
:10196400F01239F25011EF90488B93F599E59830C5
:10197400E1FB12397280EA9002C9E07029A3E064A5
:101984000170239002BEF09002BEE0FFC394317454
:101994008094805011EF90489393F599E59830E145
:1019A400FB12397280E19002C9E07020A3E0640266
:1019B400701A9002BEF01239FF5011EF9048C49390
:1019C400F599E59830E1FB12397280EA9002C9E09A
:1019D4007020A3E06403701A9002BEF01239FF5025
:1019E40011EF9048CB93F599E59830E1FB123972E9
:1019F40080EA9002C9E0700FA3E0FF64086005EF7D
:101A040064037003123A659002CAE0FF7E00640E1C
:101A1400700D9002CCE06402700590025404F0EF63
:101A240064064E6003021BE6123A65123A556402DC
:101A3400700F123A44700A90024504F0D20312392E
:101A4400B0EF64034E7017123A447012900245E0EE
:101A5400700604F0D203800312397C1239B090026C
:101A6400CDE06403701B9002D1E064027013900215
:101A740045E07007740AF0D203800312397C1239EE
:101A8400B0123A556403700C9002D1E0700612391A
:101A94007D1239B0EF64024E700C9002D1E07006F2
:101AA40012397D1239B0123A70701F9002D1E07071
:101AB400191239BD70079002C604F08005E4900243
:101AC40045F01239CA74DC123988123A556404702C
:101AD4001E123A4470191239BD70079002C604F000
:101AE4008005E4900245F01239CA74DD123988EF9A
:101AF40064044E70219002D1E0640270191239BD61
:101B040070079002C604F08005E4900245F0123993
:101B1400CA74DE123988123A7070219002D1E064DE
:101B24000370191239BD70079002C604F08005E4F1
:101B3400900245F01239CA74DF123988123A707073
:101B4400349002D1E06404702C9002C6E064017009
:101B540018123A5E1252BDE49002C6F09002450497
:101B6400F0D203D2B3D204800C123A5DC2B3C29550
:101B7400C20412397D9002CDE0640D7024123A44FF
:101B8400701F9002BEF01239A35011EF90492593B3
:101B9400F599E59830E1FB12397280EA74C812397C
:101BA400B29002CDE0640E7039A3E0640470339007
:101BB40002D1E09002E4F09002D9F024219002E5F1
:101BC400123A0D1239A3501774DA2FF582E4340255
:101BD400F583E0F599E59830E1FB12397280E4125F
:101BE40039B0123A22439810E49002C4F0D3900220
:101BF4007DE094E890027CE0648094835003021EAC
:101C040077E4F0A3F09002C5F053A8EF9002C4F07B
:101C14009002C4E0C39405748094804003021E7152
:101C2400E4A3F09002C51239A64003021E68C3EF74
:101C3400940A7480948050129002C4E01239D774CC
:101C4400B12F12396AEEF0021E5F9002C5E0FF6404
:101C54000A6003021E5F9002C4E0FE705B900245BE
:101C6400E0FD6401600AED64026005ED640A700B36
:101C740074B12F12396A7401F08005123964E4F0EA
:101C84009002C5E004F0E0FFEE1239D774B02FF5EE
:101C940082E43402F583E0FFEE2F123963123A0C2A
:101CA4001239A3501374B12F12396AE0F599E598EB
:101CB40030E1FB12397280E89002C4E0FF640170E5
:101CC40041123A4B70081239647401F08016ED64C5
:101CD4000A4C9002C570081239677402F08005122C
:101CE4003967E4F0123932123A0C1239A3501374E2
:101CF400B12F12396AE0F599E59830E1FB12397297
:101D040080E89002C4E0FF6402706B123A4B7008E2
:101D14001239647401F08040ED640A4C7008123981
:101D2400647402F08032900245E064037025C3902D
:101D34000273E09464900272E0648094809002C51F
:101D4400E050081239687403F0800D123968740485
:101D5400F08005123964E4F0123932123A0C123967
:101D6400A3501374B12F12396AE0F599E59830E164
:101D7400FB12397280E89002C4E064037039900267
:101D840059E09002F3F0241DA3F09002C5E0041280
:101D94003A0D9002BEE0FFC3940F748094805017F4
:101DA40074E62FF582E43402F583E0F599E5983082
:101DB400E1FB12397280DB9002C4E0FF640460032B
:101DC400021E5F90024B123A4E7009123964740875
:101DD400F0021E41ED64024C70091239647410F073
:101DE400021E4190024BE0FD7C006403700812392E
:101DF400647404F08047ED64044C70081239647410
:101E040040F0803990024BE0FD7C006405700812BC
:101E140039647401F08026ED64064C70081239644C
:101E24007402F0801890024BE064079002C57008B9
:101E34001239677420F08005123967E4F0123932E0
:101E4400123A0C1239A3501374B12F12396AE0F507
:101E540099E59830E1FB12397280E89002C5E004FC
:101E6400F0021C279002C4E004F0021C14123A226F
:041E7400439810225D
:03002300023EA7F3
:103EA700C0E0C083C082C0D075D000C004C005C0C8
:103EB70006C007E59820E003023F7C9002BDE0FFC3
:103EC700700EAD99ED64557007C3EF1239A940160E
:103ED7009002BDE0FF607C9002C7E064557074C338
:103EE700EF1239A9506D9002BDE0FF04F074C72F9F
:103EF700F582E43402F583E599F09002BDE0FF7E98
:103F0700006407701C9002CAE0FDD3940274809489
:103F1700804005ED640870095398EF9002D474014E
:103F2700F0EF64084E700B9002CAE064037003124E
:103F37003A2F9002BDE06409700B9002CAE0640E4C
:103F47007003123A2F9002BDE0640C7003123A2FEF
:103F57005398FE9002BDE06013AF99EF6455700C63
:103F67009002C7E599F09002BD7401F09002BDE0A0
:103F7700640C7001F0D007D006D005D004D0D0D0A3
:063F870082D083D0E0327D
:10235600C1814C02A3000000000000000000000044
:102366000041024A00420238000042026200004177
:10237600026500410299014102441E4102450141A4
:10238600026D0042023C00004102460041026A0022
:1023960041026C0041023B0041023E004102B00096
:1023A60041023700410254004102660041026B00BF
:1023B6004102490044023F0000000044025D000063
:1023C60000004202720000410261004102360044F0
:1023D60002500000000044024C0000000042026867
:1023E60000004102640041023500410296004102AC
:1023F6003A004102670041026E0041025A00410262
:102406004B004202470000410259504102710054FC
:102416000280000000000000000000000000000034
:102426000000000000004102430042027C0000C19F
:0724360000C10241029E00FB
:1028530090024BF07406900245F074FF900302F06F
:10286300A3F0E4900318F022F0741E900244F09059
:1028730002997401F022E47F287E2390024CFDFC30
:10288300E0F8A3E0F9A3E0FAA3E0FBC30215E890A4
:10289300024CE0FCA3E0FDA3E0FEA3E024019002D0
:1028A3004CFFE43EFEE43DFDE43CFC02164D900289
:1028B3006BE075F00684E5F022900257E0FEA3E09A
:1028C300FF900256E02FFF900255E03EFE90025C1F
:1028D300E02FFF90025BE03EFE22900265E075F080
:1028E3006484C3E5F094327480948022900247E0BC
:1028F3006480948090024CE0FCA3E0FDA3E0FEA37F
:10290300E022C3900279E0941E900278E0940022C2
:1029130090027C7403F0A3227D017C00E4FF2290EB
:10292300023BE0C3940A7480948022C3900275E052
:102933009414900274E094002278401211B9A80410
:10294300A905AA06AB07E4FFFE7DC87C421210C1AD
:10295300121294900247EEF0A3EFF022C390027795
:10296300E0942C900276E094012290023BF09003D5
:1029730002F0A322ED2401FFE43CFEEF25E0FFEE8D
:10298300338F82F58302145890023BD3E09403748F
:1029930080948022900245E0640322E490025AF07E
:1029A30004900238F0A3742C22C2B3C295C204224D
:1029B300900269E004F022900268E004F0229002A1
:1029C30068E0FEA3E0FF2290026BE075F00384E56C
:1029D300F02290023BE0D394007480948022900212
:1029E30047E4F0A37464F02290026FE0FEA3E0FFDB
:1029F300D39414EE940022C374049FFD740B9EFCC5
:102A0300E402125B7D017C007F017E0022E0C3941F
:102A1300027480948022900245E0640B2290024568
:102A2300E064062290027AE0FEA3E0FFC322E00402
:102A3300F090024B2290026BE05403229002447404
:102A43001EF0900246E0FF2290023BE0D39407740D
:102A53008094802290023BE0C3940574809480228A
:102A6300900334E025E0FF900333E022900245E039
:102A7300FD7C00640B22E0FFC394127480948022D7
:1037DF0090FFFD121786EBF0A3EAF0A3E9F085083E
:1037EF0083850982E0F9A3E0FAA3E08508838509C0
:1037FF0082C9F0A3EAF0A3E9F0E47F64FEFDFC12B6
:10380F0049DF43BD1090027DE004F0700690027C0A
:10381F00E004F01235201252F312304C123B9F127B
:10382F001E78122A196036E4FFFE124A8612391DDD
:10383F0090027EE0FFA3E090029ACFF0A3EFF0900A
:10384F000294E0FFA3E090029CCFF0A3EFF0900270
:10385F0097E0FFA3E090029FCFF0A3EFF090029EBE
:10386F00E0700C122A83123A77124931122C97C248
:10387F00A1E47F02FEFDFC1249DF122A19601F909E
:10388F00029EE0FF600A12390EE490029EF0800E55
:10389F0090029EE0FF12390E90029E7401F090028A
:1038AF0045E0FF64036042EF640B603D90029EE0D1
:1038BF00703790027EE0FEA3E0FF90029A7B011228
:1038CF003927900294E0FEA3E0FF90029C7B021246
:1038DF003927900297E0FEA3E0FF90029FE0FCA340
:1038EF00E0FD7B037A001247CF900245E0FF6403AF
:1038FF006007EF640B6002D2A112391D0238117EEE
:10390F0000124A86E47F02FEFDFC1249DF22E47FAB
:10391F0001FEFDFC1249DF22E0FCA3E0FD7A00125C
:03392F0047CF225D
:103B9F00900245E0FF64046005EF64057019122878
:103BAF00795014900248E0940A1228EF5004240A26
:103BBF00800224011228A1900245E0FF64046005F1
:103BCF00EF64057013122879400EE4122859900201
:103BDF004C12165900000000122A20703E7F4C7EB6
:103BEF001D12287E5035900247122A2A940DEE643A
:103BFF008094805011EF9405EE64809480400712FA
:103C0F0028F724018012D3900248E094051228EF80
:103C1F005004240A800224011228A1122A20702A9B
:103C2F007F4C7E1D12287E402190024BE06407706E
:103C3F000A900245740BF0C2878005E4900245F0AC
:103C4F0090024C12165900000000900245E07014CB
:103C5F007F307E7512287E500B900246E064016023
:103C6F0003122892900245E070237F307E75122850
:103C7F007E401A900246E064016012C287900245AE
:103C8F00740BF090024C12165900000000122A1902
:103C9F00701E7F0AFE12287E5003122892E47F0ABC
:103CAF00FE12287E700A122892C287C286438701AD
:013CBF0022E2
:102C9700900245E0FF640B7003022E86EF64036029
:102CA70060122A27940EEE940B40051229E1800C3E
:102CB7001229FA7BF67A2879BC12293C900245E062
:102CC700FF6401600AEF640A6005EF6407705490BF
:102CD7000246E0704E9002D9E0FF7E007008900235
:102CE70048E0241E8011EF64014E9002487005E011
:102CF70024148003E0240AF0900247E03400F080B7
:102D070022900261E06402601A122A279404EE946A
:102D17000B40051229E1800B1229FAE4FBFA79B07E
:102D270012293CD3900248E09464900247E0648003
:102D3700948040031229E4C3900248E0940590026E
:102D470047E0648094805006E4F0A37405F0900295
:102D5700711229255021E004F0900247E0FEA3E01C
:102D6700FF900271E025E02480F582E43402F583C8
:102D7700EEF0A3EFF0801B7B017A0279807D0A7C5D
:102D870000123F8D90028AA3E0900259F0E490026E
:102D970071F0900259E0D3940F74809480501D9085
:102DA7000246E07017122997601290025AE0C39406
:102DB700E874809483500AE004F08005E490025A96
:102DC700F090025AE0FF7E00BE030FBFE80C04F04C
:102DD70090024B7407F014122859122997600302C6
:102DE7002E8690025AF07FC07E7A7D10FC90023FBB
:102DF700122883501090023F1228FA240190023FB4
:102E07001228A480069002721229E4900261E064FD
:102E170001705C30A0337F32FEFDFC90025DE0F86C
:102E2700A3E0F9A3E0FAA3E0FBD31215E85024903E
:102E3700025D1228FA2401FFE43EFEE43DFDE43C76
:102E4700FC90025D12164D800A90025D1216590021
:102E5700000000E47F32FE90025D1228814010904E
:102E670002617402F090025D121659000000009092
:102E77000261E064027008900272F0A37464F022A9
:1049310020B4651229976060A3E0705C900249C3BE
:1049410012298F501CE4900261F0900249E004F0BA
:10495100E4900272F0A3F090023F12165900000099
:1049610000900249E06403702F900236F0900261DA
:1049710004F0C295C204C2B3C2A112291374D412A5
:10498100286B74FF900302F0A3F074011229A412A2
:1049910028649002457403F030B442122997703DA7
:1049A100A3E07039900249E0640A7009E01412280A
:1049B1006B1229A4F09002491229255020E014F02D
:1049C100E0701A12291374D4F09002387401F0A324
:0E49D100742CF0E4900245F0D20312286C2200
:10304C00A201B3309301B3400B9002B012298F5000
:10305C0003E004F0A201B3309401B3406F90023747
:10306C0012298F5003E004F0C3900263E094F490B3
:10307C000262E094015014900246E0700E900263DC
:10308C00E004F07006900262E004F0900262E0FA54
:10309C00A3E0FBBA011EBB2C1B90024C121659006C
:1030AC000000009002457404F0D2031228729002C2
:1030BC0044741EF0BA0115BBF31290024C1216594F
:1030CC0000000000900245740512286BA293300199
:1030DC0001B340649002B0E06403705790024C124C
:1030EC0016590000000012299EF090026DE00412A7
:1030FC002871122A3F601690026AE06010E4900278
:10310C003EF0900266E004F0E490026BF0122A6F3D
:10311C007007D287D2865387FEED4C7009EF70068C
:10312C00900245048004E4900245F0D20312291366
:10313C0074B6F0E49002B0F0A294300101B35003E5
:10314C000231DA900262E0FAA3E0FB942CEA9401DB
:10315C00505D900237E06403706990024C1216596E
:10316C000000000012299EF090026DE004122871FC
:10317C00122A3F601190026AE0600BE490023EF06C
:10318C0090026BE004F0122A6F7007D287D286533C
:10319C0087FEED4C700AEF7007900245740A8004AC
:1031AC00E4900245F0D20312291374B6F08014C3D4
:1031BC00EB94F3EA94019002D350057401F0800370
:1031CC007402F0E4900262F0A3F0900237F09002E7
:1031DC00B0E06403702D900237E064037025900218
:1031EC006DE0C3122990501B900246E07015122915
:1031FC0097601012285D90024604F0900299F0122C
:04320C0029A4F022DF
:102A83001228BCAD07FC3090050DBD00010CD3ED41
:102A93009400EC94004004D2008002C200D3EF946F
:102AA30000EE94004004D2028002C202900245E08C
:102AB300FF64016008EF640A6003022C962090070C
:102AC300E4900264F08010900264E0C394C87480C0
:102AD30094805003E004F0900264E064C870111223
:102AE300291374E9F0900264E004F074011228538E
:102AF3001228BCC3EF9403EE9400501EEF9400EE33
:102B030094004016E4900243F0900235E0949674EA
:102B13008094805034E004F0802F1228BCEF6403CB
:102B23004E701D900243E004F0E0C31228E8401900
:102B330012285D90024512286BE4900243F080094D
:102B4300E4900243F0900235F0900235E064967011
:102B53001112291374E9F0900235E004F0740212A3
:102B63002853D3900279E0946412290C4011900207
:102B730096E0946474809480500AE004F08005E445
:102B8300900296F0900296E0646470111229137417
:102B9300E9F0900296122A31740312285630047A0F
:102BA3001229976075900276E0FEA3E0FFD394FAB2
:102BB300EE9400400E90023AE094C87480948050E2
:102BC30034802FD3EF94FAEE94005023C39002770E
:102BD300E09432900276E09400401490023A122975
:102BE300D84005E014F0800DE490023AF08006909E
:102BF300023AE004F090023AE064C870111229131B
:102C030074E9F090023A122A3174041228569002A1
:102C130045E06407700490023AF0D3900275E094A3
:102C230050122935400E900267E01228E8500AE05E
:102C330004F08005E4900267F0900267E0641E7080
:102C43001612291374E9F0900267122A317405F001
:102C53009002450412285CD3900270E094509002D5
:102C63006FE09400400E90026EE01228E8500AE0F4
:102C730004F08005E490026EF090026EE0641E7032
:102C83001212291374E9F090026E122A317406F0BD
:032C9300122859AB
:012C9600221B
:101E7800900246E070030222DE90026AE07026A219
:101E880093300101B3401EA294300101B340169073
:101E9800026A740112285C1229AC9002447464F03E
:101EA800E490026CF09002661228B464017061122A
:101EB800285D1229AC1229CA7018900255E07002E8
:101EC800A3E0600512291B8005E4FDFC7F01FE12DA
:101ED80053261229CA64017018900257E07002A3B1
:101EE800E0600512291B8005E4FDFC7F01FE12530A
:101EF800261229CA6402701890025BE07002A3E0FF
:101F0800600512291B8005E4FDFC7F01FE125326A3
:101F18009002661228B46402705C90026BE054016F
:101F2800701C900254F090023BF090023EF030900A
:101F3800067D01FCFF8020E4FDFC7F0180199002F2
:101F48003BE0700804F09002D37403F0900254E070
:101F5800600BE4FDFC7F01FE125326801912291B39
:101F6800FE12532690023BE004F0E0D394FA74800A
:101F780094804002E4F09002661228B4640360037F
:101F88000221181228B1704890023EE0700D122903
:101F98006D74C812286490023E04F0D3900275E074
:101FA800941E122935400E90023BE0122927500D4D
:101FB800E004F080081229D54003E014F012298BC0
:101FC800400512291B8005E4FDFC7F01FE12532603
:101FD8001228B16401704B90023EE0700D12296D19
:101FE80074C912286490023E04F0D3900270E09401
:101FF8001E90026FE09400400E90023BE0122927E9
:10200800500DE004F080081229D54003E014F012C6
:10201800298B400512291B8005E4FDFC7F01FE1277
:1020280053261228B16402705490023EE0700D905D
:10203800023B12285C90023E04F0D2049002C3E0F6
:10204800C39484748094835017900277E0945E124E
:102058002966400512291B8020E4FDFC7F018019B8
:10206800D3900277E094C8900276E094004005127D
:10207800291B8005E4FDFC7F01FE1253261228B1BE
:102088006403702B90023EE0701190023B12285CB2
:1020980090023E04F0D2B3C295C204D3122906407E
:1020A8000512291B8005E4FDFC7F01FE1253261250
:1020B80028B16404703190023EE0700E90023B1229
:1020C800285C90023E04F01229ACC390027BE09495
:1020D8006C90027AE09407500512291B8005E4FDF4
:1020E800FC7F01FE1253261228B16405702290026B
:1020F8003EE0700B90023B12285C90023E04F030E8
:10210800B40512291B8005E4FDFC7F01FE1253264D
:102118009002661228B46404600302229A122A38D4
:10212800704A90023EE070101229AC12296D74CAF0
:1021380012286490023E04F0900309122A79400A9A
:10214800D3EF941E74809480400A122922500AE02A
:1021580004F08005E490023BF0122A4B4005122956
:102168001B8005E4FDFC7F01FE125326122A386409
:1021780001704790023EE0700D12296D74CB122851
:102188006490023E04F090030D122A79400AD3EFBE
:10219800941E74809480400A122922500AE004F0A8
:1021A8008005E490023BF0122A4B400512291B805F
:1021B80005E4FDFC7F01FE125326122A38640270E2
:1021C8006790023EE07011D2B3D20412296D74CC2C
:1021D80012286490023E04F01229EB500F12292FA6
:1021E800500A12296050051229064008122A575031
:1021F80003E004F0C3EF9414EE9400501412292E57
:10220800500F12295F500A1229055005E490023B2D
:10221800F090023BE0640570067D01FCFF8005E458
:10222800FDFC7F01FE125326122A38640370639066
:10223800023EE0700D12296D74CD12286490023EA2
:1022480004F01229EB500F12292F500A122960505E
:10225800051229064008122A575003E004F0C3EF7C
:102268009414EE9400501412292E500F12295F5026
:102278000A1229055005E490023BF090023BE06405
:102288000570067D01FCFF8005E4FDFC7F01FE1260
:102298005326900266E075F00684AFF0EF6405609F
:1022A80003EF703290023EE0700E1229AC90023BB0
:1022B80012285C90023E04F01229225005122A07C7
:1022C8008005E4FDFCFFFE12532690023BE004F07B
:0722D800E064147001F02224
:1047CF00C3ED9FF582EC9EF583C3E5829450E5839C
:1047DF009400500AED9FEC9E4004D2068002C20660
:1047EF00EA7049EB24FE601B14602C2402703D30EC
:1047FF00060A9002A1122A1050328026E49002A1DC
:10480F00F0802930060A9002A2122A10501E801240
:10481F00E49002A2F0801530060D9002AF122A101C
:10482F00500AE004F08005E49002AFF09002A1E09E
:10483F0064027009900255F0A304F08007E490021F
:10484F0055F0A3F09002AFE06402700990025BF0A4
:10485F00A304F08007E490025BF0A3F09002A2E0C3
:10486F0064027008900257F0A304F022E4900257FC
:03487F00F0A3F0B3
:014882002213
:10352000C3900239E0942C900238E09401502EA30D
:10353000E004F07006900238E004F0900238E0FEFB
:10354000A3E0FF7C007D641213A1C3ED9432EC94E0
:10355000005005C2B0C2B122D2B0D2B122900265F1
:10356000E004F0900245E0702EA3E0702A9002651E
:10357000F07D01FC7F01FE125326E4900264F0907E
:103580000235F0900296F090023AF0900267F090C7
:10359000026EF090024BF0900245E064017015A3BA
:1035A000E070111228DDE4FDFC50047F018001FF72
:1035B000FE125326900245E064047020A3E0701CC4
:1035C000900265E075F01484C3E5F0122927E4FD4C
:1035D000FC50047F018001FFFE125326900245E05B
:1035E00064057015A3E070111228DDE4FDFC5004A1
:1035F0007F018001FFFE125326122A2070087D01F0
:10360000FCFFFE125326900245E064077010900202
:103610004C12165900000000122A0712532690027D
:1036200045E0640A7016A3E070121228DD5007E42A
:10363000FDFCFFFE8003122A07125326122A19707E
:1036400007FDFCFFFE125326122997702EA3E0708F
:103650002A90025AF0900272E07004A3E064647051
:1036600006FDFC7F0180101228DD50077D017C00E3
:10367000E48003E4FDFCFFFE125326900265E06443
:05368000647001F0225E
:103A7700122A206003023B9E90024BE0FF70030274
:103A87003B8B1229AC7E0064017015900268E070D0
:103A970002A3E0700312286C1229B370031229BA2B
:103AA700EF64024E701A1229C14E700312286CEF90
:103AB70064324E700312286C1229B370031229BAAC
:103AC70090024BE0640370231229C14E7003122841
:103AD7006CEF64324E700312286CEF64644E70030F
:103AE70012286C1229B370031229BA90024BE0FF17
:103AF7007E006404703A900268E0FCA3E0FD4C701D
:103B07000312286CED64324C700312286CED646468
:103B17004C700312286CED64C84C700312286CEDCE
:103B270064FA4C700312286C1229B370031229BA75
:103B3700EF64054E600890024BE06406702312297B
:103B4700C14E700312286CEF64324E700312286C5A
:103B5700EF64964E700312286C1229B37003122972
:103B6700BA90024BE06407701B1229C17C007D6488
:103B77001213F6ED4C7005740A12286E1229B370F1
:103B8700031229BA900268E0B4010CA3E0B4F40769
:083B9700E4900268F0A3F022A3
:10532600EF64014E7004C2B08002D2B0ED64014C4D
:085336007003C2B122D2B122C2
:1052F300900299E06013900244E014F0E06003D25E
:0A530300B222C2B2E4900299F02237
:104A860090024AE064016003024B2A90FEE0E0FDDA
:104A9600A3E090026FCDF0A3EDF090FEE2E0FDA35F
:104AA600E0900274CDF0A3EDF090FEE4E0FDA3E00B
:104AB600900276CDF0A3EDF090FEE6E0FDA3E09047
:104AC6000278CDF0A3EDF090FEE8E0FDA3E09002C1
:104AD6007ACDF0A3EDF090FEEAE0FDA3E090027E31
:104AE600CDF0A3EDF090FEECE0FDA3E0900294CDB6
:104AF600F0A3EDF090FEEEE0FDA3E0900297CDF07E
:104B0600A3EDF0EF64014E700653B4FE43B401EF1B
:104B16004E700353B4FEE490024AF043B84053B4D7
:054B2600DF43B4402252
:103F8D00E4900331F0A3F0A3F0A3F0A3F0A3F0EDC0
:103F9D0024FFFEEC34FF900331F0A3CEF0D3900359
:103FAD0032E09400900331E064809480500302402D
:103FBD0072E4900333F0A3F0900331E0FEA3E0FF31
:103FCD00A3E0FCA3E0FDC39FEE6480F8EC64809851
:103FDD004003024061122977FDACF0122A631229C9
:103FED0083D39DEC6480F8E5F06480984052900393
:103FFD0033E0FCA3E0FD25E0FFEC122983FF9003E5
:10400D0035E5F0F0A3EFF0122977FD122A63338F17
:10401D0082F583E5F08DF0121490900335E0FCA34A
:10402D00E0FD900334E02401FF900333E03400FE03
:10403D00EF25E0FFEE338F82F583EC8DF0121490B7
:10404D00900334E004F06003023FC5900333E004B5
:10405D00F0023FC5900332E024FFF0900331E034CD
:05406D00FFF0023FAA74
:01407200222B
:03007B0002530D20
:10530D00C0E0C083C08290024A7401F053B8BF530D
:09531D00B4DFD082D083D0E0326D
:10243D0041032F0041030A0041030800410330000E
:10244D004103090042030B00004202F90000420360
:10245D002300004203250000420300000042031246
:10246D000000420314000042031600004202F70070
:10247D00004102FB0041030D0042030E0000420229
:10248D00FE0000420327000042032D00004203041A
:10249D000000420319000042031B000042031E000E
:1024AD00004202FC0000420310000042030600003F
:1024BD00C1834103180041031D0042032000004168
:1024CD00032200C10444032900000000420302FF5F
:0124DD00FFFF
:1025E300D3900307E09464900306E0648094802210
:1025F300E4900318F0900302F0A32274FF90030207
:10260300F0A3F0E4900318F0227D147B017A007CA0
:10261300007F017E0022E47D14FBFAFC7F01FE2291
:10262300900307E004F022900306E004F0229003F5
:1026330002E4F0A322E4FBFA7D14FCFFFE229002E5
:10264300FEF0A3F0900327F0A3F090032DF0A3F086
:102653009002FBF0900304F0A3F0900319F0A3F0B1
:10266300A3F0A3F022900320E0FEA3E0FFC3229097
:1026730002F7E0FAA3E0FBFF7C007DFFAE0202134A
:10268300F6D3900307E09458900306E064809482A5
:10269300229003187401F0229FFFE09EFE7C007DD0
:1026A3000A12138FAA06AB07E0FEA3E0FF7D051213
:1026B300138FEF2BFBEE3AFA227C007DC81213F640
:1026C300AC06AD077B017A007F017E00227B017A95
:1026D300007D197C00E4FFFE227428F0E490031DC2
:1026E300F0900318F022900307E024FFF090030614
:1026F300E034FFF022E0FFA3E0A3CFF0A3EFF0224A
:1027030090031EF0A3F09002FC7402F0A37458F03F
:1027130022D390030FE090030E941AE06480948414
:1027230022900306F0A3F022FBAA06E0FEA3E0FF3B
:102733007C007D0F12138FEF2BFDEE3AFC22EEF09F
:10274300A3EFF0A3ECF0A3EDF0227C007DFFAF0339
:10275300AE020213F6E4F5E5F5E4F5E7F5E6F5ED8B
:10276300F5ECF5EFF5EE22EF94E8EE648094832226
:10277300EF94D0EE6480948722EF94ACEE6480945F
:102783008D22EF944CEE6480949D22D3900307E056
:10279300945022C3900307E094F4900306E064800E
:1027A300948122900333E0FFA3E0900310CFF0A3C2
:1027B300EFF022900302E4F0A3F0900318227D2CA3
:1027C3007C011213F6EF22900330F0900300F0A384
:1027D300F09003122225E0FFE033FEC3ED9FFFECF0
:1027E3009EFE22E0FEA3E0FF12138FEF2BFFEE3AD3
:1027F30022C2B3C295C204227B017A007D192290C2
:10280300031DE0C394067480948022D3900307E0F1
:1028130094002225E0FFE033FEED2FFFEC3E227C07
:10282300057DDC1213F6EF2409227C077DD01213F9
:10283300F6EF240B22900306E4F0A3740FF022E4D6
:10284300F0A3740AF0229002F9F0A3F0900323227C
:104FAD0090FFFD121786EBF0A3EAF0A3E9F0125281
:104FBD0075850883850982E0F9A3E0FAA3E08508E9
:104FCD0083850982C9F0A3EAF0A3E9F0E47FE87EC6
:104FDD0003FDFC1249DF124D481251781200961252
:104FED004073124156E47F0FFEFDFC1249DF80E64F
:10009600900302E07002A3E0703C900318E0700C3D
:1000A600120D94E47F0AFEFDFC1249DF122623702E
:1000B6000312262AE420000E12261A1232101226E5
:1000C6001912339D80051225F404F0122684400689
:1000D6001225F37402F0900302E07004A3E06401B9
:1000E600700E900318E07003120CBB7F0C12104EBA
:1000F600900302E07004A3E064027034900318E0F9
:100106007003120CDC122623700312262A20000C20
:1001160090032FE07006120EFC12339D20000B9008
:10012600032FE070051225E340061225F37403F051
:10013600900302E07004A3E064037030900318E0BB
:100146007003120CBB122623700312262A20000805
:10015600120ECA12339D80061226311226DC122791
:100166008E1225EA40061225F37404F0900302E08D
:100176007004A3E064047034900318E07003120C5A
:10018600DC122623700312262A20000C90032FE08F
:100196007006120EFC12339D20000B90032FE070A8
:1001A600051225E340061225F37405F0900302E0DC
:1001B6007004A3E064057035900318E07003120D17
:1001C60003122623700312262A20000E1226191265
:1001D600339D122619123210800812263174061227
:1001E600260512268440061225F37407F0900302B2
:1001F600E07004A3E06406700E900318E07003122A
:100206000D037F1112104E900302E07004A3E06408
:1002160007702E900318E07003120D6D20000E90EB
:10022600032FE070087D0F12261C12108320000B8E
:1002360090032FE070051225E340061225F374089B
:10024600F0900302E07004A3E06408703290031893
:10025600E07003120D24122623700312262A2000B2
:100266000812100212321080081226317414122657
:10027600DE12278E1225EA40061225F37409F09045
:100286000302E07004A3E06409702F900318E07085
:1002960003120D6D122623700312262A20000990E0
:1002A600032FE07003120FB620000B90032FE070AF
:1002B600051225E340041225F3F0900302E07004D2
:1002C600A3E0640C7034900318E07003120D45121D
:1002D6002623700312262A20000C90032FE07006B6
:1002E600120F5712339D20000B90032FE07005125A
:1002F60025E340061225F37403F0900302E0700430
:10030600A3E064117031900318E07003120E2312FB
:100316002623700312262A20000990032FE070037B
:1003260012105820000B90032FE070051225E340B1
:10033600061225F37408F0900302E07004A3E0644B
:10034600147025900318E07003120FCD120F84125B
:10035600339D300003122838900306E07002A3E0B4
:1003660070061225F47415F0900302E07004A3E001
:1003760064157040900318E07003120E991226233C
:10038600700312262AC3900307E094321225EA501E
:10039600107D0212260E12321012260C12339D8088
:1003A60008122631741612260530000812263174FA
:1003B60016122605900302E07004A3E0641670523C
:1003C600900318E07006120F4012101812262370C0
:1003D6000312262A122796501412260C1232107B6C
:1003E600017A007D0412261212339D8008122631EE
:1003F60074171226053000081226317414122605C9
:10040600122802400DE41225F774181226059003EF
:1004160022F0900302E07004A3E0641770319003A9
:1004260018E07003120E99122623700312262A2052
:100436000005120E0A80081226317414122605D3FE
:10044600900307E094C81225EA40041227B6F090FC
:100456000302E07004A3E064187036900318E0709D
:1004660003120F10122623700312262A30000A12D6
:100476002631741A1226058004E4120F29D390033C
:1004860007E094421225EA40081226317419122612
:1004960005900302E07004A3E06419704590031808
:1004A600E07003120DEB122623700312262A200099
:1004B60005120E0A8008122631741A122605D390E8
:1004C6000307E0940812268B40081226317418128E
:1004D6002605900322E0640370081225F7F09003C6
:1004E60018F0900302E07004A3E0641A700E900303
:1004F60018E07003120F107F18121079900302E0B3
:100506007004A3E064287025900318E07003120FAE
:10051600CD120F8412339D30000312283890030643
:10052600E07002A3E070061225F47429F09003022D
:10053600E07004A3E064297044900318E07003128D
:100546000F6B122623700312262AC3900307E0942A
:10055600321225EA501412260C1232107B017A0050
:100566007D0212261212339D8008122631742A1239
:10057600260530000812263174281226059003023B
:10058600E07004A3E0642A7052900318E07006122B
:100596000F40121018122623700312262A122796CD
:1005A60050147B017A007D04122612123210122694
:1005B6000C12339D8008122631742B12260530004A
:1005C600081226317428122605122802400DE4125C
:1005D60025F7742C122605900322F0900302E07092
:1005E60004A3E0642B7038900318E07003120F6BBD
:1005F600122623700312262A200008120E671233D1
:100606009D80081226317428122605D3900307E030
:1006160094C81225EA400812263174321226059033
:100626000302E07004A3E0642C703E900318E070AF
:1006360003120FE9122623700312262A30000A122B
:100646002631742E122605800C122619123210122B
:10065600263812339DD3900307E094421225EA40D0
:1006660008122631742D122605900302E07004A3A9
:10067600E0642D7048900318E07003120DEB12260B
:1006860023700312262A200008120E6712339D805B
:1006960008122631742E122605D3900307E094081B
:1006A60012268B4008122631742C1226059003223E
:1006B600E0640370081225F77432122605900302CF
:1006C600E07004A3E0642E700E900318E07003122D
:1006D6000FE97F2C121079900302E07004A3E06406
:1006E600327034900318E07003120D241226237022
:1006F6000312262AE420000E12261A12339D122611
:100706001912321080061225F47433F01226844032
:10071600061225F37434F0900302E07004A3E0643B
:10072600337011900318E07006120D941210327F88
:100736003E1210B4900302E07004A3E064347031FA
:10074600900318E07003120DCD12262370031226B3
:100756002A20000990032FE07003120FB620000B29
:1007660090032FE070051225E340061225F3743539
:10077600F0900302E07004A3E06435703290031831
:10078600E07003120DAC122623700312262A2000F5
:100796000812100212321080081226317414122622
:1007A600DE12278E1225EA40061225F37436F090E3
:1007B6000302E07004A3E064367042900318E07010
:1007C6001490032FF090030AF090030804F0E4124B
:1007D6000FA6121032122623700312262A200009B1
:1007E60090032FE0700312105820000B90032FE0A7
:1007F60070051225E340061225F37437F0900302C4
:10080600E07004A3E064377035900318E0700312BB
:100816000DAC122623700312262A20000E1226196A
:1008260012321012261912339D800812263174389E
:1008360012260512268440061225F37443F090030F
:1008460002E07004A3E064387011900318E07006AB
:10085600120EB212106F7F431210B4900302E070B2
:1008660004A3E064397037900318E07006120DCDCA
:1008760012106F122623700312262A20000C9003F2
:100886002FE07006120F5712339D20000B90032F96
:10089600E070051225E340061225F3743AF0900342
:1008A60002E07004A3E0643A7033900318E0700627
:1008B600120EB2121092122623700312262A20005C
:1008C60008120ECA12339D80061226311226DC1239
:1008D600278E1225EA40061225F3743BF090030298
:1008E600E07004A3E0643B7047900318E070149036
:1008F600032FF090030A04F0E4900308F0120FA609
:10090600121092122623700312262A20000E90033C
:100916002FE0700812103CFFFE12339D20000B9052
:10092600032FE070051225E340061225F37432F01A
:10093600900302E07004A3E0643E7039900318E06F
:100946007003120E23122623700312262A2000118A
:1009560090032FE0700BFBFA7D0FFC7F01FE121057
:100966008320000B90032FE070051225E34006124A
:1009760025F37435F0900302E07004A3E06443703D
:1009860036900318E07003120D45122623700312E9
:10099600262A20000E90032FE0700812103CFFFE5E
:1009A60012339D20000B90032FE070051225E340C3
:1009B600061225F3743AF0900302E07004A3E06493
:1009C60046702B900318E070031210221226237033
:1009D6000312262AE4200005120F2980061225F4A8
:1009E6007447F01225E340061225F37448F090038D
:1009F60002E07004A3E064477041900318E0700EB3
:100A0600900306F0A37414F01252BD122694122617
:100A1600E930000312284212280E1225EA400C1271
:100A2600263812321012263812339D900306E070D3
:100A360002A3E070061225F47446F0900302E070FB
:100A460004A3E064486003020B13900318E0700EE1
:100A56001227241252BD9003201227B904F0300049
:100A6600091226317449F0020B05122668EE6480DD
:100A76009480401112276A500C1226BC12321012B2
:100A8600260C12339D12266812276B40101227730C
:100A9600500B1227C12402120E4B12339D122668E8
:100AA600122774401212277C500D7D901227C32402
:100AB60003120E4B12339D12266812277D400E122A
:100AC60027855009122822120EE012339D1226683D
:100AD6001227864013EF9410EE648094A7500912F3
:100AE600282D120EE012339DC3900321E09410903E
:100AF6000320E0648094A740061225F3744AF09020
:100B06000321E004F07006900320E004F090030255
:100B1600E07004A3E064497033900318E070061295
:100B2600109C1226941226E930000312284212283D
:100B36000E1225EA400E12263812321012263812EC
:100B4600339D8008122631744A122605900302E06E
:100B56007004A3E0644A7034900318E07003121026
:100B660022122623700312262AE420000E122639AA
:100B760012321012261912339D80061225F4744B78
:100B8600F01225E340061225F3744CF0900302E0C0
:100B96007004A3E0644B7039900318E070061210DD
:100BA6009C1226941226E930000312284212280EBF
:100BB6001225EA400C122638123210122638123349
:100BC6009D900306E07002A3E070061225F4744CB3
:100BD600F0900302E07004A3E0644C6003020CBAD8
:100BE600900318E070091227241252BD1226943081
:100BF60000071225FE1210A822122668EE648094C1
:100C060080401112276A500C1226BC12339D122600
:100C16000C12321012266812276B401012277350DE
:100C26000B1227C12402120E7D12321012266812F0
:100C36002774401512277C50107C017D901213F604
:100C4600EF2403120E7D12321012266812277D4001
:100C5600181227855013122822FDE43EFC1226C7DF
:100C660012339D12260C1232101226681227864065
:100C76001ED3EF9410EE648094A7501312282DFD16
:100C8600E43EFC1226C712339D12260C123210D3F4
:100C9600900321E09400900320E064809480500645
:100CA6001225FE1210A8900321E024FFF0900320E5
:100CB600E034FFF02290030AF0900308F090030658
:100CC600F0A3F01252BD9003187401F0E47F32FED7
:100CD600FDFC1249DF2290032FF090030A04F0E492
:100CE600900308F0900306F0A3F01252BD9003188B
:100CF6007401F0E47F32FEFDFC1249DF2290030A04
:100D0600F0900308F0900306F0A3F01252BD900392
:100D1600187401F0E47F32FEFDFC1249DF229003D5
:100D26000AF0900308F0900306F0A3F01252BD906B
:100D360003187401F0E47F32FEFDFC1249DF2290B5
:100D4600032FF090030A7402F0E4900308F0900376
:100D560006F0A3F01252BD9003187401F0E47F323E
:100D6600FEFDFC1249DF2290032FF090030AF0905B
:100D7600030804F0E4900306F0A3F01252BD9003BA
:100D8600187401F0E47F32FEFDFC1249DF22900365
:100D96000AF0900308F0900306F0A3F01252BD90FB
:100DA60003187401F02290030AF0900308F09003F0
:100DB60006F0A3F01252BD9003187401F0E47F32DE
:100DC600FEFDFC1249DF2290032FF090030A04F087
:100DD600E4900308F0900306F0A3F01252BD9003CE
:100DE600187401F022900322E004F01252BD900321
:100DF600187401F0E4900306F0A3F07F32FEFDFCC8
:100E06001249DF22E4FBFA7D14FC7F01FE12321048
:100E1600E4FBFA7D14FC7F01FE12339D2290032F22
:100E2600F090030AF09003087402F0E4900306F0D1
:100E3600A3F01252BD9003187401F0E47F32FEFD58
:100E4600FC1249DF22FDE43EFC7B017A007F017E35
:100E5600001232107B017A007D147C007F017E0037
:100E660022E4FBFA7D14FC7F01FE123210E4FBFA49
:100E76007D14FC7F01FE22FDE43EFC7B017A007FAF
:100E8600017E0012339D7B017A007D147C007F0178
:100E96007E00221252BD9003187401F0E4900306FE
:100EA600F0A3F07F32FEFDFC1249DF2290030AF028
:100EB600900308F0900306F0A3F01252BD900318B9
:100EC6007401F022E4FBFA7D0FFC7F01FE12321062
:100ED600E4FBFA7D0FFC7F01FE22FDE43EFC7B0174
:100EE6007A007F017E001232107B017A007D147C2D
:100EF600007F017E0022FBFA7D0FFC7F01FE12328D
:100F060010E4FBFA7D0FFCFFFE221252BD9003187F
:100F16007401F0E4900306F0A3F07F32FEFDFC12AC
:100F260049DF22FBFA7D14FCFFFE123210E4FBFAC5
:100F36007D14FC7F01FE12339D2290031DE004F018
:100F4600E4900306F0A3F01252BD9003187401F06A
:100F560022FBFA7D0FFC7F01FE123210E4FBFA7DC4
:100F66000FFCFFFE221252BD9003187401F0E490AC
:100F76000306F0A3F07F32FEFDFC1249DF22900348
:100F860007E024FFF0900306E034FFF0E4FBFA7D6F
:100F96000FFCFFFE123210E4FBFA7D0FFCFFFE226F
:100FA600900306F0A3F01252BD9003187401F022CC
:100FB600FBFA7D0FFC7F01FE12339DE4FBFA7D0FE9
:100FC600FCFFFE123210221252BD9003187401F07B
:100FD600900306E4F0A3740FF0E47F32FEFDFC12EA
:100FE60049DF221252BD9003187401F0E490030603
:100FF600F0A3F07F32FEFDFC1249DF22E4FBFA7D0E
:101006000FFC7F01FE12339DE4FBFA7D0FFC7F018E
:10101600FE22E47F32FEFDFC1249DF22900306F039
:10102600A3F01252BD9003187401F022E47F32FE41
:10103600FDFC1249DF22FBFA7D0FFC7F01FE123216
:1010460010E4FBFA7D0FFC227D147C007E00124E1C
:101056008F22FBFA7D0FFCFFFE123210E4FBFA7DB5
:101066000FFC7F01FE12339D22E47F32FEFDFC124F
:1010760049DF227D147C007E00124E8F2212339DA2
:10108600E4FBFA7D0FFCFFFE12321022E47F32FEF3
:10109600FDFC1249DF22900306F0A3740AF01252F7
:1010A600BD221252BD9002457401F0D203227D1476
:0810B6007C007E00124E8F2227
:104E8F00900331122741900318E06401700C122730
:104E9F00A61252BD9003187402F03000031227A619
:104EAF00D3900311E09400900310E064809480404D
:104EBF001A12263812321012263812339D9003110F
:104ECF00E024FFF0900310E034FFF0900310E07047
:104EDF0002A3E07011900331E0FFA3E0900302CF33
:074EEF00F0A3EF12260522DB
:10517800900302E0F47003A3E0F47025900318E0B4
:10518800701F900246E0640160031227F49003291F
:1051980012165900000000E41227241252BD1226EC
:0251A80094224F
:10415600900302E07004A3E064DC7023900318E08F
:10416600700612422912269420000E1226191232C7
:104176001012261912339D800612421F1225FE9038
:104186000302E07004A3E064DD7023900318E0707E
:104196000612422912269420000E122638123210D8
:1041A60012263812339D800612421F1225FE9003F6
:1041B60002E07004A3E064DE702A900318E0700A3F
:1041C600D2B3D2041252BD12269420000E12263803
:1041D60012321012261912339D80091227F4125238
:1041E600BD1225FE900302E07004A3E064DF702890
:1041F600900318E0700AD2B3D2041252BD1226946C
:1042060020000C12261912321012263802339D1283
:1042160027F41252BD1225FE22C2B3C295C2041261
:0B42260052BD22D2B3D2041252BD22BE
:10407300900302E07004A3E064C87012900318E098
:1040830070031241461227FB1226121232109003BC
:1040930002E07004A3E064C97012900318E0700397
:1040A3001241461227FB12261212339D900302E09F
:1040B3007004A3E064CA7015900318E07009122716
:1040C300241252BD1226941226D0123210900302EB
:1040D300E07004A3E064CB7015900318E07009123C
:1040E30027241252BD1226941226D012339D900318
:1040F30002E07004A3E064CC7021900318E070091F
:104103001227241252BD1226941227FB12261212D2
:1041130032101227FB12261212339D900302E07015
:1041230004A3E064CD701B900318E07009122724E8
:104133001252BD1226941226D01232101226D01219
:10414300339D22900306F0A3F01252BD900318741E
:0341530001F02256
:104D4800900245E0FF600964046005EF6405701B8C
:104D5800300318900246E070129003291216590089
:104D68000000001227F4C2031225FE900245E064F9
:104D7800017017300314900329121659000000001F
:104D8800D2B3D204C2031227B6F0900245E0640AF7
:104D9800701B30031890032912165900000000D226
:0E4DA800B3D204C2031226317446122605222D
:1052750075E30775E2FF75EB0775EAFF75F30775CB
:10528500F2FF122758F5F5F5F4F5F7F5F643E17752
:0152950022F6
:0652B70090032F7401F0CA
:1052BD00122758900330F09002FBF090030BF0A3EF
:0852CD00F090030EF0A3F022A3
:10321000900335122741AFEFEF7027AFEEEF70222A
:10322000900335E07004A3E064017016122849127F
:1032300026601227CA122660A3F0A3F09002F712AC
:10324000270CAFEDEF7025AFECEF7020900335E069
:103250007002A3E070161228491226601227CA12C3
:103260002660A3F0A3F09002F712270C900323121C
:1032700026F8900330E0FFC3900338E09FFE9003F0
:1032800037E09400900323F0A3CEF09003141226AD
:10329000F89003121226F8900323E0FEA3E0FF90BB
:1032A0000312EEF0FCA3EFF0FD9002FAE02FF09095
:1032B00002F9E03EF0900315E09003141227D89035
:1032C0000317E02FFF900316E03E900300F0A3EFFA
:1032D000F0EB4A702E90032512266B900324E09F9A
:1032E000FF900323E09EFEEF7803C333CE33CED8A6
:1032F000F990032312272B900301E090030012287A
:1033000016801690032512266B900324E090032369
:1033100012269B9003001227E6FE9002F8E02FF0A1
:103320009002F7E03EF0D39002F8E094D09002F7DC
:10333000E06480948740077407F0A374D0F0C390D2
:1033400002F7E0648094805004E4F0A3F090033529
:10335000E07002A3E0601E900337E07002A3E0700B
:1033600006F5EFF5EE80281226728FEFAF031226D6
:103370007B8DEE801A900337E07002A3E07006F5B3
:10338000EDF5EC800A1226728FED12274D8DEC9030
:0D3390000330E0900309F0E4900330F022D8
:10339D00900335122741AFE5EF7017AFE4EF7012D0
:1033AD00900335E07004A3E064017006122641120B
:1033BD002703AFE7EF7015AFE6EF7010900335E020
:1033CD007002A3E07006122641122703900327E036
:1033DD00FFA3E090032DCFF0A3EFF09002FBE0FFF1
:1033ED00C3900338E09FFE900337E09400900327CD
:1033FD00F0A3CEF090031BE0FFA3E090031ECFF0EF
:10340D00A3EFF09003191226F8900327E0FEA3E036
:10341D00FF900319EEF0FCA3EFF0FD9002FFE02FFB
:10342D00F09002FEE03EF090031CE090031B12278B
:10343D00D890031FE02FFF90031EE03E900304F091
:10344D00A3EFF0EB4A702E90032D12266B900328FC
:10345D00E09FFF900327E09EFEEF7803C333CE334A
:10346D00CED8F990032712272B900305E090030483
:10347D00122816801690032D12266B900328E090CB
:10348D00032712269B9003041227E6FE9002FDE00F
:10349D002FF09002FCE03EF0D39002FDE094D0902E
:1034AD0002FCE06480948740077407F0A374D0F0A9
:1034BD00C39002FCE0648094805004E4F0A3F0908B
:1034CD000335E07002A3E0601F900337E07002A3A4
:1034DD00E07006F5E5F5E4802C9002FC1226758F60
:1034ED00E512274D8DE4801D900337E07002A3E0B7
:1034FD007006F5E7F5E6800D9002FC1226758FE754
:10350D0012274D8DE69002FBE090030DF0E4900242
:03351D00FBF0229E
:03008B00024E23FF
:104E2300C0E0C083C082C0D075D000C007E59F300A
:104E3300E14F900245E0FF64036043EF640B603E83
:104E43009002FBE004F090030FE004F0700690037F
:104E53000EE004F090030AE06401700D1227144081
:104E6300081252B790030AE4F090030AE064027058
:104E73000D12271440081252B790030AE4F0539F0F
:0C4E8300FDD007D0D0D082D083D0E03228
:03009300024CC854
:104CC800C0E0C083C082C0D075D000C007E59F3067
:104CD800E763900245E0FF64036057EF640B60529E
:104CE800900330E004F090030CE004F070069003A9
:104CF8000BE004F0900308E064017015D390030CF6
:104D0800E090030B12271C40081252B7900308E4E6
:104D1800F0900308E064027019D390030CE0941A31
:104D280090030BE06480948440081252B790030803
:104D3800E4F0539F7FD007D0D0D082D083D0E03228
:1024DE00610000580000010002000100030001002D
:1024EE0002000100040001000200010003000100CF
:1024FE0002000100050001000200010003000100BE
:10250E0002000100040001000200010003000100AE
:10251E00020001000600010002000100030001009C
:10252E00020001000400010002000100030001008E
:10253E00020001000500010002000100030001007D
:10254E00020001000400010002000100030001006E
:10255E00020001000700010002000100030001005B
:10256E00020001000400010002000100030001004E
:10257E00020001000500010002000100030001003D
:10258E00020001000400010002000100030001002E
:10259E00020001000600010002000100030001001C
:1025AE00020001000400010002000100030001000E
:1025BE0002000100050001000200010003000100FD
:1025CE0002000100040001000200010003000100EE
:0425DE0002000100F6
:10423100E0FF850883850982E0FBA3E0FAA3E02281
:1042410090FFFD121786EBF0A3EAF0A3E9F022E05C
:10425100F9A3E0FAA3E0850883850982229000137F
:1042610012132EFEEF4E900000F090001112132E4B
:1042710024A1F582E43401F583227812E6FF75F07A
:1042810003A42459F582E43401F58322900168E006
:10429100FCA3E0FDA3E0FEA3E02401FFE43EFEE475
:1042A1003DFDE43CFC90016802164DE075F014A45C
:1042B1002405F9740035F0FA22780EA60308A60247
:1042C10008F6229000091215F9E4FBFAF9F8C30285
:1042D10015E89000030217AA90FFFF021786F990D4
:1042E100001212132EFEEF4E22E02458F582E43420
:1042F10000F583227B007A00790022FF1217AAEED3
:05430100F0A3EFF02223
:10000E0012000412525012504112470E12000312E7
:05001E0052D5020005AF
:10533E00780AE66401700F900158E0C394FFE4947C
:07534E00005003E004F0220F
:1050C700780AE664017036C2AF900158E0D39400C5
:1050D700E494004003E014F0900158E0701D900044
:1050E70001E070171251DA12427B1242391242BAAA
:0E50F700EF0866600612428D125355D2AF22AA
:10529600780AE6701B1251DA7812E6FF18F6EF125A
:1052A600427F1242391242BA780B1242BC120026D1
:0152B60022D5
:0643DB0090FFFD121786A1
:1043E100120007780AE6640160030244A590000206
:1043F100124250C9124248124233F990000F12136F
:104401002E640470030244A5C2AF1242C4700302B9
:104411004490124233F99000091215F9EF24FFFF7D
:10442100EE34FFFEED34FFFDEC34FFFC9000091289
:1044310016291242C47058124233F990000D12131A
:104441002E5437601AE9240DF9E43AFA121315547F
:10445100C812135B124233F990000E7401800812E6
:104461004233F990000EE412136D124233F99000B9
:104471000D12132E54087017900000E0FF12425ED7
:10448100C083C0821242311242DFD082D083F01247
:104491004233F99000031216FD124257124247D2DD
:0444A100AF0243F82B
:0644A500900003021786DF
:0100030022DA
:10525000E4900158F0900001F0900170F0780AF6A7
:105260009001681216590000000090016C12165946
:05527000000000002217
:035041001242D93F
:10504400E4900000F0124257F0124257E0FFC3947C
:1050540001E49400501074A12F124273E4F0124240
:1050640057E004F080E3E47811F608F6780EF608C9
:0A507400F608F6780BF608F608F6C9
:06507E00900001021786FC
:1052D5001242D97404F07B017A01797112424112AC
:0E52E50042F51242417BFF7A517943024306A3
:06470E0090FFF81217866F
:104714007C007D507B017A0079051250847C007DF9
:104724000F7B017A017959125084124257E4F01236
:104734004257E0FFC39403E49400504CEF04A3F009
:10474400EF1242AD124257A3A3740112424812421F
:1047540057A31242AC7B019000051217AA124247DC
:104764009000051217AA124239F9C003C002C00111
:10477400124257A3A3124239F990000312172D12C3
:104784004257E004F00247331242571242ACA3A34B
:1047940074011242481242F5C003C002C001124221
:1047A40057A3A3124239F990000312172D90000267
:1047B400E4F0A3F0A3F07B0190005504F0A374008F
:0547C400F0A37405F0F4
:0647C900900008021786B3
:1050840090FFFE121786ECF0A3EDF012424112429B
:10509400D3E0FEA3E0D39400EE94004020124257E4
:1050A400E0FBA3E475F001121442A9F0FAE4121330
:1050B4005B1242D374FFF5F012142C80D1900005DA
:0350C4000217864A
:10520300C2AF900158E0701D900001E07017125179
:10521300DA12427B1242391242BAEF086660061272
:08522300428D124EF6D2AF22BB
:0351DA001242D9A5
:1051DD009000001242EA124256F0E0FF12427112A4
:1051ED0042EAE0FEEF33333354F8FFEE2F7812F638
:0651FD009000010217867C
:10514300124241124257124250C9124248C2AF9012
:10515300016CE0FCA3E0FDA3E0FEA3E02401FFE477
:105163003EFEE43DFDE43CFC90016C12164DD2AFD3
:0551730012000880D8C5
:0E2E87001242411242D9EFF090FFFD12178661
:102E9500C2AF900055124250C91242481242334AFD
:102EA5004B7003023042124233F99000031216FDB3
:102EB500900055124247D2AF9000041217AA124251
:102EC50039F9C003C002C001124233F91216AE121D
:102ED50042D3124231F990000FEF12136D90000D9D
:102EE500E412136D90000EE412136D900009121692
:102EF5008A000000009000101217AA124239F990BA
:102F050000101217AA12424790000C1217AAE0FCF3
:102F1500A3E0FDA3E0FEA3E0FF90000C1217AA12A8
:102F2500164D9000071217AA124239F990000712A0
:102F350017AA1242479000131217AAE0FEA3E090C9
:102F450000131242FC90000A1217AAE0FEA3E090BB
:102F5500000A1242FC1242D3E0FF131313541FFE62
:102F6500124233F9900011EE12136DEF54079000E1
:102F75001012136D90001112132EFFF874010880C2
:102F850002C333D8FC90001312136D900010121376
:102F95002EFFF87401088002C333D8FC900012128A
:102FA500136D125371124233F9125368C2AF1242B4
:102FB50033F91242D3E012427F12424790000212C7
:102FC5004239F9C003C002C001124233F99000032F
:102FD50012172D1242F5C003C002C001124233F987
:102FE50090000612172D9000021242394A4B6017C5
:102FF500124233F9C003C002C001900002124239E7
:10300500F990000612172D124257E0F9A3E0FAA332
:10301500E0900002C9124248900000124231F912B4
:10302500425EC083C0821242311242DFD082D08319
:10303500F0900170E004F0D2AF7F008004D2AF7F42
:013045004248
:0630460090001502178640
:104BBD00E0FF850883850982E0FBA3E0FAA3E022EC
:104BCD0090FFFE121786E4F0A3F0FBFAF990FFFDBB
:104BDD00121786EBF0A3EAF0A3E9F0221217AAE070
:104BED0075F003A42459F582E43401F583E0F9A3AB
:104BFD00E0FAA3E08508838509822275F003A424D9
:104C0D0059F582E43401F58322780B860308E6FA20
:104C1D0008E6F990000F02132E24A1F582E4340169
:104C2D00F5832290000C0217AA9000030217AA2404
:084C3D000DF9E43AFA02131527
:09430600124BDA90FFFC1217863D
:10430F00C2AF900158E0D39400E494004007D2AFBD
:10431F007F3C0243D590000D1217AAE0FF124C0804
:10432F00124BC54A4B60030243D17901EF124C087F
:10433F00E4F0A3F0A304F0D2AF90FFFE121786E4CF
:10434F00F0A3F0124C30124BC5124BD9124C301255
:10435F004BC5124BD9124C30124BC5F91244AB124C
:10436F004C01124BE0124BCD90FFFC121786121628
:10437F005900000000124BCD90000E1217AA124BDD
:10438F00C5F990001B1217AAE0FF122E87124C36A8
:10439F00EFF0124C36E0700C780AE66401701C12D4
:1043AF0052038017C2AF7B007A00790090000D1284
:1043BF0017AAE0124C08124BE0D2AF124C36E0FFB6
:0643CF008004D2AF7F283C
:0643D50090000E021786A5
:0E457B0090FFFF121786EFF090FFFD121786DB
:10458900C2AF900003124BE9C9124BE1124BBF4A6B
:104599004B7007D2AF7F46024642124BBFF9E4F592
:1045A90083758201EB7006E965827001EA7007D2B2
:1045B900AF7F43024642124BBFF990000D12132EF2
:1045C90054086071E9124C3C54F712135B124BBF4B
:1045D900F990000D12132E70569000091215F9E486
:1045E900FBFAF9F8C31215E87041900000124BBDAF
:1045F900F990001312132EFEEF4E900000F0900078
:104609001112132E124C26C083C082124BBDF99091
:10461900001212132EFEEF4ED082D083F0D2AF7863
:104629000AE66401700B1252038006D2AF8002D2EF
:09463900AF7F008004D2AF7F4482
:064642009000040217863F
:0E3CC00090FFFF121786EFF090FFFB121786A1
:103CCE00C2AF9000051217AAE0FFF4700E124C1648
:103CDE00FE9000051217AAEEF08006124C16B507DC
:103CEE0008124C017401F08005124C01E4F09000B2
:103CFE0005124BE9A3C9124BE1124C01A3124BC59D
:103D0E004A4B7007D2AF7F48023DB2124C01A3124C
:103D1E004BC5F9E4F583758201EB7006E965827097
:103D2E0001EA7007D2AF7F43023DB2124C01A312DB
:103D3E004BC5F990001112132EFF9000041217AA12
:103D4E00EFF09000041217AAE0FF124C26C083C0B9
:103D5E0082E0FE124C01A3124BC5F9900012121311
:103D6E002EF4FDEE5DD082D083F074A12F124C287C
:103D7E00E07013900000E0FF90001312132EF4FE7B
:103D8E00EF5E900000F0124C01A3124BC5124C3C9A
:103D9E00440812135BD2AF124C01E064017003129F
:043DAE0052037F003D
:063DB200900006021786D6
:10510500121786900158E0D39400E4940022780B9E
:10511500860308E6FA08E6F922FC850883850982F4
:1051250022E0FCA3E0FDA3E0FEA3E0FF22F090FF58
:0E513500FF021786FFEE3AFEED39FDEC382240
:0C49DF0090FFFC12178612164D90FFFF8F
:1049EB001251054003024A80900001E09400E494C8
:1049FB00004003024A80E4FFFEFD12511EA3E0F8C3
:104A0B00A3E0F9A3E0FAA3E0FB1215E84067C2AFFD
:104A1B0012511390001112132E12511FF0E0FF24AC
:104A2B00A1F582E43401F583C083C082E0FE12510C
:104A3B001390001212132EF4FDEE5DD082D083F092
:104A4B0074A12FF582E43401F583E070139000001C
:104A5B00E0FF90001312132EF4FEEF5E900000F0B7
:104A6B0012511FA31251261251139000091216292D
:054A7B00D2AF1252034E
:064A8000900005021786FC
:10464800125133EB125132ED125132EFF090FFFC60
:1046580012510540057F5502470890000112510B81
:1046680040057F320247089000051217AAE0FF7E36
:10467800007C007D3C1217B7C004C005C006C00707
:104688009000041217AAE0FF7E007C0E7D1012171E
:10469800B7D003D002D001D000EF2BFBEE3AFAEDF1
:1046A80039F9EC38F89000061217AAE0FFE4FCFD8F
:1046B800FEEB2F125139FCC004C005C006C007909C
:1046C80000071217AAE0FEA3E0FFEF24F4FFEE3480
:1046D80001FEE433FDE433FCE47BE87A03F9F812E5
:1046E8001548D003D002D001D000EF2B1251391257
:1046F800511E12164D12511F1251261249DF7F000A
:0647080090000902178673
:03000000024B2B85
:104B2B0078FEE4F6D8FD750804750900758120023E
:024B3B004B78B5
:104DB6001217AAA3E0FAEAFF850883850982E0FBB9
:104DC600A3E475F001121442A9F0FAEF12135B8501
:104DD6000883850982E0FBA3E475F001121442A959
:104DE600F0FA2290FFFD121786EBF0A3EAF0A3E992
:104DF600F0850883850982E0F9A3E0FAA3E0850837
:104E060083850982C9F0A3EAF0A3E9F022EF121321
:0D4E16005B9000090217AA9000060217AA7F
:1044AB0090FFFD121786EB124E0B90FFFD12178635
:1044BB00124E1DE0FBA3E0FAA3E0F9124E1DEB1226
:1044CB004E0B90000C1217AAE0FEA3E0FF90000C1D
:1044DB001217AAEEF0A3EFF0124E17124DFD124D6C
:1044EB00D5740F12135B9000031217AAA3A3E0FF5E
:1044FB00124DD5EF12135B900003124DB6740A12D6
:10450B004DD2740B124DD2E4124DD2E4124DD2E4C3
:10451B00124DD2E412135B124E1DA3A3E0FF124DFA
:10452B00D5EF12135B900006124DB67401124DD2EB
:10453B007404124DD27405124DD27406124DD274FE
:10454B0007124E14A3E0FAA3E02430E43AFF124D15
:10455B00D5124E13A3A3E02430F9AF01124DD5129F
:0A456B004E13E0FBA3E0FAA3E0F911
:0645750090000E02178603
:09535F00758CB8E4F58AD28C22A9
:03000B00024FFDA4
:104FFD00C0E0C0F0C083C082C0D075D000C000C07A
:10500D0001C002C003C004C005C006C00712533E54
:10501D0012535F1243DB1250C7D007D006D005D014
:10502D0004D003D002D001D000D0D0D082D083D014
:04503D00F0D0E0329D
:10368500758E5190FE917401F05389F0438901754F
:103695008CB8E4F58AD2A9D28C90FE80E04401F082
:1036A50090FF1374C2F090FF12F090FF09F090FFA5
:1036B5000AF090FF907423F090FF9114F075DA01F1
:1036C50090FF947411F090FF9504F075DB0190FF65
:1036D5000D74C2F090FF987415F075DC0143F17715
:1036E50090FF0B7454F090FF0CF090FF087450F0AD
:1036F50090FF0774C2F0D287D2A190FF11F090FF1E
:103705001AF090FF18F090FF19F0D2B0D2B190FFE7
:103715001BF090FF06F0D28690FF107460F090FFCA
:103725001CF0E490FF02F090FF03F090FF04F0908E
:10373500FF017402F090FF00F090FF17F090FF1565
:10374500F090FF16F075B4817F147E0012007E9014
:10375500FE9B744BF090FED07410F090FED174DF98
:10376500F090FED2744EF090FED37423F090FEC01C
:10377500741FF043B84053B4DF43B44090FF1D7449
:1037850069F090FEB4E04404F090FEBAE04402F023
:1037950043D80190FF14746BF090FEBCE04410F028
:1037A50043D802D2AF75BD1790FEA074FFF090FF0D
:1037B5000E74C2F090FF0F7462F090FFA07416F0C3
:1037C50090FFA104F075CC0675CEFF75CD98759E5A
:0A37D5000275981043A810D2AF222D
:0100040022D9
:0100050022D8
:09536800124DE9900003021786C2
:0100060022D7
:09537100124DE9900003021786B9
:0100070022D6
:0100080022D5
:0B007E00EF1FAC0670011E4C70F62254
:10002600120006780B088683088682A3E0F8A3E010
:10003600F988838982E0FD7821A308E0F6DDFA8855
:1000460081A3E0F508A3E0F509780A7601D0E0FF80
:10005600D0E0FED0E0FDD0E0FCD0E0FBD0E0FAD06E
:10006600E0F9D0E0F8D0D0D082D083D0F0D0E0D282
:02007600AF32A7
:104EF600C0E0C0F0C083C082C0D0E8C0E0E9C0E036
:104F0600EAC0E0EBC0E0ECC0E0EDC0E0EEC0E0EFF0
:104F1600C0E0E581C39421FD780B0886830886826C
:104F2600A3E0F8A3E0F988838982EDF07821A3084D
:104F3600E6F0DDFAA3E508F0A3E509F0120006782D
:104F46000B790EE7F60809E7F60809E7F67811790E
:064F560012E7F60200293B
:0A535500E581C39404F581024F18AE
:1010BE00021300E86480F8E933E83360110460F04D
:1010CE00ED33EC337009E8FCE9FDEAFEEBFF220498
:1010DE0060DED3EB9FEA9EE99DE8C2E78CF0C2F793
:1010EE0095F0400CE8CCF8E9CDF9EACEFAEBCFFB5F
:1010FE001212CB85D0F05804700320D5B3E80470DB
:10110E00075002B2D502130A92D5EC0460F7E4CC74
:10111E00C0E0C398F8603B94186008400DD0E0FB27
:10112E000212E2E4FBFAC9FC8028E830E406E4C9C6
:10113E00FBE4CAFCE830E305E4C9CACBFCE854077B
:10114E006010F8C3E913F9EA13FAEB13FBEC13FC86
:10115E00D8F130F52FC3E49CFCEF9BFFEE9AFEED29
:10116E0099FDD0E0FBEF4E4D4C701222DB030213C3
:10117E0007EC2CFCEF33FFEE33FEED33FDED30E7E5
:10118E00EB0212E2EF2BFFEE3AFEED39FDD0E0FB63
:10119E0050130BBB000302130AED13FDEE13FEEF0B
:0811AE0013FFEC13FC0212E236
:1011B60002130AEC5D046005E8590470030213008B
:1011C6001212CB580460F6EC4860F2EC7004FDFE97
:1011D600FF22C860DB2481C85009C398600250060C
:1011E6000213079850CAF582E9294B4A7005AB826B
:1011F6000212F675F0007C1A7880C3EF9BEE9AED2A
:1012060099400DC3EF9BFFEE9AFEED99FDE842F083
:10121600DC23ACF0D0E0FFD0E0FED0E0FDAB8220D6
:10122600E7101BEB60BAEC2CFCEF33FFEE33FEED60
:1012360033FD0212E2E803F830E705C0F075F0006E
:10124600EF2FFFEE33FEED33FD40B830E7C280AA44
:1012560075F020800E75F010800575F0087D007E13
:10126600007F003392D530D5031215DAEC334010E7
:10127600EF33FFEE33FEED33FDEC33FCD5F0ED221C
:0E128600E5F0247EA2D513CC92E7CDCEFF2258
:10129400EDD2E7CD33EC3392D524814006E4FFFE52
:1012A400FDFC22FCE4CFCECDCC24E0501174FF80B1
:1012B400EDC3CC13CCCD13CDCE13CECF13CF04704E
:0712C400F030D5DE0215DA5F
:1012CB00E9D2E7C933E833F892D5EDD2E7CD33EC69
:0712DB0033FC5002B2D522E2
:1012E200EC30E7100FBF000C0EBE00080DBD00046D
:1012F2000BEB6014A2D5EB13FCED92E7FD2274FF19
:10130200FCFDFEFF22E480F8A2D574FF13FC7D8071
:03131200E480EF85
:104B3D00024F5CE493A3F8E493A34003F68001F2E3
:104B4D0008DFF48029E493A3F85407240CC8C33379
:104B5D00C4540F4420C8834004F456800146F6DF48
:104B6D00E4800B01020408102040809022DFE47ED7
:104B7D00019360BCA3FF543F30E509541FFEE4933D
:104B8D00A360010ECF54C025E060A840B8E493A304
:104B9D00FAE493A3F8E493A3C8C582C8CAC583CA2F
:104BAD00F0A3C8C582C8CAC583CADFE9DEE780BEE7
:0125E20000F8
:10131500BB010689828A83E0225002E722BBFE02D6
:09132500E32289828A83E4932209
:10132E00BB010CE58229F582E5833AF583E0225074
:10133E0006E92582F8E622BBFE06E92582F8E222BE
:0D134E00E58229F582E5833AF583E49322D8
:10135B00BB010689828A83F0225002F722BBFE0171
:02136B00F3226B
:10136D00F8BB010DE58229F582E5833AF583E8F0B6
:10137D00225006E92582C8F622BBFE05E92582C862
:02138D00F2224A
:10138F00EF8DF0A4A8F0CF8CF0A428CE8DF0A42E72
:02139F00FE222C
:1013A100BC000BBE0029EF8DF084FFADF022E4CC30
:1013B100F875F008EF2FFFEE33FEEC33FCEE9DECF9
:1013C100984005FCEE9DFE0FD5F0E9E4CEFD22ED3F
:1013D100F8F5F0EE8420D21CFEADF075F008EF2F89
:1013E100FFED33FD4007985006D5F0F222C398FD7A
:0513F1000FD5F0EA2217
:1013F600C2D5EC30E709B2D5E4C39DFDE49CFCEE12
:1014060030E715B2D5E4C39FFFE49EFE1213A1C3D5
:10141600E49DFDE49CFC80031213A130D507C3E4D0
:061426009FFFE49EFE2280
:10142C00C5F0F8A3E028F0C5F0F8E582158270024B
:06143C001583E038F022E8
:10144200A3F8E0C5F025F0F0E5821582700215835D
:06145200E0C838F0E822BA
:10145800BB0110E58229F582E5833AF583E0F5F0D2
:10146800A3E0225009E92582F886F008E622BBFEAF
:101478000AE92582F8E2F5F008E222E5832AF583F5
:08148800E993F5F0A3E99322BA
:10149000F8BB0111E58229F582E5833AF583E8F08E
:1014A000E5F0A3F0225009E92582C8F608A6F0224B
:0D14B000BBFE09E92582C8F2E5F008F22232
:1014BD00E88FF0A4CC8BF0A42CFCE98EF0A42CFCCE
:1014CD008AF0EDA42CFCEA8EF0A4CDA8F08BF0A44C
:1014DD002DCC3825F0FDE98FF0A42CCD35F0FCEBAB
:1014ED008EF0A4FEA9F0EB8FF0A4CFC5F02ECD3970
:0F14FD00FEE43CFCEAA42DCE35F0FDE43CFC22DD
:10150C0075F008758200EF2FFFEE33FECD33CDCC96
:10151C0033CCC58233C5829BED9AEC99E582984019
:10152C000CF582EE9BFEED9AFDEC99FC0FD5F0D6F6
:10153C00E4CEFBE4CDFAE4CCF9A88222B800C1B920
:10154C000059BA002DEC8BF084CFCECDFCE5F0CB5E
:10155C00F97818EF2FFFEE33FEED33FDEC33FCEB97
:10156C0033FB10D703994004EB99FB0FD8E5E4F952
:10157C00FA227818EF2FFFEE33FEED33FDEC33FC3F
:10158C00C933C910D7059BE99A4007EC9BFCE99A33
:10159C00F90FD8E0E4C9FAE4CCFB2275F010EF2F78
:1015AC00FFEE33FEED33FDCC33CCC833C810D70778
:1015BC009BEC9AE899400AED9BFDEC9AFCE899F8B3
:0E15CC000FD5F0DAE4CDFBE4CCFAE4C8F92246
:0E15DA00C3E49FFFE49EFEE49DFDE49CFC2222
:1015E800EB9FF5F0EA9E42F0E99D42F0E89C45F059
:0115F80022D0
:1015F900BB010DE58229F582E5833AF5830217F0EF
:101609005007E92582F80217E4BBFE07E92582F8AD
:101619000217FCE58229F582E5833AF58302180869
:10162900BB010DE58229F582E5833AF58302164D62
:101639005007E92582F8021818BBFE07E92582F848
:04164900021824223D
:0C164D00ECF0A3EDF0A3EEF0A3EFF02210
:10165900A8828583F0D083D0821216701216701278
:101669001670121670E473E493A3C583C5F0C5839D
:10167900C8C582C8F0A3C583C5F0C583C8C582C8DB
:01168900223E
:10168A00BB010DE58229F582E5833AF583021659F5
:10169A005007E92582F8021830BBFE07E92582F8CF
:0416AA0002184922B7
:1016AE00BB011A89828A83D0F0D0E0F8D0E0F9D05D
:1016BE00E0FAD0E0FBE8C0E0C0F002187D5016E979
:1016CE00F8D083D082D0E0F9D0E0FAD0E0FBC0822F
:1016DE00C08302186BBBFE16E9F8D083D082D0E02F
:0F16EE00F9D0E0FAD0E0FBC082C08302188F224F
:1016FD00BB010DE58229F582E5833AF58302187465
:10170D005007E92582F8021862BBFE07E92582F829
:10171D00021886E58229F582E5833AF58302189849
:10172D00BB0120E58229F582E5833AF583D0F0D01F
:10173D00E0F8D0E0F9D0E0FAD0E0FBE8C0E0C0F08E
:10174D0002187D5018E92582F8D083D082D0E0F9B7
:10175D00D0E0FAD0E0FBC082C08302186BBBFE184C
:10176D00E92582F8D083D082D0E0F9D0E0FAD0E03C
:09177D00FBC082C08302188F2218
:10178600E5092582F582E5083583F583B5080485E4
:1017960082092210AF06858209F50822858209F59D
:0417A60008D2AF2294
:0D17AA00E5092582F582E5083583F58322E7
:1017B700EC8EF0A4CCC5F0CCCDF8EFA4CEC5F02DBF
:1017C700FDE43CFCE8A42EC8C5F03DFDE43CFCEF7D
:0D17D700A4FFE5F028FEE43DFDE43CFC220B
:0C17E400E6FC08E6FD08E6FE08E6FF2231
:0C17F000E0FCA3E0FDA3E0FEA3E0FF226C
:0C17FC00E2FC08E2FD08E2FE08E2FF2229
:10180800E493FC740193FD740293FE740393FF2226
:0C181800ECF608EDF608EEF608EFF622FC
:0C182400ECF208EDF208EEF208EFF22200
:10183000D083D082E493F608740193F6087402937F
:09184000F608740393F6740473B6
:10184900D083D082E493F208740193F2087402936E
:09185900F208740393F2740473A5
:09186200E6FB08E6FA08E6F922AB
:09186B00EBF608EAF608E9F622A2
:09187400E0FBA3E0FAA3E0F92275
:09187D00EBF0A3EAF0A3E9F0226C
:09188600E2FB08E2FA08E2F92293
:09188F00EBF208EAF208E9F2228A
:0C189800E493FB740193FA740293F922AC
:00000001FF
